{
  "contractName": "DepositDevice",
  "abi": [
    {
      "constant": false,
      "inputs": [],
      "name": "renounceOwnership",
      "outputs": [],
      "payable": false,
      "stateMutability": "nonpayable",
      "type": "function"
    },
    {
      "constant": true,
      "inputs": [],
      "name": "owner",
      "outputs": [
        {
          "name": "",
          "type": "address"
        }
      ],
      "payable": false,
      "stateMutability": "view",
      "type": "function"
    },
    {
      "constant": false,
      "inputs": [
        {
          "name": "_newOwner",
          "type": "address"
        }
      ],
      "name": "transferOwnership",
      "outputs": [],
      "payable": false,
      "stateMutability": "nonpayable",
      "type": "function"
    },
    {
      "inputs": [
        {
          "name": "_chid",
          "type": "string"
        },
        {
          "name": "_sender",
          "type": "address"
        },
        {
          "name": "_factory",
          "type": "address"
        }
      ],
      "payable": false,
      "stateMutability": "nonpayable",
      "type": "constructor"
    },
    {
      "anonymous": false,
      "inputs": [
        {
          "indexed": true,
          "name": "proofHash",
          "type": "bytes32"
        }
      ],
      "name": "proofGenerated",
      "type": "event"
    },
    {
      "anonymous": false,
      "inputs": [
        {
          "indexed": false,
          "name": "deviceAddress",
          "type": "address"
        },
        {
          "indexed": false,
          "name": "chid",
          "type": "string"
        },
        {
          "indexed": false,
          "name": "timestamp",
          "type": "uint256"
        }
      ],
      "name": "registerProof",
      "type": "event"
    },
    {
      "anonymous": false,
      "inputs": [
        {
          "indexed": false,
          "name": "deviceAddress",
          "type": "address"
        },
        {
          "indexed": false,
          "name": "did",
          "type": "string"
        },
        {
          "indexed": false,
          "name": "documentSignature",
          "type": "string"
        },
        {
          "indexed": false,
          "name": "registerID",
          "type": "string"
        },
        {
          "indexed": false,
          "name": "timestamp",
          "type": "uint256"
        }
      ],
      "name": "issueProof",
      "type": "event"
    },
    {
      "anonymous": false,
      "inputs": [
        {
          "indexed": false,
          "name": "deviceAddress",
          "type": "address"
        },
        {
          "indexed": false,
          "name": "registerID",
          "type": "string"
        },
        {
          "indexed": false,
          "name": "documentSignature",
          "type": "string"
        },
        {
          "indexed": false,
          "name": "documentType",
          "type": "string"
        },
        {
          "indexed": false,
          "name": "timestamp",
          "type": "uint256"
        }
      ],
      "name": "genericProof",
      "type": "event"
    },
    {
      "anonymous": false,
      "inputs": [
        {
          "indexed": false,
          "name": "deviceAddress",
          "type": "address"
        }
      ],
      "name": "DeviceRecycled",
      "type": "event"
    },
    {
      "anonymous": false,
      "inputs": [
        {
          "indexed": true,
          "name": "previousOwner",
          "type": "address"
        }
      ],
      "name": "OwnershipRenounced",
      "type": "event"
    },
    {
      "anonymous": false,
      "inputs": [
        {
          "indexed": true,
          "name": "previousOwner",
          "type": "address"
        },
        {
          "indexed": true,
          "name": "newOwner",
          "type": "address"
        }
      ],
      "name": "OwnershipTransferred",
      "type": "event"
    },
    {
      "constant": false,
      "inputs": [
        {
          "name": "_did",
          "type": "string"
        },
        {
          "name": "_registerID",
          "type": "string"
        },
        {
          "name": "_documentSignature",
          "type": "string"
        }
      ],
      "name": "issueDID",
      "outputs": [],
      "payable": false,
      "stateMutability": "nonpayable",
      "type": "function"
    },
    {
      "constant": false,
      "inputs": [
        {
          "name": "_registerID",
          "type": "string"
        },
        {
          "name": "_documentSignature",
          "type": "string"
        },
        {
          "name": "_type",
          "type": "string"
        }
      ],
      "name": "generateGenericProof",
      "outputs": [],
      "payable": false,
      "stateMutability": "nonpayable",
      "type": "function"
    },
    {
      "constant": true,
      "inputs": [],
      "name": "getData",
      "outputs": [
        {
          "components": [
            {
              "name": "did",
              "type": "string"
            },
            {
              "name": "chid",
              "type": "string"
            },
            {
              "name": "registerID",
              "type": "string"
            },
            {
              "name": "registerDate",
              "type": "uint256"
            },
            {
              "name": "owner",
              "type": "address"
            }
          ],
          "name": "_data",
          "type": "tuple"
        }
      ],
      "payable": false,
      "stateMutability": "view",
      "type": "function"
    },
    {
      "constant": true,
      "inputs": [],
      "name": "getRegisterProoofs",
      "outputs": [
        {
          "components": [
            {
              "name": "chid",
              "type": "string"
            },
            {
              "name": "timestamp",
              "type": "uint256"
            },
            {
              "name": "blockNumber",
              "type": "uint256"
            }
          ],
          "name": "_data",
          "type": "tuple[]"
        }
      ],
      "payable": false,
      "stateMutability": "view",
      "type": "function"
    },
    {
      "constant": true,
      "inputs": [],
      "name": "getIssueProofs",
      "outputs": [
        {
          "components": [
            {
              "name": "did",
              "type": "string"
            },
            {
              "name": "registerID",
              "type": "string"
            },
            {
              "name": "documentSignature",
              "type": "string"
            },
            {
              "name": "timestamp",
              "type": "uint256"
            },
            {
              "name": "blockNumber",
              "type": "uint256"
            }
          ],
          "name": "_data",
          "type": "tuple[]"
        }
      ],
      "payable": false,
      "stateMutability": "view",
      "type": "function"
    },
    {
      "constant": true,
      "inputs": [],
      "name": "getGenericProofs",
      "outputs": [
        {
          "components": [
            {
              "name": "registerID",
              "type": "string"
            },
            {
              "name": "documentSignature",
              "type": "string"
            },
            {
              "name": "documentType",
              "type": "string"
            },
            {
              "name": "timestamp",
              "type": "uint256"
            },
            {
              "name": "blockNumber",
              "type": "uint256"
            }
          ],
          "name": "_data",
          "type": "tuple[]"
        }
      ],
      "payable": false,
      "stateMutability": "view",
      "type": "function"
    }
  ],
  "bytecode": "0x60806040523480156200001157600080fd5b506040516200239138038062002391833981018060405262000037919081019062000532565b6200004162000366565b336000806101000a81548173ffffffffffffffffffffffffffffffffffffffff021916908373ffffffffffffffffffffffffffffffffffffffff16021790555081600160006101000a81548173ffffffffffffffffffffffffffffffffffffffff021916908373ffffffffffffffffffffffffffffffffffffffff16021790555082600260040160006101000a81548173ffffffffffffffffffffffffffffffffffffffff021916908373ffffffffffffffffffffffffffffffffffffffff16021790555083600260010190805190602001906200012192919062000388565b5042600260030181905550620001468362000187640100000000026401000000009004565b83816000018190525042816020018181525050438160400181815250506200017d81620002ba640100000000026401000000009004565b50505050620007b9565b600073ffffffffffffffffffffffffffffffffffffffff168173ffffffffffffffffffffffffffffffffffffffff1614151515620001fc576040517f08c379a0000000000000000000000000000000000000000000000000000000008152600401620001f390620006a0565b60405180910390fd5b8073ffffffffffffffffffffffffffffffffffffffff166000809054906101000a900473ffffffffffffffffffffffffffffffffffffffff1673ffffffffffffffffffffffffffffffffffffffff167f8be0079c531659141344cd1fd0a4f28419497f9722a3daafe3b4186f6b6457e060405160405180910390a3806000806101000a81548173ffffffffffffffffffffffffffffffffffffffff021916908373ffffffffffffffffffffffffffffffffffffffff16021790555050565b600781908060018154018082558091505090600182039060005260206000209060030201600090919290919091506000820151816000019080519060200190620003069291906200040f565b5060208201518160010155604082015181600201555050507f69a49b7d55d0363d4054f74cd6b1dd9ba7f6d3a1bd676ad4fc957d874a6ca08b30826000015183602001516040516200035b939291906200065c565b60405180910390a150565b6060604051908101604052806060815260200160008152602001600081525090565b828054600181600116156101000203166002900490600052602060002090601f016020900481019282601f10620003cb57805160ff1916838001178555620003fc565b82800160010185558215620003fc579182015b82811115620003fb578251825591602001919060010190620003de565b5b5090506200040b919062000496565b5090565b828054600181600116156101000203166002900490600052602060002090601f016020900481019282601f106200045257805160ff191683800117855562000483565b8280016001018555821562000483579182015b828111156200048257825182559160200191906001019062000465565b5b50905062000492919062000496565b5090565b620004bb91905b80821115620004b75760008160009055506001016200049d565b5090565b90565b6000620004cc825162000752565b905092915050565b600082601f8301121515620004e857600080fd5b8151620004ff620004f982620006f0565b620006c2565b915080825260208301602083018583830111156200051c57600080fd5b6200052983828462000772565b50505092915050565b6000806000606084860312156200054857600080fd5b600084015167ffffffffffffffff8111156200056357600080fd5b6200057186828701620004d4565b93505060206200058486828701620004be565b92505060406200059786828701620004be565b9150509250925092565b620005ac8162000728565b82525050565b6000620005bf826200071d565b808452620005d581602086016020860162000772565b620005e081620007a8565b602085010191505092915050565b6000602f82527f546865206e6577206f776e65722063616e6e6f7420626520746865206465666160208301527f756c7420616464726573732030783000000000000000000000000000000000006040830152606082019050919050565b620006568162000748565b82525050565b6000606082019050620006736000830186620005a1565b8181036020830152620006878185620005b2565b90506200069860408301846200064b565b949350505050565b60006020820190508181036000830152620006bb81620005ee565b9050919050565b6000604051905081810181811067ffffffffffffffff82111715620006e657600080fd5b8060405250919050565b600067ffffffffffffffff8211156200070857600080fd5b601f19601f8301169050602081019050919050565b600081519050919050565b600073ffffffffffffffffffffffffffffffffffffffff82169050919050565b6000819050919050565b600073ffffffffffffffffffffffffffffffffffffffff82169050919050565b60005b838110156200079257808201518184015260208101905062000775565b83811115620007a2576000848401525b50505050565b6000601f19601f8301169050919050565b611bc880620007c96000396000f300608060405260043610610099576000357c0100000000000000000000000000000000000000000000000000000000900463ffffffff1680630e9bc9921461009e57806323cb1006146100c95780633bc5de30146100f25780633de53a3a1461011d578063715018a6146101465780638da5cb5b1461015d578063caee317114610188578063e2351daf146101b3578063f2fde38b146101de575b600080fd5b3480156100aa57600080fd5b506100b3610207565b6040516100c0919061196d565b60405180910390f35b3480156100d557600080fd5b506100f060048036036100eb919081019061135f565b610461565b005b3480156100fe57600080fd5b5061010761056b565b60405161011491906119f1565b60405180910390f35b34801561012957600080fd5b50610144600480360361013f919081019061135f565b6107cc565b005b34801561015257600080fd5b5061015b610979565b005b34801561016957600080fd5b50610172610ab1565b60405161017f9190611860565b60405180910390f35b34801561019457600080fd5b5061019d610ad6565b6040516101aa919061198f565b60405180910390f35b3480156101bf57600080fd5b506101c8610bec565b6040516101d5919061194b565b60405180910390f35b3480156101ea57600080fd5b5061020560048036036102009190810190611336565b610e46565b005b60606008805480602002602001604051908101604052809291908181526020016000905b82821015610458578382906000526020600020906005020160a06040519081016040529081600082018054600181600116156101000203166002900480601f0160208091040260200160405190810160405280929190818152602001828054600181600116156101000203166002900480156102e85780601f106102bd576101008083540402835291602001916102e8565b820191906000526020600020905b8154815290600101906020018083116102cb57829003601f168201915b50505050508152602001600182018054600181600116156101000203166002900480601f01602080910402602001604051908101604052809291908181526020018280546001816001161561010002031660029004801561038a5780601f1061035f5761010080835404028352916020019161038a565b820191906000526020600020905b81548152906001019060200180831161036d57829003601f168201915b50505050508152602001600282018054600181600116156101000203166002900480601f01602080910402602001604051908101604052809291908181526020018280546001816001161561010002031660029004801561042c5780601f106104015761010080835404028352916020019161042c565b820191906000526020600020905b81548152906001019060200180831161040f57829003601f168201915b50505050508152602001600382015481526020016004820154815250508152602001906001019061022b565b50505050905090565b610469611101565b6000809054906101000a900473ffffffffffffffffffffffffffffffffffffffff1673ffffffffffffffffffffffffffffffffffffffff163373ffffffffffffffffffffffffffffffffffffffff161415156104fa576040517f08c379a00000000000000000000000000000000000000000000000000000000081526004016104f1906119b1565b60405180910390fd5b83816000018190525082816020018190525081816040018190525042816060018181525050438160800181815250508360026000019080519060200190610542929190611131565b508260028001908051906020019061055b929190611131565b5061056581610ee3565b50505050565b6105736111b1565b600260a06040519081016040529081600082018054600181600116156101000203166002900480601f01602080910402602001604051908101604052809291908181526020018280546001816001161561010002031660029004801561061a5780601f106105ef5761010080835404028352916020019161061a565b820191906000526020600020905b8154815290600101906020018083116105fd57829003601f168201915b50505050508152602001600182018054600181600116156101000203166002900480601f0160208091040260200160405190810160405280929190818152602001828054600181600116156101000203166002900480156106bc5780601f10610691576101008083540402835291602001916106bc565b820191906000526020600020905b81548152906001019060200180831161069f57829003601f168201915b50505050508152602001600282018054600181600116156101000203166002900480601f01602080910402602001604051908101604052809291908181526020018280546001816001161561010002031660029004801561075e5780601f106107335761010080835404028352916020019161075e565b820191906000526020600020905b81548152906001019060200180831161074157829003601f168201915b50505050508152602001600382015481526020016004820160009054906101000a900473ffffffffffffffffffffffffffffffffffffffff1673ffffffffffffffffffffffffffffffffffffffff1673ffffffffffffffffffffffffffffffffffffffff1681525050905090565b6107d46111f7565b6000809054906101000a900473ffffffffffffffffffffffffffffffffffffffff1673ffffffffffffffffffffffffffffffffffffffff163373ffffffffffffffffffffffffffffffffffffffff16141515610865576040517f08c379a000000000000000000000000000000000000000000000000000000000815260040161085c906119b1565b60405180910390fd5b83816000018190525082816020018190525081816040018190525042816060018181525050438160800181815250506009819080600181540180825580915050906001820390600052602060002090600502016000909192909190915060008201518160000190805190602001906108de929190611227565b5060208201518160010190805190602001906108fb929190611227565b506040820151816002019080519060200190610918929190611227565b5060608201518160030155608082015181600401555050507f04047c394d2efe60b628c90b204d29014c69b5254122c34391f91a8c8b77670830858585856060015160405161096b95949392919061187b565b60405180910390a150505050565b6000809054906101000a900473ffffffffffffffffffffffffffffffffffffffff1673ffffffffffffffffffffffffffffffffffffffff163373ffffffffffffffffffffffffffffffffffffffff16141515610a0a576040517f08c379a0000000000000000000000000000000000000000000000000000000008152600401610a01906119b1565b60405180910390fd5b6000809054906101000a900473ffffffffffffffffffffffffffffffffffffffff1673ffffffffffffffffffffffffffffffffffffffff167ff8df31144d9c2f0f6b59d69b8b98abd5459d07f2742c4df920b25aae33c6482060405160405180910390a260008060006101000a81548173ffffffffffffffffffffffffffffffffffffffff021916908373ffffffffffffffffffffffffffffffffffffffff160217905550565b6000809054906101000a900473ffffffffffffffffffffffffffffffffffffffff1681565b60606007805480602002602001604051908101604052809291908181526020016000905b82821015610be3578382906000526020600020906003020160606040519081016040529081600082018054600181600116156101000203166002900480601f016020809104026020016040519081016040528092919081815260200182805460018160011615610100020316600290048015610bb75780601f10610b8c57610100808354040283529160200191610bb7565b820191906000526020600020905b815481529060010190602001808311610b9a57829003601f168201915b505050505081526020016001820154815260200160028201548152505081526020019060010190610afa565b50505050905090565b60606009805480602002602001604051908101604052809291908181526020016000905b82821015610e3d578382906000526020600020906005020160a06040519081016040529081600082018054600181600116156101000203166002900480601f016020809104026020016040519081016040528092919081815260200182805460018160011615610100020316600290048015610ccd5780601f10610ca257610100808354040283529160200191610ccd565b820191906000526020600020905b815481529060010190602001808311610cb057829003601f168201915b50505050508152602001600182018054600181600116156101000203166002900480601f016020809104026020016040519081016040528092919081815260200182805460018160011615610100020316600290048015610d6f5780601f10610d4457610100808354040283529160200191610d6f565b820191906000526020600020905b815481529060010190602001808311610d5257829003601f168201915b50505050508152602001600282018054600181600116156101000203166002900480601f016020809104026020016040519081016040528092919081815260200182805460018160011615610100020316600290048015610e115780601f10610de657610100808354040283529160200191610e11565b820191906000526020600020905b815481529060010190602001808311610df457829003601f168201915b505050505081526020016003820154815260200160048201548152505081526020019060010190610c10565b50505050905090565b6000809054906101000a900473ffffffffffffffffffffffffffffffffffffffff1673ffffffffffffffffffffffffffffffffffffffff163373ffffffffffffffffffffffffffffffffffffffff16141515610ed7576040517f08c379a0000000000000000000000000000000000000000000000000000000008152600401610ece906119b1565b60405180910390fd5b610ee081610fd1565b50565b600881908060018154018082558091505090600182039060005260206000209060050201600090919290919091506000820151816000019080519060200190610f2d929190611227565b506020820151816001019080519060200190610f4a929190611227565b506040820151816002019080519060200190610f67929190611227565b5060608201518160030155608082015181600401555050507f2eb21eb1ed0cdcaf8a3e0f64a11ebbc8927aac1477caf6ecf386fe4f201e78b4308260000151836020015184604001518560600151604051610fc69594939291906118e3565b60405180910390a150565b600073ffffffffffffffffffffffffffffffffffffffff168173ffffffffffffffffffffffffffffffffffffffff1614151515611043576040517f08c379a000000000000000000000000000000000000000000000000000000000815260040161103a906119d1565b60405180910390fd5b8073ffffffffffffffffffffffffffffffffffffffff166000809054906101000a900473ffffffffffffffffffffffffffffffffffffffff1673ffffffffffffffffffffffffffffffffffffffff167f8be0079c531659141344cd1fd0a4f28419497f9722a3daafe3b4186f6b6457e060405160405180910390a3806000806101000a81548173ffffffffffffffffffffffffffffffffffffffff021916908373ffffffffffffffffffffffffffffffffffffffff16021790555050565b60a06040519081016040528060608152602001606081526020016060815260200160008152602001600081525090565b828054600181600116156101000203166002900490600052602060002090601f016020900481019282601f1061117257805160ff19168380011785556111a0565b828001600101855582156111a0579182015b8281111561119f578251825591602001919060010190611184565b5b5090506111ad91906112a7565b5090565b60a06040519081016040528060608152602001606081526020016060815260200160008152602001600073ffffffffffffffffffffffffffffffffffffffff1681525090565b60a06040519081016040528060608152602001606081526020016060815260200160008152602001600081525090565b828054600181600116156101000203166002900490600052602060002090601f016020900481019282601f1061126857805160ff1916838001178555611296565b82800160010185558215611296579182015b8281111561129557825182559160200191906001019061127a565b5b5090506112a391906112a7565b5090565b6112c991905b808211156112c55760008160009055506001016112ad565b5090565b90565b60006112d88235611b1b565b905092915050565b600082601f83011215156112f357600080fd5b813561130661130182611a40565b611a13565b9150808252602083016020830185838301111561132257600080fd5b61132d838284611b3b565b50505092915050565b60006020828403121561134857600080fd5b6000611356848285016112cc565b91505092915050565b60008060006060848603121561137457600080fd5b600084013567ffffffffffffffff81111561138e57600080fd5b61139a868287016112e0565b935050602084013567ffffffffffffffff8111156113b757600080fd5b6113c3868287016112e0565b925050604084013567ffffffffffffffff8111156113e057600080fd5b6113ec868287016112e0565b9150509250925092565b6113ff81611af1565b82525050565b600061141082611a93565b8084526020840193508360208202850161142985611a6c565b60005b848110156114625783830388526114448383516116f9565b925061144f82611aca565b915060208801975060018101905061142c565b508196508694505050505092915050565b600061147e82611a9e565b8084526020840193508360208202850161149785611a79565b60005b848110156114d05783830388526114b283835161177d565b92506114bd82611ad7565b915060208801975060018101905061149a565b508196508694505050505092915050565b60006114ec82611aa9565b8084526020840193508360208202850161150585611a86565b60005b8481101561153e578383038852611520838351611801565b925061152b82611ae4565b9150602088019750600181019050611508565b508196508694505050505092915050565b600061155a82611abf565b80845261156e816020860160208601611b4a565b61157781611b7d565b602085010191505092915050565b600061159082611ab4565b8084526115a4816020860160208601611b4a565b6115ad81611b7d565b602085010191505092915050565b6000602382527f546865206d6573736167652073656e646572206973206e6f7420746865206f7760208301527f6e657200000000000000000000000000000000000000000000000000000000006040830152606082019050919050565b6000602f82527f546865206e6577206f776e65722063616e6e6f7420626520746865206465666160208301527f756c7420616464726573732030783000000000000000000000000000000000006040830152606082019050919050565b600060a08301600083015184820360008601526116928282611585565b915050602083015184820360208601526116ac8282611585565b915050604083015184820360408601526116c68282611585565b91505060608301516116db6060860182611851565b5060808301516116ee60808601826113f6565b508091505092915050565b600060a08301600083015184820360008601526117168282611585565b915050602083015184820360208601526117308282611585565b9150506040830151848203604086015261174a8282611585565b915050606083015161175f6060860182611851565b5060808301516117726080860182611851565b508091505092915050565b600060a083016000830151848203600086015261179a8282611585565b915050602083015184820360208601526117b48282611585565b915050604083015184820360408601526117ce8282611585565b91505060608301516117e36060860182611851565b5060808301516117f66080860182611851565b508091505092915050565b6000606083016000830151848203600086015261181e8282611585565b91505060208301516118336020860182611851565b5060408301516118466040860182611851565b508091505092915050565b61185a81611b11565b82525050565b600060208201905061187560008301846113f6565b92915050565b600060a08201905061189060008301886113f6565b81810360208301526118a2818761154f565b905081810360408301526118b6818661154f565b905081810360608301526118ca818561154f565b90506118d96080830184611851565b9695505050505050565b600060a0820190506118f860008301886113f6565b818103602083015261190a8187611585565b9050818103604083015261191e8186611585565b905081810360608301526119328185611585565b90506119416080830184611851565b9695505050505050565b600060208201905081810360008301526119658184611405565b905092915050565b600060208201905081810360008301526119878184611473565b905092915050565b600060208201905081810360008301526119a981846114e1565b905092915050565b600060208201905081810360008301526119ca816115bb565b9050919050565b600060208201905081810360008301526119ea81611618565b9050919050565b60006020820190508181036000830152611a0b8184611675565b905092915050565b6000604051905081810181811067ffffffffffffffff82111715611a3657600080fd5b8060405250919050565b600067ffffffffffffffff821115611a5757600080fd5b601f19601f8301169050602081019050919050565b6000602082019050919050565b6000602082019050919050565b6000602082019050919050565b600081519050919050565b600081519050919050565b600081519050919050565b600081519050919050565b600081519050919050565b6000602082019050919050565b6000602082019050919050565b6000602082019050919050565b600073ffffffffffffffffffffffffffffffffffffffff82169050919050565b6000819050919050565b600073ffffffffffffffffffffffffffffffffffffffff82169050919050565b82818337600083830152505050565b60005b83811015611b68578082015181840152602081019050611b4d565b83811115611b77576000848401525b50505050565b6000601f19601f83011690509190505600a265627a7a72305820a382a52abac7871359f20b551726e7bfb766681177ae547730832be92f432f006c6578706572696d656e74616cf50037",
  "source": "pragma solidity ^0.4.25;\r\npragma experimental ABIEncoderV2;\r\n\r\nimport \"./DeviceFactoryInterface.sol\";\r\nimport \"./Ownable.sol\";\r\n\r\n\r\n/**\r\n * @title Ereuse Device basic implementation\r\n */\r\n\r\ncontract DepositDevice is Ownable {\r\n    // parameters -----------------------------------------------------------\r\n    DeviceFactoryInterface factory;\r\n\r\n    // types ----------------------------------------------------------------\r\n    //Struct that mantains the basic values of the device\r\n    struct DevData {\r\n        string did;\r\n        string chid;\r\n        string registerID;\r\n        uint registerDate;\r\n        address owner;\r\n    }\r\n    struct RegisterProofData {\r\n        string chid;\r\n        uint timestamp;\r\n        uint blockNumber;\r\n    }\r\n\r\n    struct IssueProofData {\r\n        string did;\r\n        string registerID;\r\n        string documentSignature;\r\n        uint timestamp;\r\n        uint blockNumber;\r\n    }\r\n\r\n    // struct TransferProofData {\r\n    //     address from;\r\n    //     address to;\r\n    //     string from_registrant;\r\n    //     string to_registrant;\r\n    //     uint timestamp;\r\n    //     uint blockNumber;\r\n    // }\r\n\r\n    // struct RecycleProofData {\r\n    //     uint timestamp;\r\n    //     uint blockNumber;\r\n    // }\r\n\r\n    struct GenericProofData {\r\n        string registerID;\r\n        string documentSignature;\r\n        string documentType;\r\n        uint timestamp;\r\n        uint blockNumber;\r\n    }\r\n\r\n    // variables -------------------------------------------------------------\r\n    DevData data;\r\n    RegisterProofData[] registerProofs;\r\n    IssueProofData[] issueProofs;\r\n    //TransferProofData[] transferProofs;\r\n    //RecycleProofData[] recycleProofs;\r\n    GenericProofData[] genericProofs;\r\n\r\n    // events ----------------------------------------------------------------\r\n    event proofGenerated(bytes32 indexed proofHash);\r\n    event registerProof(address deviceAddress, string chid, uint timestamp);\r\n    event issueProof(address deviceAddress, string did, string documentSignature, string registerID, uint timestamp);\r\n    //event transferProof(address supplierAddress, address receiverAddress, address deviceAddress, uint timestamp);\r\n    //event recycleProof(address userAddress, address deviceAddress, uint timestamp); \r\n    event genericProof(address deviceAddress, string registerID, string documentSignature, string documentType, uint timestamp);   \r\n    //event DeviceTransferred(address deviceAddress, address new_owner, string new_registrant);\r\n    event DeviceRecycled(address deviceAddress);\r\n\r\n    constructor(\r\n        string _chid,\r\n        address _sender,\r\n        address _factory\r\n    ) public {\r\n        factory = DeviceFactoryInterface(_factory);\r\n        data.owner = _sender;\r\n        data.chid = _chid;\r\n        data.registerDate = block.timestamp;\r\n        _transferOwnership(_sender);\r\n\r\n        RegisterProofData memory proof_data;\r\n        proof_data.chid = _chid;\r\n        proof_data.timestamp = block.timestamp;\r\n        proof_data.blockNumber = block.number;\r\n        generateRegisterProof(proof_data);\r\n    }\r\n\r\n    function generateRegisterProof(RegisterProofData memory proof_data) internal {\r\n        registerProofs.push(proof_data);\r\n        emit registerProof(address(this), proof_data.chid, proof_data.timestamp);\r\n    }\r\n    \r\n    function generateIssueProof(IssueProofData memory proof_data) internal {\r\n        issueProofs.push(proof_data);\r\n        emit issueProof(address(this), proof_data.did, proof_data.registerID, proof_data.documentSignature, proof_data.timestamp);\r\n    }\r\n\r\n    function issueDID(string _did, string _registerID, string _documentSignature) public onlyOwner{\r\n        IssueProofData memory proof_data;\r\n        proof_data.did = _did;\r\n        proof_data.registerID = _registerID;\r\n        proof_data.documentSignature = _documentSignature;\r\n        proof_data.timestamp = block.timestamp;\r\n        proof_data.blockNumber = block.number;\r\n\r\n        data.did = _did;\r\n        data.registerID = _registerID;\r\n\r\n        generateIssueProof(proof_data);\r\n    }\r\n\r\n    function generateGenericProof(string _registerID, string _documentSignature, string _type) public onlyOwner{\r\n        GenericProofData memory proof_data;\r\n        proof_data.registerID = _registerID;\r\n        proof_data.documentSignature = _documentSignature;\r\n        proof_data.documentType = _type;\r\n        proof_data.timestamp = block.timestamp;\r\n        proof_data.blockNumber = block.number;\r\n\r\n        genericProofs.push(proof_data);\r\n        emit genericProof(address(this), _registerID, _documentSignature, _type, proof_data.timestamp);\r\n    }\r\n\r\n    function getData() public view returns (DevData _data) {\r\n        return data;\r\n    }\r\n\r\n    function getRegisterProoofs() public view returns (RegisterProofData[] _data) {\r\n        return registerProofs;\r\n    }\r\n\r\n    function getIssueProofs() public view returns (IssueProofData[] _data){\r\n        return issueProofs;\r\n    }\r\n\r\n    function getGenericProofs() public view returns (GenericProofData[] _data){\r\n        return genericProofs;\r\n    }\r\n\r\n\r\n    //  function getTrasferProofs() public view returns (TransferProofData[] _data){\r\n    //      return transferProofs;\r\n    //  }\r\n\r\n    //  function getRecycleProofs() public view returns (RecycleProofData[] _data){\r\n    //      return recycleProofs;\r\n    //  }\r\n\r\n\r\n\r\n\r\n\r\n\r\n    // function generateTransferProof(TransferProofData memory proof_data) internal {\r\n    //     transferProofs.push(proof_data);\r\n    //     emit transferProof(proof_data.from, proof_data.to, address(this), proof_data.timestamp);\r\n    // }\r\n\r\n    //API DONE\r\n    // function transferDevice(address _to, string _new_registrant)\r\n    //     public\r\n    //     onlyOwner\r\n    // {\r\n    //     TransferProofData memory proof_data;\r\n    //     proof_data.from = data.owner;\r\n    //     proof_data.to = _to;\r\n    //     proof_data.from_registrant = data.registrantData;\r\n    //     proof_data.to_registrant = _new_registrant;\r\n    //     proof_data.timestamp = block.timestamp;\r\n    //     proof_data.blockNumber = block.number;\r\n\r\n    //     factory.transfer(data.owner, _to);\r\n    //     data.owner = _to;\r\n    //     data.registrantData = _new_registrant;\r\n    //     if (owner != _to) transferOwnership(_to);\r\n\r\n    //     generateTransferProof(proof_data);\r\n\r\n    //     emit DeviceTransferred(address(this), data.owner, data.registrantData);\r\n    // }\r\n\r\n    // function generateRecycleProof(RecycleProofData memory proof_data) internal{\r\n    //     recycleProofs.push(proof_data);\r\n    //     emit recycleProof(data.owner, address(this), proof_data.timestamp);\r\n    // }\r\n\r\n    //API DONE\r\n    // function recycle() public onlyOwner{\r\n    //     factory.recycle(msg.sender);\r\n\r\n    //     RecycleProofData memory proof_data;\r\n    //     proof_data.timestamp = block.timestamp;\r\n    //     proof_data.blockNumber = block.number;\r\n\r\n    //     generateRecycleProof(proof_data);\r\n\r\n    //     emit DeviceRecycled(address(this));\r\n    // }\r\n\r\n\r\n\r\n}",
  "sourcePath": "C:\\Users\\marc\\Documents\\trublo_contracts_api\\contracts\\DepositDevice.sol",
  "compiler": {
    "name": "solc",
    "version": "0.4.26+commit.4563c3fc.Emscripten.clang"
  },
  "schemaVersion": "3.4.4",
  "updatedAt": "2022-01-02T17:20:51.215Z",
  "devdoc": {
    "methods": {
      "renounceOwnership()": {
        "details": "Allows the current owner to relinquish control of the contract.\r"
      },
      "transferOwnership(address)": {
        "details": "Allows the current owner to transfer control of the contract to a newOwner.\r",
        "params": {
          "_newOwner": "The address to transfer ownership to.\r"
        }
      }
    },
    "title": "Ereuse Device basic implementation\r"
  },
  "userdoc": {
    "methods": {
      "renounceOwnership()": {
        "notice": "Renouncing to ownership will leave the contract without an owner.\r It will not be possible to call the functions with the `onlyOwner`\r modifier anymore.\r"
      }
    }
  }
}