{
  "contractName": "DocumentProofs",
  "abi": [
    {
      "anonymous": false,
      "inputs": [
        {
          "indexed": false,
          "name": "_hash",
          "type": "string"
        },
        {
          "indexed": false,
          "name": "timestamp",
          "type": "uint256"
        }
      ],
      "name": "stampProof",
      "type": "event"
    },
    {
      "constant": false,
      "inputs": [
        {
          "name": "_hash",
          "type": "string"
        }
      ],
      "name": "stampDocument",
      "outputs": [],
      "payable": false,
      "stateMutability": "nonpayable",
      "type": "function"
    },
    {
      "constant": true,
      "inputs": [
        {
          "name": "_hash",
          "type": "string"
        }
      ],
      "name": "checkStamp",
      "outputs": [
        {
          "name": "b",
          "type": "bool"
        }
      ],
      "payable": false,
      "stateMutability": "view",
      "type": "function"
    }
  ],
  "bytecode": "0x608060405234801561001057600080fd5b50610384806100206000396000f30060806040526004361061004c576000357c0100000000000000000000000000000000000000000000000000000000900463ffffffff1680632ddfc84914610051578063fe957f16146100ba575b600080fd5b34801561005d57600080fd5b506100b8600480360381019080803590602001908201803590602001908080601f016020809104026020016040519081016040528093929190818152602001838380828437820191505050505050919291929050505061013b565b005b3480156100c657600080fd5b50610121600480360381019080803590602001908201803590602001908080601f01602080910402602001604051908101604052809392919081815260200183838082843782019150505050505091929192905050506102a3565b604051808215151515815260200191505060405180910390f35b61014361033c565b428160000181815250506001816020019015159081151581525050806000836040518082805190602001908083835b6020831015156101975780518252602082019150602081019050602083039250610172565b6001836020036101000a03801982511681845116808217855250505050505090500191505090815260200160405180910390206000820151816000015560208201518160010160006101000a81548160ff0219169083151502179055509050507f392469bea5b175ca504dc04c18096ab8e3fd5231cebf813f256079d94c2610be8282600001516040518080602001838152602001828103825284818151815260200191508051906020019080838360005b83811015610264578082015181840152602081019050610249565b50505050905090810190601f1680156102915780820380516001836020036101000a031916815260200191505b50935050505060405180910390a15050565b6000600115156000836040518082805190602001908083835b6020831015156102e157805182526020820191506020810190506020830392506102bc565b6001836020036101000a038019825116818451168082178552505050505050905001915050908152602001604051809103902060010160009054906101000a900460ff16151514156103365760019050610337565b5b919050565b60408051908101604052806000815260200160001515815250905600a165627a7a723058205b666d4f6a2ab684d15141e67b1aeacc397658c36845c9abbff882a1d81533fb0029",
  "source": "pragma solidity ^0.4.25;\r\n\r\n//import \"project:/contracts/DocumentProofsInterface.sol\";\r\nimport \"./DocumentProofsInterface.sol\";\r\n\r\n\r\ncontract DocumentProofs {\r\n    struct StampData{\r\n        uint256 timestamp;\r\n        bool stamp;\r\n    }\r\n    mapping(string => StampData) documents;\r\n\r\n    event stampProof(string _hash, uint256 timestamp);\r\n    //API DONE\r\n    function stampDocument(string _hash) public{\r\n        StampData memory stamp_data;\r\n        stamp_data.timestamp = block.timestamp;\r\n        stamp_data.stamp = true;\r\n        documents[_hash] = stamp_data;\r\n        emit stampProof(_hash, stamp_data.timestamp);\r\n    }\r\n    //API DONE\r\n    function checkStamp(string _hash) public view returns(bool b){\r\n        if(documents[_hash].stamp == true) return true;\r\n    }\r\n}",
  "sourcePath": "C:\\Users\\marc\\Documents\\trublo_contracts_api\\contracts\\DocumentProofs.sol",
  "compiler": {
    "name": "solc",
    "version": "0.4.26+commit.4563c3fc.Emscripten.clang"
  },
  "schemaVersion": "3.4.4",
  "updatedAt": "2022-01-02T17:20:56.415Z",
  "networkType": "ethereum",
  "devdoc": {
    "methods": {}
  },
  "userdoc": {
    "methods": {}
  }
}