{
  "contractName": "DepositDevice",
  "abi": [
    {
      "inputs": [
        {
          "internalType": "string",
          "name": "_chid",
          "type": "string"
        },
        {
          "internalType": "address",
          "name": "_sender",
          "type": "address"
        },
        {
          "internalType": "address",
          "name": "_factory",
          "type": "address"
        },
        {
          "internalType": "address",
          "name": "_roles",
          "type": "address"
        },
        {
          "internalType": "string",
          "name": "_documentHashAlgorithm",
          "type": "string"
        },
        {
          "internalType": "string",
          "name": "_documentHash",
          "type": "string"
        },
        {
          "internalType": "string",
          "name": "_inventoryID",
          "type": "string"
        },
        {
          "internalType": "address",
          "name": "_tokenContract",
          "type": "address"
        }
      ],
      "stateMutability": "nonpayable",
      "type": "constructor"
    },
    {
      "anonymous": false,
      "inputs": [
        {
          "indexed": false,
          "internalType": "address",
          "name": "deviceAddress",
          "type": "address"
        }
      ],
      "name": "DeviceRecycled",
      "type": "event"
    },
    {
      "anonymous": false,
      "inputs": [
        {
          "indexed": true,
          "internalType": "address",
          "name": "previousOwner",
          "type": "address"
        }
      ],
      "name": "OwnershipRenounced",
      "type": "event"
    },
    {
      "anonymous": false,
      "inputs": [
        {
          "indexed": true,
          "internalType": "address",
          "name": "previousOwner",
          "type": "address"
        },
        {
          "indexed": true,
          "internalType": "address",
          "name": "newOwner",
          "type": "address"
        }
      ],
      "name": "OwnershipTransferred",
      "type": "event"
    },
    {
      "anonymous": false,
      "inputs": [
        {
          "indexed": false,
          "internalType": "address",
          "name": "deviceAddress",
          "type": "address"
        },
        {
          "indexed": false,
          "internalType": "string",
          "name": "chid",
          "type": "string"
        },
        {
          "indexed": false,
          "internalType": "uint256",
          "name": "timestamp",
          "type": "uint256"
        }
      ],
      "name": "deRegisterProof",
      "type": "event"
    },
    {
      "anonymous": false,
      "inputs": [
        {
          "indexed": false,
          "internalType": "address",
          "name": "verifierAddress",
          "type": "address"
        },
        {
          "indexed": false,
          "internalType": "address",
          "name": "receiverAddress",
          "type": "address"
        }
      ],
      "name": "fundsReleased",
      "type": "event"
    },
    {
      "anonymous": false,
      "inputs": [
        {
          "indexed": false,
          "internalType": "address",
          "name": "deviceAddress",
          "type": "address"
        },
        {
          "indexed": false,
          "internalType": "string",
          "name": "chid",
          "type": "string"
        },
        {
          "indexed": false,
          "internalType": "string",
          "name": "phid",
          "type": "string"
        },
        {
          "indexed": false,
          "internalType": "address",
          "name": "issuerID",
          "type": "address"
        },
        {
          "indexed": false,
          "internalType": "string",
          "name": "documentHashAlgorithm",
          "type": "string"
        },
        {
          "indexed": false,
          "internalType": "string",
          "name": "documentHash",
          "type": "string"
        },
        {
          "indexed": false,
          "internalType": "string",
          "name": "documentType",
          "type": "string"
        },
        {
          "indexed": false,
          "internalType": "uint256",
          "name": "timestamp",
          "type": "uint256"
        },
        {
          "indexed": false,
          "internalType": "string",
          "name": "inventoryID",
          "type": "string"
        }
      ],
      "name": "genericProof",
      "type": "event"
    },
    {
      "anonymous": false,
      "inputs": [
        {
          "indexed": true,
          "internalType": "bytes32",
          "name": "proofHash",
          "type": "bytes32"
        }
      ],
      "name": "proofGenerated",
      "type": "event"
    },
    {
      "anonymous": false,
      "inputs": [
        {
          "indexed": false,
          "internalType": "address",
          "name": "supplierAddress",
          "type": "address"
        },
        {
          "indexed": false,
          "internalType": "address",
          "name": "receiverAddress",
          "type": "address"
        },
        {
          "indexed": false,
          "internalType": "address",
          "name": "deviceAddress",
          "type": "address"
        },
        {
          "indexed": false,
          "internalType": "uint256",
          "name": "timestamp",
          "type": "uint256"
        }
      ],
      "name": "transferProof",
      "type": "event"
    },
    {
      "inputs": [],
      "name": "owner",
      "outputs": [
        {
          "internalType": "address",
          "name": "",
          "type": "address"
        }
      ],
      "stateMutability": "view",
      "type": "function"
    },
    {
      "inputs": [],
      "name": "renounceOwnership",
      "outputs": [],
      "stateMutability": "nonpayable",
      "type": "function"
    },
    {
      "inputs": [
        {
          "internalType": "address",
          "name": "_newOwner",
          "type": "address"
        }
      ],
      "name": "transferOwnership",
      "outputs": [],
      "stateMutability": "nonpayable",
      "type": "function"
    },
    {
      "inputs": [
        {
          "internalType": "string",
          "name": "_phid",
          "type": "string"
        },
        {
          "internalType": "string",
          "name": "_documentHashAlgorithm",
          "type": "string"
        },
        {
          "internalType": "string",
          "name": "_documentHash",
          "type": "string"
        },
        {
          "internalType": "string",
          "name": "_inventoryID",
          "type": "string"
        }
      ],
      "name": "issuePassport",
      "outputs": [],
      "stateMutability": "nonpayable",
      "type": "function"
    },
    {
      "inputs": [
        {
          "internalType": "string",
          "name": "_documentHashAlgorithm",
          "type": "string"
        },
        {
          "internalType": "string",
          "name": "_documentHash",
          "type": "string"
        },
        {
          "internalType": "string",
          "name": "_documentType",
          "type": "string"
        },
        {
          "internalType": "string",
          "name": "_inventoryID",
          "type": "string"
        }
      ],
      "name": "generateGenericProof",
      "outputs": [],
      "stateMutability": "nonpayable",
      "type": "function"
    },
    {
      "inputs": [
        {
          "internalType": "address",
          "name": "_recycler",
          "type": "address"
        }
      ],
      "name": "releaseFunds",
      "outputs": [],
      "stateMutability": "nonpayable",
      "type": "function"
    },
    {
      "inputs": [
        {
          "internalType": "string",
          "name": "_deviceCHID",
          "type": "string"
        }
      ],
      "name": "deRegisterDevice",
      "outputs": [],
      "stateMutability": "nonpayable",
      "type": "function"
    },
    {
      "inputs": [],
      "name": "getData",
      "outputs": [
        {
          "components": [
            {
              "internalType": "string",
              "name": "chid",
              "type": "string"
            },
            {
              "internalType": "string",
              "name": "phid",
              "type": "string"
            },
            {
              "internalType": "uint256",
              "name": "registerDate",
              "type": "uint256"
            },
            {
              "internalType": "address",
              "name": "owner",
              "type": "address"
            },
            {
              "internalType": "bool",
              "name": "deregistered",
              "type": "bool"
            }
          ],
          "internalType": "struct DepositDevice.DevData",
          "name": "_data",
          "type": "tuple"
        }
      ],
      "stateMutability": "view",
      "type": "function"
    },
    {
      "inputs": [],
      "name": "getDPPs",
      "outputs": [
        {
          "internalType": "string[]",
          "name": "_data",
          "type": "string[]"
        }
      ],
      "stateMutability": "view",
      "type": "function"
    },
    {
      "inputs": [],
      "name": "getGenericProofs",
      "outputs": [
        {
          "components": [
            {
              "internalType": "string",
              "name": "chid",
              "type": "string"
            },
            {
              "internalType": "string",
              "name": "phid",
              "type": "string"
            },
            {
              "internalType": "address",
              "name": "issuerID",
              "type": "address"
            },
            {
              "internalType": "string",
              "name": "inventoryID",
              "type": "string"
            },
            {
              "internalType": "string",
              "name": "documentHashAlgorithm",
              "type": "string"
            },
            {
              "internalType": "string",
              "name": "documentHash",
              "type": "string"
            },
            {
              "internalType": "string",
              "name": "documentType",
              "type": "string"
            },
            {
              "internalType": "uint256",
              "name": "timestamp",
              "type": "uint256"
            },
            {
              "internalType": "uint256",
              "name": "blockNumber",
              "type": "uint256"
            }
          ],
          "internalType": "struct DepositDevice.GenericProofData[]",
          "name": "_data",
          "type": "tuple[]"
        }
      ],
      "stateMutability": "view",
      "type": "function"
    },
    {
      "inputs": [],
      "name": "getDeRegisterProofs",
      "outputs": [
        {
          "components": [
            {
              "internalType": "string",
              "name": "chid",
              "type": "string"
            },
            {
              "internalType": "uint256",
              "name": "timestamp",
              "type": "uint256"
            },
            {
              "internalType": "uint256",
              "name": "blockNumber",
              "type": "uint256"
            }
          ],
          "internalType": "struct DepositDevice.DeRegisterProofData[]",
          "name": "_data",
          "type": "tuple[]"
        }
      ],
      "stateMutability": "view",
      "type": "function"
    },
    {
      "inputs": [],
      "name": "getTrasferProofs",
      "outputs": [
        {
          "components": [
            {
              "internalType": "address",
              "name": "from",
              "type": "address"
            },
            {
              "internalType": "address",
              "name": "to",
              "type": "address"
            },
            {
              "internalType": "uint256",
              "name": "timestamp",
              "type": "uint256"
            },
            {
              "internalType": "uint256",
              "name": "blockNumber",
              "type": "uint256"
            }
          ],
          "internalType": "struct DepositDevice.TransferProofData[]",
          "name": "_data",
          "type": "tuple[]"
        }
      ],
      "stateMutability": "view",
      "type": "function"
    },
    {
      "inputs": [
        {
          "internalType": "address",
          "name": "_to",
          "type": "address"
        }
      ],
      "name": "transferDevice",
      "outputs": [],
      "stateMutability": "nonpayable",
      "type": "function"
    },
    {
      "inputs": [
        {
          "internalType": "string",
          "name": "endpoint",
          "type": "string"
        },
        {
          "internalType": "string",
          "name": "type_",
          "type": "string"
        },
        {
          "internalType": "string",
          "name": "description",
          "type": "string"
        },
        {
          "internalType": "string",
          "name": "fragment",
          "type": "string"
        }
      ],
      "name": "addService",
      "outputs": [],
      "stateMutability": "nonpayable",
      "type": "function"
    },
    {
      "inputs": [
        {
          "internalType": "string",
          "name": "fragment",
          "type": "string"
        }
      ],
      "name": "removeService",
      "outputs": [],
      "stateMutability": "nonpayable",
      "type": "function"
    },
    {
      "inputs": [],
      "name": "getDidData",
      "outputs": [
        {
          "components": [
            {
              "internalType": "address",
              "name": "contractAddress",
              "type": "address"
            },
            {
              "internalType": "address",
              "name": "controller",
              "type": "address"
            },
            {
              "internalType": "string",
              "name": "chid",
              "type": "string"
            },
            {
              "components": [
                {
                  "internalType": "string",
                  "name": "endpoint",
                  "type": "string"
                },
                {
                  "internalType": "string",
                  "name": "type_",
                  "type": "string"
                },
                {
                  "internalType": "string",
                  "name": "description",
                  "type": "string"
                },
                {
                  "internalType": "string",
                  "name": "fragment",
                  "type": "string"
                }
              ],
              "internalType": "struct DepositDevice.Service[]",
              "name": "services",
              "type": "tuple[]"
            },
            {
              "internalType": "uint256",
              "name": "chainid",
              "type": "uint256"
            }
          ],
          "internalType": "struct DepositDevice.DidData",
          "name": "_didData",
          "type": "tuple"
        }
      ],
      "stateMutability": "view",
      "type": "function"
    }
  ],
  "bytecode": "0x60808060405234610e50576146af803803809161001c8285610e55565b833981019061010081830312610e505780516001600160401b038111610e505782610048918301610e9b565b61005460208301610eef565b9261006160408401610eef565b9161006e60608501610eef565b60808501519093906001600160401b038111610e505783610090918701610e9b565b60a08601519094906001600160401b038111610e5057846100b2918801610e9b565b60c087015190946001600160401b038211610e50576100d860e0916100df938a01610e9b565b9701610eef565b600080546001600160a01b031990811633179091556001805482166001600160a01b039586161790556002805482169385169390931790925560038054909216908316179055600780546001600160a81b0319169187169190911790558051906001600160401b0382116107f657819061015a600454610f03565b601f8111610df5575b50602090601f8311600114610d7d57600092610d72575b50508160011b916000199060031b1c1916176004555b426006556001600160a01b03841615610d155760008054906001600160a01b0386811691908316907f8be0079c531659141344cd1fd0a4f28419497f9722a3daafe3b4186f6b6457e09080a36001600160a01b0319166001600160a01b038516176000556040805192906001600160401b03908401908111908411176107f65760408381018152600f84526e2232bb34b1b2afb1b932b0ba34b7b760891b602085015251946001600160401b036101208701908111908711176107f657610120860160405260608652606060208701526000604087015260608087015260606080870152606060a0870152606060c0870152600060e08701526000610100870152604051600081600454916102a483610f03565b8083529260018116908115610cf65750600114610ca8575b6102c892500382610e55565b86526040516005548160006102dc83610f03565b8083529260018116908115610c895750600114610c29575b61030092500382610e55565b60208701526001600160a01b03166040860152608085015260a084015260c08301524260e0830152436101008301526060820152600b54680100000000000000008110156107f6576001810180600b55811015610c1357600b6000528151805190927f0175b7a638427703f0dbe7bb9bbf987a2551717b34e79f33b5b1008d1fa01db992916001600160401b0381116107f6576103a260098402850154610f03565b601f8111610bca575b506020601f8211600114610b57578192939495600092610b4c575b50508160011b916000199060031b1c191617600983028401555b602081015180519093906001600160401b0381116107f65761040a60016009860284010154610f03565b601f8111610b00575b506020601f8211600114610a87578192939495600092610a7c575b50508160011b916000199060031b1c191617600160098502830101555b604082015160098402820160020180546001600160a01b0319166001600160a01b0392909216919091179055606082015180519093906001600160401b0381116107f6576104a160036009840285010154610f03565b601f8111610a30575b506020601f82116001146109b75781929394956000926109ac575b50508160011b916000199060031b1c191617600360098302840101555b608083015180519093906001600160401b0381116107f65761050c60046009850286010154610f03565b601f8111610960575b506020601f82116001146108e75781929394956000926108dc575b50508160011b916000199060031b1c191617600460098402850101555b60a081015180519093906001600160401b0381116107f65761057760056009860284010154610f03565b601f8111610890575b506020601f821160011461081757819293949560009261080c575b50508160011b916000199060031b1c191617600560098502830101555b60c082015180519093906001600160401b0381116107f6576105e260066009840285010154610f03565b601f81116107aa575b506020601f821160011461071a57918161012094926106fd9460008051602061466f8339815191529860009261070f575b50508160011b916000199060031b1c191617600660098302840101555b600860e0860151928360076009850283010155600961010088015193020101558351936106e96020820151916106db60018060a01b036040830151166106cd60808401519160a0850151926106ba606060c0880151970151986106ac6040519e8f9e8f3081528160208201520190610f3d565b8d810360408f015290610f3d565b9160608c01528a820360808c0152610f3d565b9088820360a08a0152610f3d565b9086820360c0880152610f3d565b9160e0850152838203610100850152610f3d565b0390a160405161370c9081610f638239f35b01519050388061061c565b60066009840285010160005260206000209560005b601f198416811061079257508260008051602061466f833981519152976106fd95936001936101209896601f19811610610779575b505050811b0160066009830284010155610639565b015160001960f88460031b161c19169055388080610764565b8282015188556001909701966020928301920161072f565b6006600984028501016000526020600020601f830160051c8101602084106107ef575b601f830160051c820181106107e35750506105eb565b600081556001016107cd565b50806107cd565b634e487b7160e01b600052604160045260246000fd5b01519050388061059b565b60056009860284010160005260206000209060005b601f1984168110610878575060019394959683601f1981161061085f575b505050811b01600560098502830101556105b8565b015160001960f88460031b161c1916905538808061084a565b9091602060018192858b01518155019301910161082c565b6005600986028401016000526020600020601f830160051c8101602084106108d5575b601f830160051c820181106108c9575050610580565b600081556001016108b3565b50806108b3565b015190503880610530565b60046009850286010160005260206000209060005b601f1984168110610948575060019394959683601f1981161061092f575b505050811b016004600984028501015561054d565b015160001960f88460031b161c1916905538808061091a565b9091602060018192858b0151815501930191016108fc565b6004600985028601016000526020600020601f830160051c8101602084106109a5575b601f830160051c82018110610999575050610515565b60008155600101610983565b5080610983565b0151905038806104c5565b60036009840285010160005260206000209060005b601f1984168110610a18575060019394959683601f198116106109ff575b505050811b01600360098302840101556104e2565b015160001960f88460031b161c191690553880806109ea565b9091602060018192858b0151815501930191016109cc565b6003600984028501016000526020600020601f830160051c810160208410610a75575b601f830160051c82018110610a695750506104aa565b60008155600101610a53565b5080610a53565b01519050388061042e565b60016009860284010160005260206000209060005b601f1984168110610ae8575060019394959683601f19811610610acf575b505050811b016001600985028301015561044b565b015160001960f88460031b161c19169055388080610aba565b9091602060018192858b015181550193019101610a9c565b6001600986028401016000526020600020601f830160051c810160208410610b45575b601f830160051c82018110610b39575050610413565b60008155600101610b23565b5080610b23565b0151905038806103c6565b60098402850160005260206000209060005b601f1984168110610bb2575060019394959683601f19811610610b99575b505050811b01600983028401556103e0565b015160001960f88460031b161c19169055388080610b87565b9091602060018192858b015181550193019101610b69565b6009840285016000526020600020601f830160051c810160208410610c0c575b601f830160051c82018110610c005750506103ab565b60008155600101610bea565b5080610bea565b634e487b7160e01b600052603260045260246000fd5b506005600090815290917f036b6384b5eca791c62761152d0c79bb0604c104a5fb6f4eb0703f3154bb3db05b818310610c6d575050906020610300928201016102f4565b6020919350806001915483858801015201910190918392610c55565b6020925061030094915060ff191682840152151560051b8201016102f4565b5060046000908152909160008051602061468f8339815191525b818310610cda5750509060206102c8928201016102bc565b6020919350806001915483858801015201910190918392610cc2565b602092506102c894915060ff191682840152151560051b8201016102bc565b60405162461bcd60e51b815260206004820152602f60248201527f546865206e6577206f776e65722063616e6e6f7420626520746865206465666160448201526e0756c7420616464726573732030783608c1b6064820152608490fd5b01519050388061017a565b60046000908152935060008051602061468f83398151915291905b601f1984168510610dda576001945083601f19811610610dc1575b505050811b01600455610190565b015160001960f88460031b161c19169055388080610db3565b81810151835560209485019460019093019290910190610d98565b600460005290915060008051602061468f833981519152601f840160051c810160208510610e49575b90849392915b601f830160051c82018110610e3a575050610163565b60008155859450600101610e24565b5080610e1e565b600080fd5b601f909101601f19168101906001600160401b038211908210176107f657604052565b60005b838110610e8b5750506000910152565b8181015183820152602001610e7b565b81601f82011215610e505780516001600160401b0381116107f65760405192610ece601f8301601f191660200185610e55565b81845260208284010111610e5057610eec9160208085019101610e78565b90565b51906001600160a01b0382168203610e5057565b90600182811c92168015610f33575b6020831014610f1d57565b634e487b7160e01b600052602260045260246000fd5b91607f1691610f12565b90602091610f5681518092818552858086019101610e78565b601f01601f191601019056fe60406080815260048036101561001457600080fd5b60009160e0833560e01c9081630434a8a3146122db578163044b38271461206757816305e3460d14611d73578163192e7a7b14611b615781631f2852d6146118325781633bc5de30146116075781635c06983b146113b0578163619cb027146111b4578163715018a6146111595781638da5cb5b14611131578163b1e1507814610d26578163ceca0cce14610c41578163e2351daf146108f657508063e81ee74014610491578063f2fde38b146103bc5763f51acaea146100d457600080fd5b346103b857602090816003193601126103b45782356001600160401b0381116103b0576101049036908501612457565b9260018060a01b0381818854163314918215610337575b505061012690612a78565b600c91600c549461014e83865183819483830196873781018b8382015203808452018261265a565b51902093865b81811061015f578780f35b61016881612b63565b50600380910190878751868101908c855495610183876127de565b90600197848c8a83169283600014610319575050506001146102de575b5050816101b59103601f19810183528261265a565b519020146101c7575050600101610154565b9798979096509394506000199250908281019081116102cb576101ec6101f391612b63565b5091612b63565b6102b9578382820361027c575b5050508254801561026957019261021684612b63565b9190916102575761024b93949596506102399061023283612c90565b8201612c90565b61024560028201612c90565b01612c90565b55388080808080808780f35b634e487b7160e01b8652858752602486fd5b634e487b7160e01b865260318752602486fd5b808361028b6102b19585612bb3565b6102998982018a8601612bb3565b6102a96002808301908601612bb3565b019101612bb3565b388083610200565b634e487b7160e01b8752868852602487fd5b634e487b7160e01b875260118852602487fd5b8f908b93508152878382205b83831061030057505050820101816101b56101a0565b80548684018601528f97508c94909201918991016102ea565b9194925092506101b5945060ff1916865280151502820101916101a0565b600254865163231053a760e11b8152338a820152935083916024918391165afa9081156103a657610126916001918991610379575b501515149050813861011b565b6103999150843d861161039f575b610391818361265a565b81019061267b565b3861036c565b503d610387565b84513d89823e3d90fd5b8480fd5b8380fd5b8280fd5b5090346103b85760203660031901126103b8576001600160a01b038135818116939192908490036103b0578454928316916103f8833314612a20565b841561043657505082907f8be0079c531659141344cd1fd0a4f28419497f9722a3daafe3b4186f6b6457e08580a36001600160a01b03191617815580f35b906020608492519162461bcd60e51b8352820152602f60248201527f546865206e6577206f776e65722063616e6e6f7420626520746865206465666160448201526e0756c7420616464726573732030783608c1b6064820152fd5b5090346103b8576104a136612489565b9160018060a09b999796989b9593951b03808c54163314801561088d575b6104c99150612a78565b8751946104d5866125d2565b606086526020978887019960608b5287019760608952606088019c60608e5236906104ff92612705565b8752369061050c92612705565b8852369061051992612705565b8452369061052692612705565b8652600c5491600160401b83101561087a57610549600193848101600c55612b63565b92909261086857519485516001600160401b03968782116107f6576105788261057287546127de565b87612b1e565b8690601f8311600114610809576105a792918c91836106a0575b50508160011b916000199060031b1c19161790565b83555b518051838501918782116107f6576105cc826105c685546127de565b85612b1e565b8690601f8311600114610797576105fa92918c91836106a05750508160011b916000199060031b1c19161790565b90555b51805160028301918682116107845761061a826105c685546127de565b8590601f831160011461072057918061064d9260039695948d926106a05750508160011b916000199060031b1c19161790565b90555b01945193845193841161070d575061066c8361057287546127de565b81601f84116001146106ab575050819061069b9386926106a05750508160011b916000199060031b1c19161790565b905580f35b015190503880610592565b91909383601f1981168789528489209489905b888383106106f357505050106106da575b505050811b01905580f35b015160001960f88460031b161c191690553880806106cf565b8587015188559096019594850194879350908101906106be565b634e487b7160e01b875260419052602486fd5b9392918591601f19821690848d52888d20918d5b8a82821061076e575050968360039810610756575b505050811b019055610650565b015160001983881b60f8161c19169055388080610749565b838a015185558a96909401939283019201610734565b634e487b7160e01b8a526041885260248afd5b838c52878c208793929091601f1984168e5b8b8282106107e057505084116107c7575b505050811b0190556105fd565b015160001960f88460031b161c191690553880806107ba565b8385015186558b979095019493840193016107a9565b634e487b7160e01b8b526041895260248bfd5b858c52878c208793929091601f1984168e5b8b8282106108525750508411610839575b505050811b0183556105aa565b015160001960f88460031b161c1916905538808061082c565b8385015186558b9790950194938401930161081b565b634e487b7160e01b8952888752602489fd5b634e487b7160e01b885260418652602488fd5b506002541660208a60248b518094819363231053a760e11b835233908301525afa908c82156108eb576104c992600192906108cc575b501515146104bf565b6108e5915060203d60201161039f57610391818361265a565b386108c3565b8a51903d90823e3d90fd5b84939150346103b457836003193601126103b45783546001600160a01b039490851633148015610be6575b8015610b8b575b8015610b21575b61093c909491929461274b565b600b54610948816127c7565b916109558151938461265a565b8183526020918284018096600b87526000805160206136978339815191529087925b8b858510610a7757505050505050805195828701938388525180945281870191808560051b8901019695985b858a106109b05788880389f35b909192939495968580600192603f198c82030188528a5190610a51610a3e610a2b610a186109fb6109eb610120885190808952880190612509565b888801518782038a890152612509565b8a8c880151168c8701526060808801519087830390880152612509565b6080808701519086830390870152612509565b60a0808601519085830390860152612509565b60c0808501519084830390850152612509565b9188810151898301526101008091015191015299019501990198929190959493956109a3565b87600192600992899e99809d9b9c9d5191610a9183612608565b610a9a8961297d565b8352610aa7878a0161297d565b8584015260028901541690820152610ac16003880161297d565b6060820152610ad186880161297d565b6080820152610ae26005880161297d565b60a0820152610af36006880161297d565b60c082015260078701548a820152600887015461010082015281520193019301929199949997969597610977565b50602460208660025416865192838092633a1a0c8560e21b825233898301525afa908115610b815761093c916001918491610b62575b50151514905061092f565b610b7b915060203d60201161039f57610391818361265a565b88610b57565b85513d84823e3d90fd5b50602460208660025416865192838092634d70fded60e01b825233898301525afa908115610b8157906001918391610bc7575b50151514610928565b610be0915060203d60201161039f57610391818361265a565b87610bbe565b5060246020866002541686519283809263231053a760e11b825233898301525afa908115610b8157906001918391610c22575b50151514610921565b610c3b915060203d60201161039f57610391818361265a565b87610c19565b828534610d235780600319360112610d2357600954610c5f816127c7565b91610c6c8451938461265a565b8183526009815260209283810192827f6e1540171b6c0c960b71a7020d9f60077f6af931a8bbf590da0223dacf75c7af855b838310610cff57505050508451938085019181865251809252858501958260051b8601019392955b828710610cd35785850386f35b909192938280610cef600193603f198a82030186528851612509565b9601920196019592919092610cc6565b6001888192610d11859b98999b61297d565b81520192019201919096949396610c9e565b80fd5b8285853461112d57610d3736612489565b96610d5460ff60079c989c9a93979596949a5460a01c1615612549565b89546001600160a01b03908116331480156110c8575b8015611060575b610d7b9150612693565b60095491600160401b83101561104d576001928381018060095581101561103a5760098c527f6e1540171b6c0c960b71a7020d9f60077f6af931a8bbf590da0223dacf75c7af01906001600160401b038d1161102557509081610de98d610de38195546127de565b83612b1e565b6000601f84119d8e600114610fbc5780610e1992600091610fb1575b508160011b916000199060031b1c19161790565b90555b600592610e2984546127de565b601f8111610f5a575b5060009c600114610ec6575092610e7d92610e7383610e859794610eb89e9f610eb19b9a98600092610ebb5750508160011b916000199060031b1c19161790565b90555b3691612705565b963691612705565b925193610e918561263f565b600c85526b2228282fb1b932b0ba34b7b760a11b60208601523691612705565b9233612cd9565b80f35b013590503880610592565b91909b601f198216908481527f036b6384b5eca791c62761152d0c79bb0604c104a5fb6f4eb0703f3154bb3db091815b818110610f44575092610e7d9592610eb89e9f610e8599969383610eb19d9c9a9710610f2a575b505050811b019055610e76565b0135600019600384901b60f8161c191690558f8080610f1d565b8f83013584559285019260209283019201610ef6565b610fa190856000527f036b6384b5eca791c62761152d0c79bb0604c104a5fb6f4eb0703f3154bb3db0601f8601871c81019160208710610fa7575b601f01871c0190612b07565b8d610e32565b9091508190610f95565b905084013538610e05565b50601f1984169082815284602092602083209383905b8983831061100b5750505010610ff1575b50508383811b019055610e1c565b830135600019600386901b60f8161c191690558d80610fe3565b888601358755909501949384019388935090810190610fd2565b604190634e487b7160e01b6000525260246000fd5b634e487b7160e01b8c526032825260248cfd5b634e487b7160e01b8b526041905260248afd5b50602060249160025416895192838092634d70fded60e01b825233888301525afa9081156110be57610d7b916001918d9161109f575b50151514610d71565b6110b8915060203d60201161039f57610391818361265a565b8e611096565b88513d8d823e3d90fd5b506024602082600254168a519283809263231053a760e11b825233898301525afa90811561112357906001918d91611104575b50151514610d6a565b61111d915060203d60201161039f57610391818361265a565b8e6110fb565b89513d8e823e3d90fd5b5080fd5b84833461112d578160031936011261112d57905490516001600160a01b039091168152602090f35b8434610d235780600319360112610d235780546001600160a01b038116611181338214612a20565b7ff8df31144d9c2f0f6b59d69b8b98abd5459d07f2742c4df920b25aae33c648208380a26001600160a01b031916815580f35b50508234610d235780600319360112610d2357906111d0612adb565b506111d9612adb565b9130835260018060a01b0391826007541694602090818601968752606080870191600c54611206816127c7565b916112138751938461265a565b818352600c8852877fdf6966c971051c3d54ec59162606531493a51404a002842f56009d7e5cf4a8c78785015b848310611347575050505050825261128e84880161125c612818565b815260809760808a019a468c528188519b888d525116878c01525116868a01525160a060608a015260c0890190612509565b915195601f1991828985030160808a01528751958685528585019386808960051b8801019a0198955b8887106112cb578c5160a08d01528b8b038cf35b90919293949596979899888061133388848f6113236113136113038f938e948d8d60019d030190525195865190808752860190612509565b8786015185820389870152612509565b8b8501518482038d860152612509565b920151908a818403910152612509565b9c01970197019598979694939291906112b7565b83896001928c8a9f9a819f9c9d9e5191611360836125d2565b6113698861297d565b835261137687890161297d565b858401526113866002890161297d565b908301526113966003880161297d565b908201528152019201920191909a959a9998979699611240565b8285853461112d578160031936011261112d5781546001600160a01b0392908316331480156115ac575b8015611551575b80156114f1575b6113f19061274b565b600a546113fd816127c7565b9061140a8651928361265a565b8082526020908183019485600a86527fc65a7bb8d6351c1cf70c95a316cc6a92839c986682d98bc35f958f4883f9d2a886915b898b8685106114a75795505050505050519481860192828752518093528686019493905b83821061146e5786860387f35b84518051821687528084015182168785015288810151898801526060908101519087015260809095019493820193600190910190611461565b96600192869289839b9c9a51916114bd836125d2565b808854168352868801541684830152600287015490820152600386015460608201528152019201920191909695949661143d565b50602460208460025416865192838092633a1a0c8560e21b825233888301525afa908115610b81576113f1916001918491611532575b5015151490506113e8565b61154b915060203d60201161039f57610391818361265a565b87611527565b50602460208460025416865192838092634d70fded60e01b825233888301525afa908115610b815790600191839161158d575b501515146113e1565b6115a6915060203d60201161039f57610391818361265a565b86611584565b5060246020846002541686519283809263231053a760e11b825233888301525afa908115610b81579060019183916115e8575b501515146113da565b611601915060203d60201161039f57610391818361265a565b866115df565b8385843461112d578160031936011261112d57805190611626826125ed565b606082528260806020936060858201528284820152826060820152015260018060a01b03928381541633149485156117d8575b8515611774575b8515611709575b505061167460a09461274b565b805192611680846125ed565b611688612818565b84526116926128de565b928085019384526116ef60065494848701958652600754946116dc6060890194868816865260ff60808b01988c1c161515885282519a8b9a828c5251918b015260c08a0190612509565b915190601f198984030190890152612509565b935160608601525116608084015251151560a08301520390f35b909450828460025416916024845180948193633a1a0c8560e21b835233908301525afa90811561176a576116749160019160a0979161174d575b5015151494611667565b6117649150853d871161039f57610391818361265a565b87611743565b82513d87823e3d90fd5b94506024838560025416845192838092634d70fded60e01b8252338b8301525afa9081156117ce579060019183916117b1575b5015151494611660565b6117c89150853d871161039f57610391818361265a565b876117a7565b83513d84823e3d90fd5b9450602483856002541684519283809263231053a760e11b8252338b8301525afa9081156117ce57906001918391611815575b5015151494611659565b61182c9150853d871161039f57610391818361265a565b8761180b565b8385843461112d57602090816003193601126103b8576001600160401b0384358181116103b0576118669036908701612457565b9160075461187a60ff8260a01c1615612549565b8654336001600160a01b03918216149087908215611af8575b505061189e90612a78565b60ff60a01b1916600160a01b176007558351916118ba836125a1565b606083526118d686840191888352868501958987523691612705565b8352428152438452600854600160401b811015611ae5576001906001810180600855811015611ad25760039060088a520292837ff3f7a9fe364faab93b216da50a3214154f22a0a2b415b23a84c8169e8b636ee3019185519a8b5192831161104d5750611947826105c685546127de565b8890601f8311600114611a1f575092611a0a94926119c6837ff3f7a9fe364faab93b216da50a3214154f22a0a2b415b23a84c8169e8b636ee59460609c9b9a99978e9f7fa821e3633a53ec7cf6887da61b4a7b2b5cdedbbd5980ad8f05aac54368faeca99f92611a145750508160011b916000199060031b1c19161790565b90555b5194857ff3f7a9fe364faab93b216da50a3214154f22a0a2b415b23a84c8169e8b636ee4840155519101555183519586953087528601526060850190612509565b918301520390a180f35b015190508f80610592565b9a601f198316848c528a8c209c8c905b828210611abb575050837fa821e3633a53ec7cf6887da61b4a7b2b5cdedbbd5980ad8f05aac54368faeca99c9d60609c9b9a999794611a0a9997947ff3f7a9fe364faab93b216da50a3214154f22a0a2b415b23a84c8169e8b636ee59760019510611aa2575b505050811b0190556119c9565b015160001960f88460031b161c191690558e8080611a95565b848401518f559d8e019d938c0193908c0190611a2f565b634e487b7160e01b895260328a52602489fd5b634e487b7160e01b885260418952602488fd5b600254885163231053a760e11b8152338d820152935083916024918391165afa908115611b575761189e916001918a91611b3a575b501515149050868a611893565b611b519150893d8b1161039f57610391818361265a565b8b611b2d565b86513d8a823e3d90fd5b5050346103b8576020806003193601126103b4578235926001600160a01b0380851690818603611d6f576024848260025416875192838092633a1a0c8560e21b825233898301525afa908115611b5757906001918991611d52575b50151503611d035786916044859260035416918751948593849263a9059cbb60e01b845288840152606460248401525af1908115611cf9578691611cdc575b5015611ca757509181611c837f7b36b001c4c8da2b63a882b17f18c2d7a5d5dcebd65282a6bd9d03533f9019c894611ca1945190611c3882612624565b8782528351611c4681612624565b8881526d119d5b991cd7dc995b19585cd95960921b855192611c678461263f565b600e8452830152845192611c7a84612624565b89845233612cd9565b513381526001600160a01b0390911660208201529081906040820190565b0390a180f35b915162461bcd60e51b815291820152601160248201527020b63932b0b23c903830b4b21037baba1760791b6044820152606490fd5b611cf39150833d851161039f57610391818361265a565b38611bfb565b84513d88823e3d90fd5b845162461bcd60e51b81528084018590526024808201527f546865206d6573736167652073656e646572206973206e6f74206120766572696044820152633334b2b960e11b6064820152608490fd5b611d699150863d881161039f57610391818361265a565b38611bbc565b8680fd5b5050346103b85760203660031901126103b8578135906001600160a01b038083169081840361206357611daa818754163314612a20565b825194611db6866125d2565b6020860184870191606088019689856007541691828b52878552428652438a528660015416803b156103b857895163e70434a560e01b81526001600160a01b03948516868201908152929094166020830152839182908490829060400103925af180156120595761202c575b506bffffffffffffffffffffffff60a01b94808660075416176007558954858116828103611f8c575b505050600a5490600160401b821015611f79576001820180600a55821015611f64575060809694927ff5768ddcedfed25b2fe14735aafab3a92dda69d83a8f706aae8e6263c9190f49989694927fc65a7bb8d6351c1cf70c95a316cc6a92839c986682d98bc35f958f4883f9d2ab92600a60005260021b9380857fc65a7bb8d6351c1cf70c95a316cc6a92839c986682d98bc35f958f4883f9d2a8019951169889878254161790557fc65a7bb8d6351c1cf70c95a316cc6a92839c986682d98bc35f958f4883f9d2a9850191511680958254161790555194857fc65a7bb8d6351c1cf70c95a316cc6a92839c986682d98bc35f958f4883f9d2aa840155519101558151938452602084015230908301526060820152a180f35b603290634e487b7160e01b6000525260246000fd5b634e487b7160e01b8a5260419052602489fd5b611f97813314612a20565b8215611fd157908288927f8be0079c531659141344cd1fd0a4f28419497f9722a3daafe3b4186f6b6457e08e80a316178955388080611e4b565b885162461bcd60e51b8152602081860152602f60248201527f546865206e6577206f776e65722063616e6e6f7420626520746865206465666160448201526e0756c7420616464726573732030783608c1b6064820152608490fd5b6001600160401b03819a929a116120465786529738611e22565b634e487b7160e01b825260418a52602482fd5b87513d8c823e3d90fd5b8580fd5b8285853461112d578160031936011261112d578154336001600160a01b039182161490811561227e575b8115612217575b81156121b7575b506120aa915061274b565b6008546120b6816127c7565b916120c38451938461265a565b8183526008815260209283810192827ff3f7a9fe364faab93b216da50a3214154f22a0a2b415b23a84c8169e8b636ee3855b83831061217457505050508451938085019181865251809252858501868360051b8701019493965b83881061212a5786860387f35b90919293948380600192603f198a820301865288519085806121556060855190808652850190612509565b938581015186850152015191015297019301970196909392919361211d565b6003886001928b9a97989a51612189816125a1565b6121928661297d565b8152848601548382015260028601548d820152815201920192019190969493966120f5565b6020915060025416916024855180948193633a1a0c8560e21b835233908301525afa9081156117ce576120aa9160019184916121f8575b501515148461209f565b612211915060203d60201161039f57610391818361265a565b856121ee565b9050602460208260025416865192838092634d70fded60e01b825233888301525afa90811561227457906001918591612255575b5015151490612098565b61226e915060203d60201161039f57610391818361265a565b8661224b565b85513d86823e3d90fd5b905060246020826002541686519283809263231053a760e11b825233888301525afa908115612274579060019185916122bc575b5015151490612091565b6122d5915060203d60201161039f57610391818361265a565b866122b2565b505090346103b8576122ec36612489565b9692949397909861230860ff60079894985460a01c1615612549565b8a54336001600160a01b039182161492908c9084156123f0575b8415612362575b50505050610eb8989361234a61235a94610eb19794610e7661235295612693565b983691612705565b943691612705565b933691612705565b6020919293945060025416926024855180958193634d70fded60e01b835233908301525afa9283156123e6575061235a94610eb19794610e76600161235296610eb89f9a9661234a96916123c7575b50151514955050949783979c508d919650612329565b6123e0915060203d60201161039f57610391818361265a565b386123b1565b51903d90823e3d90fd5b935060246020856002541685519283809263231053a760e11b825233888301525afa90811561244d5790600191839161242e575b5015151493612322565b612447915060203d60201161039f57610391818361265a565b38612424565b84513d84823e3d90fd5b9181601f84011215612484578235916001600160401b038311612484576020838186019501011161248457565b600080fd5b6080600319820112612484576001600160401b039060043582811161248457816124b591600401612457565b9390939260243581811161248457836124d091600401612457565b9390939260443583811161248457826124eb91600401612457565b939093926064359182116124845761250591600401612457565b9091565b919082519283825260005b848110612535575050826000602080949584010152601f8019910116010190565b602081830181015184830182015201612514565b1561255057565b60405162461bcd60e51b815260206004820152602360248201527f546869732064657669636520697320616c7265616479206465726567697374656044820152621c995960ea1b6064820152608490fd5b606081019081106001600160401b038211176125bc57604052565b634e487b7160e01b600052604160045260246000fd5b608081019081106001600160401b038211176125bc57604052565b60a081019081106001600160401b038211176125bc57604052565b61012081019081106001600160401b038211176125bc57604052565b602081019081106001600160401b038211176125bc57604052565b604081019081106001600160401b038211176125bc57604052565b90601f801991011681019081106001600160401b038211176125bc57604052565b90816020910312612484575180151581036124845790565b1561269a57565b60405162461bcd60e51b815260206004820152603760248201527f546865206d6573736167652073656e646572206973206e6f7420616e206f776e60448201527f65722c206f70657261746f72206f72207769746e6573730000000000000000006064820152608490fd5b9291926001600160401b0382116125bc576040519161272e601f8201601f19166020018461265a565b829481845281830111612484578281602093846000960137010152565b1561275257565b60405162461bcd60e51b815260206004820152604160248201527f546865206d6573736167652073656e646572206973206e6f7420616e206f776e60448201527f65722c206f70657261746f722c207665726966696572206f72207769746e65736064820152607360f81b608482015260a490fd5b6001600160401b0381116125bc5760051b60200190565b90600182811c9216801561280e575b60208310146127f857565b634e487b7160e01b600052602260045260246000fd5b91607f16916127ed565b604051906000826004549161282c836127de565b808352926020906001908181169081156128ba5750600114612859575b50506128579250038361265a565b565b91509260046000527f8a35acfbc15ff81a39ae7d344fd709f28e8600b4aa8c65c6b64bfe7fe36bd19b936000925b8284106128a257506128579450505081016020013880612849565b85548885018301529485019487945092810192612887565b9150506020925061285794915060ff191682840152151560051b8201013880612849565b60405190600082600554916128f2836127de565b808352926020906001908181169081156128ba575060011461291c5750506128579250038361265a565b91509260056000527f036b6384b5eca791c62761152d0c79bb0604c104a5fb6f4eb0703f3154bb3db0936000925b82841061296557506128579450505081016020013880612849565b8554888501830152948501948794509281019261294a565b90604051918260008254612990816127de565b908184526020946001916001811690816000146129fe57506001146129bf575b5050506128579250038361265a565b600090815285812095935091905b8183106129e657505061285793508201013880806129b0565b855488840185015294850194879450918301916129cd565b9250505061285794925060ff191682840152151560051b8201013880806129b0565b15612a2757565b60405162461bcd60e51b815260206004820152602360248201527f546865206d6573736167652073656e646572206973206e6f7420746865206f776044820152623732b960e91b6064820152608490fd5b15612a7f57565b60405162461bcd60e51b815260206004820152602e60248201527f546865206d6573736167652073656e646572206973206e6f7420616e206f776e60448201526d32b91037b91037b832b930ba37b960911b6064820152608490fd5b60405190612ae8826125ed565b6000608083828152826020820152606060408201526060808201520152565b818110612b12575050565b60008155600101612b07565b9190601f8111612b2d57505050565b612857926000526020600020906020601f840160051c83019310612b59575b601f0160051c0190612b07565b9091508190612b4c565b600c54811015612b9d57600c60005260021b7fdf6966c971051c3d54ec59162606531493a51404a002842f56009d7e5cf4a8c70190600090565b634e487b7160e01b600052603260045260246000fd5b90808214612c8c57612bc581546127de565b906001600160401b0382116125bc57612be2826105c685546127de565b600090601f8311600114612c2157612c12929160009183612c165750508160011b916000199060031b1c19161790565b9055565b015490503880610592565b815260208082208483528183209291601f1985169083905b828210612c73575050908460019594939210612c5a575b505050811b019055565b015460001960f88460031b161c19169055388080612c50565b8495819295850154815560018091019601940190612c39565b5050565b612c9a81546127de565b9081612ca4575050565b81601f60009311600114612cb6575055565b908083918252612cd5601f60208420940160051c840160018501612b07565b5555565b9392919060405194612cea86612608565b60608652606060208701526000604087015260608087015260606080870152606060a0870152606060c0870152600060e08701526000610100870152612d2e612818565b8652612d386128de565b60208701526001600160a01b03166040860152608085015260a084015260c08301524260e0830152436101008301526060820152600b54600160401b8110156125bc576001810180600b55811015612b9d57600b60005281519283516001600160401b0381116125bc57612ddc81612dc36009860260008051602061369783398151915201546127de565b6009860260008051602061369783398151915201612b1e565b6020601f8211600114613587578190612e0e939495966000926106a05750508160011b916000199060031b1c19161790565b6009830260008051602061369783398151915201555b60208301519283516001600160401b0381116125bc57612e7481612e5b6000805160206136b78339815191526009880201546127de565b6000805160206136b78339815191526009880201612b1e565b6020601f82116001146134f8578190612ea6939495966000926106a05750508160011b916000199060031b1c19161790565b6000805160206136b78339815191526009850201555b7f0175b7a638427703f0dbe7bb9bbf987a2551717b34e79f33b5b1008d1fa01dbb600984020160018060a01b036040830151166bffffffffffffffffffffffff60a01b82541617905560608101519283516001600160401b0381116125bc57612f5581612f3c6000805160206136378339815191526009860201546127de565b6000805160206136378339815191526009860201612b1e565b6020601f8211600114613469578190612f87939495966000926106a05750508160011b916000199060031b1c19161790565b6000805160206136378339815191526009830201555b60808201519283516001600160401b0381116125bc57612fed81612fd46000805160206136778339815191526009870201546127de565b6000805160206136778339815191526009870201612b1e565b6020601f82116001146133da57819061301f939495966000926106a05750508160011b916000199060031b1c19161790565b6000805160206136778339815191526009840201555b60a08301519283516001600160401b0381116125bc576130858161306c6000805160206136178339815191526009880201546127de565b6000805160206136178339815191526009880201612b1e565b6020601f821160011461334b5781906130b7939495966000926106a05750508160011b916000199060031b1c19161790565b6000805160206136178339815191526009850201555b60c08101519283516001600160401b0381116125bc5761311d816131046000805160206136578339815191526009860201546127de565b6000805160206136578339815191526009860201612b1e565b6020601f821160011461329257916131778261328d9361323c96957f20cb444c6cae9492d946d50520d539be4dc7b6718a10460e135a430f1f37928598996000926106a05750508160011b916000199060031b1c19161790565b6000805160206136578339815191526009830201555b60e083015190817f0175b7a638427703f0dbe7bb9bbf987a2551717b34e79f33b5b1008d1fa01dc06009830201557f0175b7a638427703f0dbe7bb9bbf987a2551717b34e79f33b5b1008d1fa01dc160096101008601519202015582519261327960208201519161326b60018060a01b0360408301511661325d60808401519160a08501519261324a606060c0880151970151986040519d8e9d8e610120903081528160208201520190612509565b8d810360408f015290612509565b9160608c01528a820360808c0152612509565b9088820360a08a0152612509565b9086820360c0880152612509565b9160e0850152838203610100850152612509565b0390a1565b600080516020613657833981519152600984020160005260206000209560005b601f19841681106133335750827f20cb444c6cae9492d946d50520d539be4dc7b6718a10460e135a430f1f379285969761323c96959360019361328d96601f1981161061331a575b505050811b0160008051602061365783398151915260098302015561318d565b015160001960f88460031b161c191690553880806132fa565b828201518855600190970196602092830192016132b2565b600080516020613617833981519152600986020160005260206000209060005b601f19841681106133c2575060019394959683601f198116106133a9575b505050811b016000805160206136178339815191526009850201556130cd565b015160001960f88460031b161c19169055388080613389565b9091602060018192858b01518155019301910161336b565b600080516020613677833981519152600985020160005260206000209060005b601f1984168110613451575060019394959683601f19811610613438575b505050811b01600080516020613677833981519152600984020155613035565b015160001960f88460031b161c19169055388080613418565b9091602060018192858b0151815501930191016133fa565b600080516020613637833981519152600984020160005260206000209060005b601f19841681106134e0575060019394959683601f198116106134c7575b505050811b01600080516020613637833981519152600983020155612f9d565b015160001960f88460031b161c191690553880806134a7565b9091602060018192858b015181550193019101613489565b6000805160206136b7833981519152600986020160005260206000209060005b601f198416811061356f575060019394959683601f19811610613556575b505050811b016000805160206136b7833981519152600985020155612ebc565b015160001960f88460031b161c19169055388080613536565b9091602060018192858b015181550193019101613518565b600984026000805160206136978339815191520160005260206000209060005b601f19841681106135fe575060019394959683601f198116106135e5575b505050811b01600983026000805160206136978339815191520155612e24565b015160001960f88460031b161c191690553880806135c5565b9091602060018192858b0151815501930191016135a756fe0175b7a638427703f0dbe7bb9bbf987a2551717b34e79f33b5b1008d1fa01dbe0175b7a638427703f0dbe7bb9bbf987a2551717b34e79f33b5b1008d1fa01dbc0175b7a638427703f0dbe7bb9bbf987a2551717b34e79f33b5b1008d1fa01dbf0175b7a638427703f0dbe7bb9bbf987a2551717b34e79f33b5b1008d1fa01dbd0175b7a638427703f0dbe7bb9bbf987a2551717b34e79f33b5b1008d1fa01db90175b7a638427703f0dbe7bb9bbf987a2551717b34e79f33b5b1008d1fa01dbaa264697066735822122089ae841ddb4f35e6f2079b5647a29e6c27d4e68e537ae659aa44432e92b32fe564736f6c6343000819003320cb444c6cae9492d946d50520d539be4dc7b6718a10460e135a430f1f3792858a35acfbc15ff81a39ae7d344fd709f28e8600b4aa8c65c6b64bfe7fe36bd19b",
  "immutableReferences": {},
  "source": "pragma solidity ^0.8.6;\n//pragma experimental ABIEncoderV2;\npragma abicoder v2;\n\nimport \"./DeviceFactory.sol\";\nimport \"./Ownable.sol\";\nimport \"./AccessList.sol\";\nimport \"./TokenContract.sol\";\n\n/**\n * @title Ereuse Device basic implementation\n */\n\ncontract DepositDevice is Ownable {\n    // parameters -----------------------------------------------------------\n    DeviceFactory factory;\n    AccessList roles;\n    TokenContract token_contract;\n    // types ----------------------------------------------------------------\n    //Struct that mantains the basic values of the device\n    struct DevData {\n        string chid;\n        string phid;\n        uint registerDate;\n        address owner;\n        bool deregistered;\n    }\n\n    // struct RegisterProofData {\n    //     string chid;\n    //     uint timestamp;\n    //     uint blockNumber;\n    // }\n\n    struct DeRegisterProofData {\n        string chid;\n        uint timestamp;\n        uint blockNumber;\n    }\n\n    struct TransferProofData {\n        address from;\n        address to;\n        // string from_registrant;\n        // string to_registrant;\n        uint timestamp;\n        uint blockNumber;\n    }\n\n    // struct RecycleProofData {\n    //     uint timestamp;\n    //     uint blockNumber;\n    // }\n\n    struct GenericProofData {\n        string chid;\n        string phid;\n        address issuerID;\n        string inventoryID;\n        string documentHashAlgorithm;\n        string documentHash;\n        string documentType;\n        uint timestamp;\n        uint blockNumber;\n    }\n\n    struct Service {\n        string endpoint;\n        string type_;\n        string description;\n        string fragment;\n    }\n\n    struct DidData {\n        address contractAddress;\n        address controller;\n        string chid;\n        Service[] services;\n        uint chainid;\n    }\n\n    // variables -------------------------------------------------------------\n    DevData data;\n    // RegisterProofData[] registerProofs;\n    DeRegisterProofData[] deRegisterProofs; //shouldnt be a vector? it is for simplicity?\n    string[] phids;\n    TransferProofData[] transferProofs;\n    //RecycleProofData[] recycleProofs;\n    GenericProofData[] genericProofs;\n    Service[] services;\n\n    // events ----------------------------------------------------------------\n    event proofGenerated(bytes32 indexed proofHash);\n    // event registerProof(address deviceAddress, string chid, uint timestamp);\n    event deRegisterProof(address deviceAddress, string chid, uint timestamp);\n    // event issueProof(address deviceAddress, string chid, string phid, string documentID, string documentSignature, string issuerID, uint timestamp);\n    event transferProof(address supplierAddress, address receiverAddress, address deviceAddress, uint timestamp);\n    //event recycleProof(address userAddress, address deviceAddress, uint timestamp); \n    event genericProof(address deviceAddress, string chid, string phid, address issuerID, string documentHashAlgorithm, string documentHash, string documentType, uint timestamp, string inventoryID);  \n    //event DeviceTransferred(address deviceAddress, address new_owner, string new_registrant);\n    event DeviceRecycled(address deviceAddress);\n    event fundsReleased(address verifierAddress, address receiverAddress);\n\n    constructor(\n        string memory _chid,\n        address _sender,\n        address _factory,\n        address _roles,\n        string memory _documentHashAlgorithm,\n        string memory _documentHash,\n        string memory _inventoryID,\n        address _tokenContract\n    ) {\n        factory = DeviceFactory(_factory);\n        roles = AccessList(_roles);\n        token_contract = TokenContract(_tokenContract);\n        data.deregistered = false;\n        data.owner = _sender;\n        data.chid = _chid;\n        data.registerDate = block.timestamp;\n        _transferOwnership(_sender);\n\n        // RegisterProofData memory proof_data;\n        // proof_data.chid = _chid;\n        // proof_data.timestamp = block.timestamp;\n        // proof_data.blockNumber = block.number;\n        // generateRegisterProof(proof_data);\n\n        _generateGenericProof(_sender, _documentHashAlgorithm, _documentHash, \"Device_creation\", _inventoryID);\n    }\n\n    modifier onlyOpWitVer() {\n        require((owner == msg.sender || \n        roles.checkIfOperator(msg.sender) == true || \n        roles.checkIfWitness(msg.sender) == true || \n        roles.checkIfVerifier(msg.sender) == true), \"The message sender is not an owner, operator, verifier or witness\");\n        _;\n    }\n\n    modifier onlyOpWit() {\n        require((owner == msg.sender || \n        roles.checkIfOperator(msg.sender) == true || \n        roles.checkIfWitness(msg.sender) == true), \"The message sender is not an owner, operator or witness\");\n        _;\n    }\n\n    modifier onlyOp() {\n        require((owner == msg.sender || \n        roles.checkIfOperator(msg.sender) == true), \"The message sender is not an owner or operator\");\n        _;\n    }\n\n    modifier onlyVer() {\n        require((roles.checkIfVerifier(msg.sender) == true), \"The message sender is not a verifier\");\n        _;\n    }\n\n\n    modifier registered() {\n    require(data.deregistered == false, \"This device is already deregistered\");\n    _;\n    }\n\n    // function generateRegisterProof(RegisterProofData memory proof_data) internal {\n    //     registerProofs.push(proof_data);\n    //     emit registerProof(address(this), proof_data.chid, proof_data.timestamp);\n    // }\n\n    function generateDeRegisterProof(DeRegisterProofData memory proof_data) internal {\n        deRegisterProofs.push(proof_data);\n        emit deRegisterProof(address(this), proof_data.chid, proof_data.timestamp);\n    }\n    \n    // function generateIssueProof(IssueProofData memory proof_data) internal {\n    //     issueProofs.push(proof_data);\n    //     emit issueProof(address(this), proof_data.chid, proof_data.phid, proof_data.documentID, proof_data.documentSignature, proof_data.issuerID, proof_data.timestamp);\n    // }\n\n    //function emitGenericProof(GenericProofData memory proof_data) internal {\n    //    genericProofs.push(proof_data);\n    //    emit genericProof(address(this), proof_data.chid, proof_data.issuerID, proof_data.documentID, proof_data.documentSignature, proof_data.documentType, proof_data.timestamp);\n    //}\n\n    function issuePassport(string calldata _phid, string calldata _documentHashAlgorithm, string calldata _documentHash, string calldata _inventoryID) public registered onlyOpWit{\n        phids.push(_phid);\n\n        data.phid = _phid;\n\n        // generateIssueProof(proof_data);\n\n        _generateGenericProof(msg.sender, _documentHashAlgorithm, _documentHash, \"DPP_creation\", _inventoryID);\n    }\n    \n    function generateGenericProof(string calldata _documentHashAlgorithm, string calldata _documentHash, string calldata _documentType, string calldata _inventoryID) public registered onlyOpWit{\n        _generateGenericProof(msg.sender, _documentHashAlgorithm, _documentHash, _documentType, _inventoryID);   \n    }\n\n    function _generateGenericProof(address _sender, string memory _documentHashAlgorithm, string memory _documentHash, string memory _documentType, string memory _inventoryID) internal {\n        GenericProofData memory proof_data;\n        proof_data.chid = data.chid;\n        proof_data.phid = data.phid;\n        proof_data.issuerID = _sender;\n        proof_data.documentHashAlgorithm = _documentHashAlgorithm;\n        proof_data.documentHash = _documentHash;\n        proof_data.documentType = _documentType;\n        proof_data.timestamp = block.timestamp;\n        proof_data.blockNumber = block.number;\n        proof_data.inventoryID = _inventoryID;\n\n        //emitGenericProof(proof_data);\n        genericProofs.push(proof_data);\n        emit genericProof(address(this), proof_data.chid, proof_data.phid, proof_data.issuerID, proof_data.documentHashAlgorithm, proof_data.documentHash, proof_data.documentType, proof_data.timestamp, proof_data.inventoryID);\n    }\n\n    function releaseFunds(address _recycler)public onlyVer{\n        require(token_contract.transfer(_recycler, 100), \"Already paid out.\");\n        _generateGenericProof(msg.sender, \"\", \"\", \"Funds_released\", \"\");\n        emit fundsReleased(msg.sender, _recycler);\n    }\n    \n\n    function deRegisterDevice(string calldata _deviceCHID) public registered onlyOp{\n        data.deregistered = true;\n\n        DeRegisterProofData memory proof_data;\n        proof_data.chid = _deviceCHID;\n        proof_data.timestamp = block.timestamp;\n        proof_data.blockNumber = block.number;\n        generateDeRegisterProof(proof_data);\n    }\n\n    // function issueDID(string _did, string _registerID, string _documentSignature) public onlyOwner{\n    //     IssueProofData memory proof_data;\n    //     proof_data.did = _did;\n    //     proof_data.registerID = _registerID;\n    //     proof_data.documentSignature = _documentSignature;\n    //     proof_data.timestamp = block.timestamp;\n    //     proof_data.blockNumber = block.number;\n\n    //     data.did = _did;\n    //     data.registerID = _registerID;\n\n    //     generateIssueProof(proof_data);\n    // }\n\n    function getData() onlyOpWitVer public view returns (DevData memory _data) {\n        return data;\n    }\n\n    // function getRegisterProofs() public view onlyOpWitVer returns (RegisterProofData[] memory _data) {\n    //     return registerProofs;\n    // }\n\n    // function getIssueProofs() public view onlyOpWitVer returns (IssueProofData[] memory _data){\n    //     return issueProofs;\n    // }\n    function getDPPs() public view returns (string[] memory _data){\n        return phids;\n    }\n\n    function getGenericProofs() onlyOpWitVer public view returns (GenericProofData[] memory _data){\n        return genericProofs;\n    }\n\n    function getDeRegisterProofs() onlyOpWitVer public view returns (DeRegisterProofData[] memory _data) {\n        return deRegisterProofs;\n    }\n\n     function getTrasferProofs() onlyOpWitVer public view  returns (TransferProofData[] memory _data){\n         return transferProofs;\n     }\n\n    //  function getRecycleProofs() public view returns (RecycleProofData[] _data){\n    //      return recycleProofs;\n    //  }\n\n    function generateTransferProof(TransferProofData memory proof_data) internal {\n        transferProofs.push(proof_data);\n        emit transferProof(proof_data.from, proof_data.to, address(this), proof_data.timestamp);\n    }\n\n    //API DONE\n    function transferDevice(address _to)\n        public\n        onlyOwner\n    {\n        TransferProofData memory proof_data;\n        proof_data.from = data.owner;\n        proof_data.to = _to;\n        //proof_data.from_registrant = data.registrantData;\n        //proof_data.to_registrant = _new_registrant;\n        proof_data.timestamp = block.timestamp;\n        proof_data.blockNumber = block.number;\n\n        factory.transferDevice(data.owner, _to);\n        data.owner = _to;\n        //data.registrantData = _new_registrant;\n        if (owner != _to) transferOwnership(_to);\n\n        generateTransferProof(proof_data);\n\n        //3rd parameter is a placeholder, emiting two transfers?\n       // emit DeviceTransferred(address(this), data.owner, \"registrant??\");\n    }\n\n    function addService(string calldata endpoint, string calldata type_, string calldata description, string calldata fragment) \n    public onlyOp{\n        Service memory newService;\n        newService.endpoint = endpoint;\n        newService.type_ = type_;\n        newService.description = description;\n        newService.fragment = fragment;\n        services.push(newService);\n    }\n    \n    function removeService(string calldata fragment) public onlyOp{\n        uint256 length = services.length;\n        bytes32 fragmentHash = keccak256(abi.encodePacked(fragment));\n        for (uint256 i = 0; i < length; i++) {\n            bytes32 currentFragmentHash = keccak256(abi.encodePacked(services[i].fragment));\n            if (currentFragmentHash == fragmentHash) {\n                services[i] = services[length - 1];\n                services.pop();\n                break;\n            }\n        }\n    }\n\n    function getDidData() public view returns (DidData memory _didData){\n        DidData memory retData;\n        retData.contractAddress = address(this);\n        retData.controller = data.owner;\n        retData.services = services;\n        retData.chid = data.chid;\n        retData.chainid = block.chainid;\n        return retData;\n    }\n\n    // function generateRecycleProof(RecycleProofData memory proof_data) internal{\n    //     recycleProofs.push(proof_data);\n    //     emit recycleProof(data.owner, address(this), proof_data.timestamp);\n    // }\n\n    //API DONE\n    // function recycle() public onlyOwner{\n    //     factory.recycle(msg.sender);\n\n    //     RecycleProofData memory proof_data;\n    //     proof_data.timestamp = block.timestamp;\n    //     proof_data.blockNumber = block.number;\n\n    //     generateRecycleProof(proof_data);\n\n    //     emit DeviceRecycled(address(this));\n    // }\n\n\n\n}",
  "sourcePath": "/home/node/app/contracts/DepositDevice.sol",
  "compiler": {
    "name": "solc",
    "version": "0.8.25+commit.b61c2a91.Emscripten.clang"
  },
  "schemaVersion": "3.4.3",
  "updatedAt": "2024-03-20T23:54:23.153Z",
  "devdoc": {
    "kind": "dev",
    "methods": {
      "renounceOwnership()": {
        "details": "Allows the current owner to relinquish control of the contract."
      },
      "transferOwnership(address)": {
        "details": "Allows the current owner to transfer control of the contract to a newOwner.",
        "params": {
          "_newOwner": "The address to transfer ownership to."
        }
      }
    },
    "title": "Ereuse Device basic implementation",
    "version": 1
  },
  "userdoc": {
    "kind": "user",
    "methods": {
      "renounceOwnership()": {
        "notice": "Renouncing to ownership will leave the contract without an owner. It will not be possible to call the functions with the `onlyOwner` modifier anymore."
      }
    },
    "version": 1
  }
}