{
  "contractName": "AddressRoles",
  "abi": [
    {
      "constant": false,
      "inputs": [
        {
          "name": "_address",
          "type": "address"
        }
      ],
      "name": "setTA",
      "outputs": [],
      "payable": false,
      "stateMutability": "nonpayable",
      "type": "function"
    },
    {
      "constant": false,
      "inputs": [
        {
          "name": "_address",
          "type": "address"
        }
      ],
      "name": "changeTA",
      "outputs": [],
      "payable": false,
      "stateMutability": "nonpayable",
      "type": "function"
    },
    {
      "constant": false,
      "inputs": [
        {
          "name": "_address",
          "type": "address"
        }
      ],
      "name": "registerOperator",
      "outputs": [],
      "payable": false,
      "stateMutability": "nonpayable",
      "type": "function"
    },
    {
      "constant": false,
      "inputs": [
        {
          "name": "_address",
          "type": "address"
        }
      ],
      "name": "registerWitness",
      "outputs": [],
      "payable": false,
      "stateMutability": "nonpayable",
      "type": "function"
    },
    {
      "constant": false,
      "inputs": [
        {
          "name": "_address",
          "type": "address"
        }
      ],
      "name": "registerVerifier",
      "outputs": [],
      "payable": false,
      "stateMutability": "nonpayable",
      "type": "function"
    },
    {
      "constant": false,
      "inputs": [
        {
          "name": "_address",
          "type": "address"
        }
      ],
      "name": "invalidateOperator",
      "outputs": [],
      "payable": false,
      "stateMutability": "nonpayable",
      "type": "function"
    },
    {
      "constant": false,
      "inputs": [
        {
          "name": "_address",
          "type": "address"
        }
      ],
      "name": "invalidateWitness",
      "outputs": [],
      "payable": false,
      "stateMutability": "nonpayable",
      "type": "function"
    },
    {
      "constant": false,
      "inputs": [
        {
          "name": "_address",
          "type": "address"
        }
      ],
      "name": "invalidateVerifier",
      "outputs": [],
      "payable": false,
      "stateMutability": "nonpayable",
      "type": "function"
    },
    {
      "constant": true,
      "inputs": [
        {
          "name": "_address",
          "type": "address"
        }
      ],
      "name": "checkIfOperator",
      "outputs": [
        {
          "name": "result",
          "type": "bool"
        }
      ],
      "payable": false,
      "stateMutability": "view",
      "type": "function"
    },
    {
      "constant": true,
      "inputs": [
        {
          "name": "_address",
          "type": "address"
        }
      ],
      "name": "checkIfWitness",
      "outputs": [
        {
          "name": "result",
          "type": "bool"
        }
      ],
      "payable": false,
      "stateMutability": "view",
      "type": "function"
    },
    {
      "constant": true,
      "inputs": [
        {
          "name": "_address",
          "type": "address"
        }
      ],
      "name": "checkIfVerifier",
      "outputs": [
        {
          "name": "result",
          "type": "bool"
        }
      ],
      "payable": false,
      "stateMutability": "view",
      "type": "function"
    },
    {
      "constant": true,
      "inputs": [],
      "name": "checkTA",
      "outputs": [
        {
          "name": "result",
          "type": "address"
        }
      ],
      "payable": false,
      "stateMutability": "view",
      "type": "function"
    }
  ],
  "bytecode": "0x608060405234801561001057600080fd5b50610f96806100206000396000f3006080604052600436106100ba576000357c0100000000000000000000000000000000000000000000000000000000900463ffffffff16806316d9ba84146100bf5780632d664e921461010257806332fe62f1146101455780633682a450146101885780634620a74e146101cb5780634d70fded14610226578063526795301461028157806384441f81146102c4578063ac13b05514610307578063c639e8c51461034a578063e86832141461038d578063f61b1703146103e8575b600080fd5b3480156100cb57600080fd5b50610100600480360381019080803573ffffffffffffffffffffffffffffffffffffffff16906020019092919050505061043f565b005b34801561010e57600080fd5b50610143600480360381019080803573ffffffffffffffffffffffffffffffffffffffff16906020019092919050505061056f565b005b34801561015157600080fd5b50610186600480360381019080803573ffffffffffffffffffffffffffffffffffffffff1690602001909291905050506106b4565b005b34801561019457600080fd5b506101c9600480360381019080803573ffffffffffffffffffffffffffffffffffffffff1690602001909291905050506107fa565b005b3480156101d757600080fd5b5061020c600480360381019080803573ffffffffffffffffffffffffffffffffffffffff16906020019092919050505061093f565b604051808215151515815260200191505060405180910390f35b34801561023257600080fd5b50610267600480360381019080803573ffffffffffffffffffffffffffffffffffffffff169060200190929190505050610994565b604051808215151515815260200191505060405180910390f35b34801561028d57600080fd5b506102c2600480360381019080803573ffffffffffffffffffffffffffffffffffffffff1690602001909291905050506109ea565b005b3480156102d057600080fd5b50610305600480360381019080803573ffffffffffffffffffffffffffffffffffffffff169060200190929190505050610b19565b005b34801561031357600080fd5b50610348600480360381019080803573ffffffffffffffffffffffffffffffffffffffff169060200190929190505050610c5e565b005b34801561035657600080fd5b5061038b600480360381019080803573ffffffffffffffffffffffffffffffffffffffff169060200190929190505050610da4565b005b34801561039957600080fd5b506103ce600480360381019080803573ffffffffffffffffffffffffffffffffffffffff169060200190929190505050610eea565b604051808215151515815260200191505060405180910390f35b3480156103f457600080fd5b506103fd610f40565b604051808273ffffffffffffffffffffffffffffffffffffffff1673ffffffffffffffffffffffffffffffffffffffff16815260200191505060405180910390f35b600073ffffffffffffffffffffffffffffffffffffffff16600360009054906101000a900473ffffffffffffffffffffffffffffffffffffffff1673ffffffffffffffffffffffffffffffffffffffff1614151561052b576040517f08c379a00000000000000000000000000000000000000000000000000000000081526004018080602001828103825260298152602001807f4120547275737420416e63686f72206163636f756e7420697320616c7265616481526020017f7920696e207573652e000000000000000000000000000000000000000000000081525060400191505060405180910390fd5b80600360006101000a81548173ffffffffffffffffffffffffffffffffffffffff021916908373ffffffffffffffffffffffffffffffffffffffff16021790555050565b3373ffffffffffffffffffffffffffffffffffffffff16600360009054906101000a900473ffffffffffffffffffffffffffffffffffffffff1673ffffffffffffffffffffffffffffffffffffffff1614151561065a576040517f08c379a000000000000000000000000000000000000000000000000000000000815260040180806020018281038252602b8152602001807f4f6e6c7920757361626c652062792063757272656e7420547275737420416e6381526020017f686f72206163636f756e7400000000000000000000000000000000000000000081525060400191505060405180910390fd5b60008060008373ffffffffffffffffffffffffffffffffffffffff1673ffffffffffffffffffffffffffffffffffffffff16815260200190815260200160002060006101000a81548160ff02191690831515021790555050565b3373ffffffffffffffffffffffffffffffffffffffff16600360009054906101000a900473ffffffffffffffffffffffffffffffffffffffff1673ffffffffffffffffffffffffffffffffffffffff1614151561079f576040517f08c379a000000000000000000000000000000000000000000000000000000000815260040180806020018281038252602b8152602001807f4f6e6c7920757361626c652062792063757272656e7420547275737420416e6381526020017f686f72206163636f756e7400000000000000000000000000000000000000000081525060400191505060405180910390fd5b6000600160008373ffffffffffffffffffffffffffffffffffffffff1673ffffffffffffffffffffffffffffffffffffffff16815260200190815260200160002060006101000a81548160ff02191690831515021790555050565b3373ffffffffffffffffffffffffffffffffffffffff16600360009054906101000a900473ffffffffffffffffffffffffffffffffffffffff1673ffffffffffffffffffffffffffffffffffffffff161415156108e5576040517f08c379a000000000000000000000000000000000000000000000000000000000815260040180806020018281038252602b8152602001807f4f6e6c7920757361626c652062792063757272656e7420547275737420416e6381526020017f686f72206163636f756e7400000000000000000000000000000000000000000081525060400191505060405180910390fd5b60016000808373ffffffffffffffffffffffffffffffffffffffff1673ffffffffffffffffffffffffffffffffffffffff16815260200190815260200160002060006101000a81548160ff02191690831515021790555050565b60008060008373ffffffffffffffffffffffffffffffffffffffff1673ffffffffffffffffffffffffffffffffffffffff16815260200190815260200160002060009054906101000a900460ff169050919050565b6000600160008373ffffffffffffffffffffffffffffffffffffffff1673ffffffffffffffffffffffffffffffffffffffff16815260200190815260200160002060009054906101000a900460ff169050919050565b3373ffffffffffffffffffffffffffffffffffffffff16600360009054906101000a900473ffffffffffffffffffffffffffffffffffffffff1673ffffffffffffffffffffffffffffffffffffffff16141515610ad5576040517f08c379a000000000000000000000000000000000000000000000000000000000815260040180806020018281038252602b8152602001807f4f6e6c7920757361626c652062792063757272656e7420547275737420416e6381526020017f686f72206163636f756e7400000000000000000000000000000000000000000081525060400191505060405180910390fd5b80600360006101000a81548173ffffffffffffffffffffffffffffffffffffffff021916908373ffffffffffffffffffffffffffffffffffffffff16021790555050565b3373ffffffffffffffffffffffffffffffffffffffff16600360009054906101000a900473ffffffffffffffffffffffffffffffffffffffff1673ffffffffffffffffffffffffffffffffffffffff16141515610c04576040517f08c379a000000000000000000000000000000000000000000000000000000000815260040180806020018281038252602b8152602001807f4f6e6c7920757361626c652062792063757272656e7420547275737420416e6381526020017f686f72206163636f756e7400000000000000000000000000000000000000000081525060400191505060405180910390fd5b60018060008373ffffffffffffffffffffffffffffffffffffffff1673ffffffffffffffffffffffffffffffffffffffff16815260200190815260200160002060006101000a81548160ff02191690831515021790555050565b3373ffffffffffffffffffffffffffffffffffffffff16600360009054906101000a900473ffffffffffffffffffffffffffffffffffffffff1673ffffffffffffffffffffffffffffffffffffffff16141515610d49576040517f08c379a000000000000000000000000000000000000000000000000000000000815260040180806020018281038252602b8152602001807f4f6e6c7920757361626c652062792063757272656e7420547275737420416e6381526020017f686f72206163636f756e7400000000000000000000000000000000000000000081525060400191505060405180910390fd5b6000600260008373ffffffffffffffffffffffffffffffffffffffff1673ffffffffffffffffffffffffffffffffffffffff16815260200190815260200160002060006101000a81548160ff02191690831515021790555050565b3373ffffffffffffffffffffffffffffffffffffffff16600360009054906101000a900473ffffffffffffffffffffffffffffffffffffffff1673ffffffffffffffffffffffffffffffffffffffff16141515610e8f576040517f08c379a000000000000000000000000000000000000000000000000000000000815260040180806020018281038252602b8152602001807f4f6e6c7920757361626c652062792063757272656e7420547275737420416e6381526020017f686f72206163636f756e7400000000000000000000000000000000000000000081525060400191505060405180910390fd5b6001600260008373ffffffffffffffffffffffffffffffffffffffff1673ffffffffffffffffffffffffffffffffffffffff16815260200190815260200160002060006101000a81548160ff02191690831515021790555050565b6000600260008373ffffffffffffffffffffffffffffffffffffffff1673ffffffffffffffffffffffffffffffffffffffff16815260200190815260200160002060009054906101000a900460ff169050919050565b6000600360009054906101000a900473ffffffffffffffffffffffffffffffffffffffff169050905600a165627a7a72305820043a7c9f7b695fc207d32633173bafe315ff667965fc8b22ef027e6f36e140a00029",
  "source": "pragma solidity ^0.4.25;\r\n\r\ncontract AddressRoles {\r\n    mapping(address => bool) operators;\r\n    mapping(address => bool) witnesses;\r\n    mapping(address => bool) verifiers;\r\n\r\n    address trustAnchor;\r\n\r\n    modifier TAnotSetted() {\r\n        require(\r\n            trustAnchor == 0x0000000000000000000000000000000000000000,\r\n            \"A Trust Anchor account is already in use.\"\r\n        );\r\n        _;\r\n    }\r\n\r\n    modifier TAonly() {\r\n        require(\r\n            trustAnchor == msg.sender,\r\n            \"Only usable by current Trust Anchor account\"\r\n        );\r\n        _;\r\n    }\r\n\r\n    modifier onlyOp() {\r\n        require(checkIfOperator(msg.sender) == true, \"The message sender is not an operator\");\r\n        _;\r\n    }\r\n\r\n    modifier onlyOpWit() {\r\n        require((checkIfOperator(msg.sender) == true || checkIfWitness(msg.sender) == true), \"The message sender is not an operator or witness\");\r\n        _;\r\n    }\r\n\r\n\r\n    //Trust Anchor management\r\n    function setTA(address _address) public TAnotSetted {\r\n        trustAnchor = _address;\r\n    }\r\n\r\n    function changeTA(address _address) public TAonly {\r\n        trustAnchor = _address;\r\n    }\r\n\r\n    //registers\r\n    function registerOperator(address _address) public TAonly {\r\n        operators[_address] = true;\r\n    }\r\n\r\n    function registerWitness(address _address) public TAonly {\r\n        witnesses[_address] = true;\r\n    }\r\n\r\n    function registerVerifier(address _address) public TAonly {\r\n        verifiers[_address] = true;\r\n    }\r\n\r\n    //invalidates\r\n    function invalidateOperator(address _address) public TAonly {\r\n        operators[_address] = false;\r\n    }\r\n\r\n    function invalidateWitness(address _address) public TAonly {\r\n        witnesses[_address] = false;\r\n    }\r\n\r\n    function invalidateVerifier(address _address) public TAonly {\r\n        verifiers[_address] = false;\r\n    }\r\n\r\n    //getters. Could be internal since they are used by modifiers\r\n    function checkIfOperator(address _address) public view returns (bool result) {\r\n        result = operators[_address];\r\n    }\r\n\r\n    function checkIfWitness(address _address) public view returns (bool result) {\r\n        result = witnesses[_address];\r\n    }\r\n\r\n    function checkIfVerifier(address _address) public view returns (bool result) {\r\n        result = verifiers[_address];\r\n    }\r\n\r\n    function checkTA() public view returns (address result) {\r\n        result = trustAnchor;\r\n    }\r\n}\r\n",
  "sourcePath": "C:\\Users\\marc\\Documents\\DSG\\TrubloAPI\\trublo_contracts_api\\contracts\\AddressRoles.sol",
  "compiler": {
    "name": "solc",
    "version": "0.4.26+commit.4563c3fc.Emscripten.clang"
  },
  "schemaVersion": "3.4.7",
  "updatedAt": "2022-05-30T18:13:42.582Z",
  "devdoc": {
    "methods": {}
  },
  "userdoc": {
    "methods": {}
  }
}