{
  "contractName": "DepositDevice",
  "abi": [
    {
      "constant": false,
      "inputs": [],
      "name": "renounceOwnership",
      "outputs": [],
      "payable": false,
      "stateMutability": "nonpayable",
      "type": "function"
    },
    {
      "constant": true,
      "inputs": [],
      "name": "owner",
      "outputs": [
        {
          "name": "",
          "type": "address"
        }
      ],
      "payable": false,
      "stateMutability": "view",
      "type": "function"
    },
    {
      "constant": false,
      "inputs": [
        {
          "name": "_newOwner",
          "type": "address"
        }
      ],
      "name": "transferOwnership",
      "outputs": [],
      "payable": false,
      "stateMutability": "nonpayable",
      "type": "function"
    },
    {
      "inputs": [
        {
          "name": "_chid",
          "type": "string"
        },
        {
          "name": "_sender",
          "type": "address"
        },
        {
          "name": "_factory",
          "type": "address"
        }
      ],
      "payable": false,
      "stateMutability": "nonpayable",
      "type": "constructor"
    },
    {
      "anonymous": false,
      "inputs": [
        {
          "indexed": true,
          "name": "proofHash",
          "type": "bytes32"
        }
      ],
      "name": "proofGenerated",
      "type": "event"
    },
    {
      "anonymous": false,
      "inputs": [
        {
          "indexed": false,
          "name": "deviceAddress",
          "type": "address"
        },
        {
          "indexed": false,
          "name": "chid",
          "type": "string"
        },
        {
          "indexed": false,
          "name": "timestamp",
          "type": "uint256"
        }
      ],
      "name": "registerProof",
      "type": "event"
    },
    {
      "anonymous": false,
      "inputs": [
        {
          "indexed": false,
          "name": "deviceAddress",
          "type": "address"
        },
        {
          "indexed": false,
          "name": "chid",
          "type": "string"
        },
        {
          "indexed": false,
          "name": "timestamp",
          "type": "uint256"
        }
      ],
      "name": "deRegisterProof",
      "type": "event"
    },
    {
      "anonymous": false,
      "inputs": [
        {
          "indexed": false,
          "name": "deviceAddress",
          "type": "address"
        },
        {
          "indexed": false,
          "name": "chid",
          "type": "string"
        },
        {
          "indexed": false,
          "name": "phid",
          "type": "string"
        },
        {
          "indexed": false,
          "name": "documentID",
          "type": "string"
        },
        {
          "indexed": false,
          "name": "documentSignature",
          "type": "string"
        },
        {
          "indexed": false,
          "name": "issuerID",
          "type": "string"
        },
        {
          "indexed": false,
          "name": "timestamp",
          "type": "uint256"
        }
      ],
      "name": "issueProof",
      "type": "event"
    },
    {
      "anonymous": false,
      "inputs": [
        {
          "indexed": false,
          "name": "deviceAddress",
          "type": "address"
        },
        {
          "indexed": false,
          "name": "chid",
          "type": "string"
        },
        {
          "indexed": false,
          "name": "issuerID",
          "type": "string"
        },
        {
          "indexed": false,
          "name": "documentID",
          "type": "string"
        },
        {
          "indexed": false,
          "name": "documentSignature",
          "type": "string"
        },
        {
          "indexed": false,
          "name": "documentType",
          "type": "string"
        },
        {
          "indexed": false,
          "name": "timestamp",
          "type": "uint256"
        }
      ],
      "name": "genericProof",
      "type": "event"
    },
    {
      "anonymous": false,
      "inputs": [
        {
          "indexed": false,
          "name": "deviceAddress",
          "type": "address"
        }
      ],
      "name": "DeviceRecycled",
      "type": "event"
    },
    {
      "anonymous": false,
      "inputs": [
        {
          "indexed": true,
          "name": "previousOwner",
          "type": "address"
        }
      ],
      "name": "OwnershipRenounced",
      "type": "event"
    },
    {
      "anonymous": false,
      "inputs": [
        {
          "indexed": true,
          "name": "previousOwner",
          "type": "address"
        },
        {
          "indexed": true,
          "name": "newOwner",
          "type": "address"
        }
      ],
      "name": "OwnershipTransferred",
      "type": "event"
    },
    {
      "constant": false,
      "inputs": [
        {
          "name": "_chid",
          "type": "string"
        },
        {
          "name": "_phid",
          "type": "string"
        },
        {
          "name": "_documentID",
          "type": "string"
        },
        {
          "name": "_documentSignature",
          "type": "string"
        },
        {
          "name": "_issuerID",
          "type": "string"
        }
      ],
      "name": "issuePassport",
      "outputs": [],
      "payable": false,
      "stateMutability": "nonpayable",
      "type": "function"
    },
    {
      "constant": false,
      "inputs": [
        {
          "name": "_deviceCHID",
          "type": "string"
        },
        {
          "name": "_issuerID",
          "type": "string"
        },
        {
          "name": "_documentID",
          "type": "string"
        },
        {
          "name": "_documentSignature",
          "type": "string"
        },
        {
          "name": "_documentType",
          "type": "string"
        }
      ],
      "name": "generateGenericProof",
      "outputs": [],
      "payable": false,
      "stateMutability": "nonpayable",
      "type": "function"
    },
    {
      "constant": false,
      "inputs": [
        {
          "name": "_deviceCHID",
          "type": "string"
        }
      ],
      "name": "deRegisterDevice",
      "outputs": [],
      "payable": false,
      "stateMutability": "nonpayable",
      "type": "function"
    },
    {
      "constant": true,
      "inputs": [],
      "name": "getData",
      "outputs": [
        {
          "components": [
            {
              "name": "chid",
              "type": "string"
            },
            {
              "name": "phid",
              "type": "string"
            },
            {
              "name": "issuerID",
              "type": "string"
            },
            {
              "name": "registerDate",
              "type": "uint256"
            },
            {
              "name": "owner",
              "type": "address"
            },
            {
              "name": "deregistered",
              "type": "bool"
            }
          ],
          "name": "_data",
          "type": "tuple"
        }
      ],
      "payable": false,
      "stateMutability": "view",
      "type": "function"
    },
    {
      "constant": true,
      "inputs": [],
      "name": "getRegisterProofs",
      "outputs": [
        {
          "components": [
            {
              "name": "chid",
              "type": "string"
            },
            {
              "name": "timestamp",
              "type": "uint256"
            },
            {
              "name": "blockNumber",
              "type": "uint256"
            }
          ],
          "name": "_data",
          "type": "tuple[]"
        }
      ],
      "payable": false,
      "stateMutability": "view",
      "type": "function"
    },
    {
      "constant": true,
      "inputs": [],
      "name": "getIssueProofs",
      "outputs": [
        {
          "components": [
            {
              "name": "chid",
              "type": "string"
            },
            {
              "name": "phid",
              "type": "string"
            },
            {
              "name": "documentID",
              "type": "string"
            },
            {
              "name": "documentSignature",
              "type": "string"
            },
            {
              "name": "issuerID",
              "type": "string"
            },
            {
              "name": "timestamp",
              "type": "uint256"
            },
            {
              "name": "blockNumber",
              "type": "uint256"
            }
          ],
          "name": "_data",
          "type": "tuple[]"
        }
      ],
      "payable": false,
      "stateMutability": "view",
      "type": "function"
    },
    {
      "constant": true,
      "inputs": [],
      "name": "getGenericProofs",
      "outputs": [
        {
          "components": [
            {
              "name": "chid",
              "type": "string"
            },
            {
              "name": "issuerID",
              "type": "string"
            },
            {
              "name": "documentID",
              "type": "string"
            },
            {
              "name": "documentSignature",
              "type": "string"
            },
            {
              "name": "documentType",
              "type": "string"
            },
            {
              "name": "timestamp",
              "type": "uint256"
            },
            {
              "name": "blockNumber",
              "type": "uint256"
            }
          ],
          "name": "_data",
          "type": "tuple[]"
        }
      ],
      "payable": false,
      "stateMutability": "view",
      "type": "function"
    },
    {
      "constant": true,
      "inputs": [],
      "name": "getDeRegisterProofs",
      "outputs": [
        {
          "components": [
            {
              "name": "chid",
              "type": "string"
            },
            {
              "name": "timestamp",
              "type": "uint256"
            },
            {
              "name": "blockNumber",
              "type": "uint256"
            }
          ],
          "name": "_data",
          "type": "tuple[]"
        }
      ],
      "payable": false,
      "stateMutability": "view",
      "type": "function"
    }
  ],
  "bytecode": "0x60806040523480156200001157600080fd5b5060405162002dfd38038062002dfd833981018060405262000037919081019062000550565b6200004162000384565b336000806101000a81548173ffffffffffffffffffffffffffffffffffffffff021916908373ffffffffffffffffffffffffffffffffffffffff16021790555081600160006101000a81548173ffffffffffffffffffffffffffffffffffffffff021916908373ffffffffffffffffffffffffffffffffffffffff1602179055506000600260040160146101000a81548160ff02191690831515021790555082600260040160006101000a81548173ffffffffffffffffffffffffffffffffffffffff021916908373ffffffffffffffffffffffffffffffffffffffff16021790555083600260000190805190602001906200013f929190620003a6565b50426002600301819055506200016483620001a5640100000000026401000000009004565b83816000018190525042816020018181525050438160400181815250506200019b81620002d8640100000000026401000000009004565b50505050620007d7565b600073ffffffffffffffffffffffffffffffffffffffff168173ffffffffffffffffffffffffffffffffffffffff16141515156200021a576040517f08c379a00000000000000000000000000000000000000000000000000000000081526004016200021190620006be565b60405180910390fd5b8073ffffffffffffffffffffffffffffffffffffffff166000809054906101000a900473ffffffffffffffffffffffffffffffffffffffff1673ffffffffffffffffffffffffffffffffffffffff167f8be0079c531659141344cd1fd0a4f28419497f9722a3daafe3b4186f6b6457e060405160405180910390a3806000806101000a81548173ffffffffffffffffffffffffffffffffffffffff021916908373ffffffffffffffffffffffffffffffffffffffff16021790555050565b600781908060018154018082558091505090600182039060005260206000209060030201600090919290919091506000820151816000019080519060200190620003249291906200042d565b5060208201518160010155604082015181600201555050507f69a49b7d55d0363d4054f74cd6b1dd9ba7f6d3a1bd676ad4fc957d874a6ca08b308260000151836020015160405162000379939291906200067a565b60405180910390a150565b6060604051908101604052806060815260200160008152602001600081525090565b828054600181600116156101000203166002900490600052602060002090601f016020900481019282601f10620003e957805160ff19168380011785556200041a565b828001600101855582156200041a579182015b8281111562000419578251825591602001919060010190620003fc565b5b509050620004299190620004b4565b5090565b828054600181600116156101000203166002900490600052602060002090601f016020900481019282601f106200047057805160ff1916838001178555620004a1565b82800160010185558215620004a1579182015b82811115620004a057825182559160200191906001019062000483565b5b509050620004b09190620004b4565b5090565b620004d991905b80821115620004d5576000816000905550600101620004bb565b5090565b90565b6000620004ea825162000770565b905092915050565b600082601f83011215156200050657600080fd5b81516200051d62000517826200070e565b620006e0565b915080825260208301602083018583830111156200053a57600080fd5b6200054783828462000790565b50505092915050565b6000806000606084860312156200056657600080fd5b600084015167ffffffffffffffff8111156200058157600080fd5b6200058f86828701620004f2565b9350506020620005a286828701620004dc565b9250506040620005b586828701620004dc565b9150509250925092565b620005ca8162000746565b82525050565b6000620005dd826200073b565b808452620005f381602086016020860162000790565b620005fe81620007c6565b602085010191505092915050565b6000602f82527f546865206e6577206f776e65722063616e6e6f7420626520746865206465666160208301527f756c7420616464726573732030783000000000000000000000000000000000006040830152606082019050919050565b620006748162000766565b82525050565b6000606082019050620006916000830186620005bf565b8181036020830152620006a58185620005d0565b9050620006b6604083018462000669565b949350505050565b60006020820190508181036000830152620006d9816200060c565b9050919050565b6000604051905081810181811067ffffffffffffffff821117156200070457600080fd5b8060405250919050565b600067ffffffffffffffff8211156200072657600080fd5b601f19601f8301169050602081019050919050565b600081519050919050565b600073ffffffffffffffffffffffffffffffffffffffff82169050919050565b6000819050919050565b600073ffffffffffffffffffffffffffffffffffffffff82169050919050565b60005b83811015620007b057808201518184015260208101905062000793565b83811115620007c0576000848401525b50505050565b6000601f19601f8301169050919050565b61261680620007e76000396000f3006080604052600436106100af576000357c0100000000000000000000000000000000000000000000000000000000900463ffffffff168063044b3827146100b45780630e9bc992146100df57806316947c581461010a5780631f2852d6146101335780633bc5de301461015c578063715018a6146101875780638da5cb5b1461019e578063b9d8b583146101c9578063c28b3a81146101f4578063e2351daf1461021d578063f2fde38b14610248575b600080fd5b3480156100c057600080fd5b506100c9610271565b6040516100d69190612331565b60405180910390f35b3480156100eb57600080fd5b506100f4610387565b6040516101019190612375565b60405180910390f35b34801561011657600080fd5b50610131600480360361012c9190810190611b7e565b610725565b005b34801561013f57600080fd5b5061015a60048036036101559190810190611b3d565b610993565b005b34801561016857600080fd5b50610171610acf565b60405161017e9190612419565b60405180910390f35b34801561019357600080fd5b5061019c610d4b565b005b3480156101aa57600080fd5b506101b3610e83565b6040516101c09190612246565b60405180910390f35b3480156101d557600080fd5b506101de610ea8565b6040516101eb9190612397565b60405180910390f35b34801561020057600080fd5b5061021b60048036036102169190810190611b7e565b610fbe565b005b34801561022957600080fd5b50610232611151565b60405161023f9190612353565b60405180910390f35b34801561025457600080fd5b5061026f600480360361026a9190810190611b14565b6114ef565b005b60606008805480602002602001604051908101604052809291908181526020016000905b8282101561037e578382906000526020600020906003020160606040519081016040529081600082018054600181600116156101000203166002900480601f0160208091040260200160405190810160405280929190818152602001828054600181600116156101000203166002900480156103525780601f1061032757610100808354040283529160200191610352565b820191906000526020600020905b81548152906001019060200180831161033557829003601f168201915b505050505081526020016001820154815260200160028201548152505081526020019060010190610295565b50505050905090565b60606009805480602002602001604051908101604052809291908181526020016000905b8282101561071c578382906000526020600020906007020160e06040519081016040529081600082018054600181600116156101000203166002900480601f0160208091040260200160405190810160405280929190818152602001828054600181600116156101000203166002900480156104685780601f1061043d57610100808354040283529160200191610468565b820191906000526020600020905b81548152906001019060200180831161044b57829003601f168201915b50505050508152602001600182018054600181600116156101000203166002900480601f01602080910402602001604051908101604052809291908181526020018280546001816001161561010002031660029004801561050a5780601f106104df5761010080835404028352916020019161050a565b820191906000526020600020905b8154815290600101906020018083116104ed57829003601f168201915b50505050508152602001600282018054600181600116156101000203166002900480601f0160208091040260200160405190810160405280929190818152602001828054600181600116156101000203166002900480156105ac5780601f10610581576101008083540402835291602001916105ac565b820191906000526020600020905b81548152906001019060200180831161058f57829003601f168201915b50505050508152602001600382018054600181600116156101000203166002900480601f01602080910402602001604051908101604052809291908181526020018280546001816001161561010002031660029004801561064e5780601f106106235761010080835404028352916020019161064e565b820191906000526020600020905b81548152906001019060200180831161063157829003601f168201915b50505050508152602001600482018054600181600116156101000203166002900480601f0160208091040260200160405190810160405280929190818152602001828054600181600116156101000203166002900480156106f05780601f106106c5576101008083540402835291602001916106f0565b820191906000526020600020905b8154815290600101906020018083116106d357829003601f168201915b5050505050815260200160058201548152602001600682015481525050815260200190600101906103ab565b50505050905090565b61072d611898565b6000809054906101000a900473ffffffffffffffffffffffffffffffffffffffff1673ffffffffffffffffffffffffffffffffffffffff163373ffffffffffffffffffffffffffffffffffffffff161415156107be576040517f08c379a00000000000000000000000000000000000000000000000000000000081526004016107b5906123b9565b60405180910390fd5b60001515600260040160149054906101000a900460ff161515141515610819576040517f08c379a0000000000000000000000000000000000000000000000000000000008152600401610810906123f9565b60405180910390fd5b858160000181905250848160200181905250838160400181905250828160600181905250818160800181905250428160a0018181525050438160c0018181525050600a819080600181540180825580915050906001820390600052602060002090600702016000909192909190915060008201518160000190805190602001906108a49291906118d6565b5060208201518160010190805190602001906108c19291906118d6565b5060408201518160020190805190602001906108de9291906118d6565b5060608201518160030190805190602001906108fb9291906118d6565b5060808201518160040190805190602001906109189291906118d6565b5060a0820151816005015560c082015181600601555050507f75d0e55e2b0f81c59701404c4f8c99b70f56aa7b7c9392bcd253bdeb80e0b7e730826000015183602001518460400151856060015186608001518760a001516040516109839796959493929190612261565b60405180910390a1505050505050565b61099b611956565b6000809054906101000a900473ffffffffffffffffffffffffffffffffffffffff1673ffffffffffffffffffffffffffffffffffffffff163373ffffffffffffffffffffffffffffffffffffffff16141515610a2c576040517f08c379a0000000000000000000000000000000000000000000000000000000008152600401610a23906123b9565b60405180910390fd5b60001515600260040160149054906101000a900460ff161515141515610a87576040517f08c379a0000000000000000000000000000000000000000000000000000000008152600401610a7e906123f9565b60405180910390fd5b6001600260040160146101000a81548160ff0219169083151502179055508181600001819052504281602001818152505043816040018181525050610acb8161158c565b5050565b610ad7611978565b600260c06040519081016040529081600082018054600181600116156101000203166002900480601f016020809104026020016040519081016040528092919081815260200182805460018160011615610100020316600290048015610b7e5780601f10610b5357610100808354040283529160200191610b7e565b820191906000526020600020905b815481529060010190602001808311610b6157829003601f168201915b50505050508152602001600182018054600181600116156101000203166002900480601f016020809104026020016040519081016040528092919081815260200182805460018160011615610100020316600290048015610c205780601f10610bf557610100808354040283529160200191610c20565b820191906000526020600020905b815481529060010190602001808311610c0357829003601f168201915b50505050508152602001600282018054600181600116156101000203166002900480601f016020809104026020016040519081016040528092919081815260200182805460018160011615610100020316600290048015610cc25780601f10610c9757610100808354040283529160200191610cc2565b820191906000526020600020905b815481529060010190602001808311610ca557829003601f168201915b50505050508152602001600382015481526020016004820160009054906101000a900473ffffffffffffffffffffffffffffffffffffffff1673ffffffffffffffffffffffffffffffffffffffff1673ffffffffffffffffffffffffffffffffffffffff1681526020016004820160149054906101000a900460ff161515151581525050905090565b6000809054906101000a900473ffffffffffffffffffffffffffffffffffffffff1673ffffffffffffffffffffffffffffffffffffffff163373ffffffffffffffffffffffffffffffffffffffff16141515610ddc576040517f08c379a0000000000000000000000000000000000000000000000000000000008152600401610dd3906123b9565b60405180910390fd5b6000809054906101000a900473ffffffffffffffffffffffffffffffffffffffff1673ffffffffffffffffffffffffffffffffffffffff167ff8df31144d9c2f0f6b59d69b8b98abd5459d07f2742c4df920b25aae33c6482060405160405180910390a260008060006101000a81548173ffffffffffffffffffffffffffffffffffffffff021916908373ffffffffffffffffffffffffffffffffffffffff160217905550565b6000809054906101000a900473ffffffffffffffffffffffffffffffffffffffff1681565b60606007805480602002602001604051908101604052809291908181526020016000905b82821015610fb5578382906000526020600020906003020160606040519081016040529081600082018054600181600116156101000203166002900480601f016020809104026020016040519081016040528092919081815260200182805460018160011615610100020316600290048015610f895780601f10610f5e57610100808354040283529160200191610f89565b820191906000526020600020905b815481529060010190602001808311610f6c57829003601f168201915b505050505081526020016001820154815260200160028201548152505081526020019060010190610ecc565b50505050905090565b610fc66119c7565b6000809054906101000a900473ffffffffffffffffffffffffffffffffffffffff1673ffffffffffffffffffffffffffffffffffffffff163373ffffffffffffffffffffffffffffffffffffffff16141515611057576040517f08c379a000000000000000000000000000000000000000000000000000000000815260040161104e906123b9565b60405180910390fd5b60001515600260040160149054906101000a900460ff1615151415156110b2576040517f08c379a00000000000000000000000000000000000000000000000000000000081526004016110a9906123f9565b60405180910390fd5b858160000181905250848160200181905250838160400181905250828160600181905250818160800181905250428160a0018181525050438160c0018181525050856002600001908051906020019061110c929190611a05565b508460026001019080519060200190611126929190611a05565b508160028001908051906020019061113f929190611a05565b5061114981611634565b505050505050565b6060600a805480602002602001604051908101604052809291908181526020016000905b828210156114e6578382906000526020600020906007020160e06040519081016040529081600082018054600181600116156101000203166002900480601f0160208091040260200160405190810160405280929190818152602001828054600181600116156101000203166002900480156112325780601f1061120757610100808354040283529160200191611232565b820191906000526020600020905b81548152906001019060200180831161121557829003601f168201915b50505050508152602001600182018054600181600116156101000203166002900480601f0160208091040260200160405190810160405280929190818152602001828054600181600116156101000203166002900480156112d45780601f106112a9576101008083540402835291602001916112d4565b820191906000526020600020905b8154815290600101906020018083116112b757829003601f168201915b50505050508152602001600282018054600181600116156101000203166002900480601f0160208091040260200160405190810160405280929190818152602001828054600181600116156101000203166002900480156113765780601f1061134b57610100808354040283529160200191611376565b820191906000526020600020905b81548152906001019060200180831161135957829003601f168201915b50505050508152602001600382018054600181600116156101000203166002900480601f0160208091040260200160405190810160405280929190818152602001828054600181600116156101000203166002900480156114185780601f106113ed57610100808354040283529160200191611418565b820191906000526020600020905b8154815290600101906020018083116113fb57829003601f168201915b50505050508152602001600482018054600181600116156101000203166002900480601f0160208091040260200160405190810160405280929190818152602001828054600181600116156101000203166002900480156114ba5780601f1061148f576101008083540402835291602001916114ba565b820191906000526020600020905b81548152906001019060200180831161149d57829003601f168201915b505050505081526020016005820154815260200160068201548152505081526020019060010190611175565b50505050905090565b6000809054906101000a900473ffffffffffffffffffffffffffffffffffffffff1673ffffffffffffffffffffffffffffffffffffffff163373ffffffffffffffffffffffffffffffffffffffff16141515611580576040517f08c379a0000000000000000000000000000000000000000000000000000000008152600401611577906123b9565b60405180910390fd5b61158981611768565b50565b6008819080600181540180825580915050906001820390600052602060002090600302016000909192909190915060008201518160000190805190602001906115d69291906118d6565b5060208201518160010155604082015181600201555050507fa821e3633a53ec7cf6887da61b4a7b2b5cdedbbd5980ad8f05aac54368faeca93082600001518360200151604051611629939291906122f3565b60405180910390a150565b60098190806001815401808255809150509060018203906000526020600020906007020160009091929091909150600082015181600001908051906020019061167e9291906118d6565b50602082015181600101908051906020019061169b9291906118d6565b5060408201518160020190805190602001906116b89291906118d6565b5060608201518160030190805190602001906116d59291906118d6565b5060808201518160040190805190602001906116f29291906118d6565b5060a0820151816005015560c082015181600601555050507fdac5500cff3f509dad96fb319377149734275664c1ad577ed3216bb108972cc530826000015183602001518460400151856060015186608001518760a0015160405161175d9796959493929190612261565b60405180910390a150565b600073ffffffffffffffffffffffffffffffffffffffff168173ffffffffffffffffffffffffffffffffffffffff16141515156117da576040517f08c379a00000000000000000000000000000000000000000000000000000000081526004016117d1906123d9565b60405180910390fd5b8073ffffffffffffffffffffffffffffffffffffffff166000809054906101000a900473ffffffffffffffffffffffffffffffffffffffff1673ffffffffffffffffffffffffffffffffffffffff167f8be0079c531659141344cd1fd0a4f28419497f9722a3daafe3b4186f6b6457e060405160405180910390a3806000806101000a81548173ffffffffffffffffffffffffffffffffffffffff021916908373ffffffffffffffffffffffffffffffffffffffff16021790555050565b60e060405190810160405280606081526020016060815260200160608152602001606081526020016060815260200160008152602001600081525090565b828054600181600116156101000203166002900490600052602060002090601f016020900481019282601f1061191757805160ff1916838001178555611945565b82800160010185558215611945579182015b82811115611944578251825591602001919060010190611929565b5b5090506119529190611a85565b5090565b6060604051908101604052806060815260200160008152602001600081525090565b60c06040519081016040528060608152602001606081526020016060815260200160008152602001600073ffffffffffffffffffffffffffffffffffffffff1681526020016000151581525090565b60e060405190810160405280606081526020016060815260200160608152602001606081526020016060815260200160008152602001600081525090565b828054600181600116156101000203166002900490600052602060002090601f016020900481019282601f10611a4657805160ff1916838001178555611a74565b82800160010185558215611a74579182015b82811115611a73578251825591602001919060010190611a58565b5b509050611a819190611a85565b5090565b611aa791905b80821115611aa3576000816000905550600101611a8b565b5090565b90565b6000611ab68235612569565b905092915050565b600082601f8301121515611ad157600080fd5b8135611ae4611adf82612468565b61243b565b91508082526020830160208301858383011115611b0057600080fd5b611b0b838284612589565b50505092915050565b600060208284031215611b2657600080fd5b6000611b3484828501611aaa565b91505092915050565b600060208284031215611b4f57600080fd5b600082013567ffffffffffffffff811115611b6957600080fd5b611b7584828501611abe565b91505092915050565b600080600080600060a08688031215611b9657600080fd5b600086013567ffffffffffffffff811115611bb057600080fd5b611bbc88828901611abe565b955050602086013567ffffffffffffffff811115611bd957600080fd5b611be588828901611abe565b945050604086013567ffffffffffffffff811115611c0257600080fd5b611c0e88828901611abe565b935050606086013567ffffffffffffffff811115611c2b57600080fd5b611c3788828901611abe565b925050608086013567ffffffffffffffff811115611c5457600080fd5b611c6088828901611abe565b9150509295509295909350565b611c7681612533565b82525050565b6000611c87826124c8565b80845260208401935083602082028501611ca085612494565b60005b84811015611cd9578383038852611cbb838351611f90565b9250611cc6826124ff565b9150602088019750600181019050611ca3565b508196508694505050505092915050565b6000611cf5826124d3565b80845260208401935083602082028501611d0e856124a1565b60005b84811015611d47578383038852611d29838351612077565b9250611d348261250c565b9150602088019750600181019050611d11565b508196508694505050505092915050565b6000611d63826124de565b80845260208401935083602082028501611d7c856124ae565b60005b84811015611db5578383038852611d9783835161212f565b9250611da282612519565b9150602088019750600181019050611d7f565b508196508694505050505092915050565b6000611dd1826124e9565b80845260208401935083602082028501611dea856124bb565b60005b84811015611e23578383038852611e058383516121e7565b9250611e1082612526565b9150602088019750600181019050611ded565b508196508694505050505092915050565b611e3d81612553565b82525050565b6000611e4e826124f4565b808452611e62816020860160208601612598565b611e6b816125cb565b602085010191505092915050565b6000602382527f546865206d6573736167652073656e646572206973206e6f7420746865206f7760208301527f6e657200000000000000000000000000000000000000000000000000000000006040830152606082019050919050565b6000602f82527f546865206e6577206f776e65722063616e6e6f7420626520746865206465666160208301527f756c7420616464726573732030783000000000000000000000000000000000006040830152606082019050919050565b6000602382527f546869732064657669636520697320616c72656164792064657265676973746560208301527f72656400000000000000000000000000000000000000000000000000000000006040830152606082019050919050565b60006060830160008301518482036000860152611fad8282611e43565b9150506020830151611fc26020860182612237565b506040830151611fd56040860182612237565b508091505092915050565b600060c0830160008301518482036000860152611ffd8282611e43565b915050602083015184820360208601526120178282611e43565b915050604083015184820360408601526120318282611e43565b91505060608301516120466060860182612237565b5060808301516120596080860182611c6d565b5060a083015161206c60a0860182611e34565b508091505092915050565b600060e08301600083015184820360008601526120948282611e43565b915050602083015184820360208601526120ae8282611e43565b915050604083015184820360408601526120c88282611e43565b915050606083015184820360608601526120e28282611e43565b915050608083015184820360808601526120fc8282611e43565b91505060a083015161211160a0860182612237565b5060c083015161212460c0860182612237565b508091505092915050565b600060e083016000830151848203600086015261214c8282611e43565b915050602083015184820360208601526121668282611e43565b915050604083015184820360408601526121808282611e43565b9150506060830151848203606086015261219a8282611e43565b915050608083015184820360808601526121b48282611e43565b91505060a08301516121c960a0860182612237565b5060c08301516121dc60c0860182612237565b508091505092915050565b600060608301600083015184820360008601526122048282611e43565b91505060208301516122196020860182612237565b50604083015161222c6040860182612237565b508091505092915050565b6122408161255f565b82525050565b600060208201905061225b6000830184611c6d565b92915050565b600060e082019050612276600083018a611c6d565b81810360208301526122888189611e43565b9050818103604083015261229c8188611e43565b905081810360608301526122b08187611e43565b905081810360808301526122c48186611e43565b905081810360a08301526122d88185611e43565b90506122e760c0830184612237565b98975050505050505050565b60006060820190506123086000830186611c6d565b818103602083015261231a8185611e43565b90506123296040830184612237565b949350505050565b6000602082019050818103600083015261234b8184611c7c565b905092915050565b6000602082019050818103600083015261236d8184611cea565b905092915050565b6000602082019050818103600083015261238f8184611d58565b905092915050565b600060208201905081810360008301526123b18184611dc6565b905092915050565b600060208201905081810360008301526123d281611e79565b9050919050565b600060208201905081810360008301526123f281611ed6565b9050919050565b6000602082019050818103600083015261241281611f33565b9050919050565b600060208201905081810360008301526124338184611fe0565b905092915050565b6000604051905081810181811067ffffffffffffffff8211171561245e57600080fd5b8060405250919050565b600067ffffffffffffffff82111561247f57600080fd5b601f19601f8301169050602081019050919050565b6000602082019050919050565b6000602082019050919050565b6000602082019050919050565b6000602082019050919050565b600081519050919050565b600081519050919050565b600081519050919050565b600081519050919050565b600081519050919050565b6000602082019050919050565b6000602082019050919050565b6000602082019050919050565b6000602082019050919050565b600073ffffffffffffffffffffffffffffffffffffffff82169050919050565b60008115159050919050565b6000819050919050565b600073ffffffffffffffffffffffffffffffffffffffff82169050919050565b82818337600083830152505050565b60005b838110156125b657808201518184015260208101905061259b565b838111156125c5576000848401525b50505050565b6000601f19601f83011690509190505600a265627a7a723058207fcac90fdaf2c5eb5de02b712ef3045a3bbcc7b49ae7d66d5458a76ef0caa2916c6578706572696d656e74616cf50037",
  "source": "pragma solidity ^0.4.25;\npragma experimental ABIEncoderV2;\n\nimport \"./DeviceFactoryInterface.sol\";\nimport \"./Ownable.sol\";\n\n\n/**\n * @title Ereuse Device basic implementation\n */\n\ncontract DepositDevice is Ownable {\n    // parameters -----------------------------------------------------------\n    DeviceFactoryInterface factory;\n\n    // types ----------------------------------------------------------------\n    //Struct that mantains the basic values of the device\n    struct DevData {\n        string chid;\n        string phid;\n        string issuerID;\n        uint registerDate;\n        address owner;\n        bool deregistered;\n    }\n\n    struct RegisterProofData {\n        string chid;\n        uint timestamp;\n        uint blockNumber;\n    }\n\n    struct DeRegisterProofData {\n        string chid;\n        uint timestamp;\n        uint blockNumber;\n    }\n\n    struct IssueProofData {\n        string chid;\n        string phid;\n        string documentID;\n        string documentSignature;\n        string issuerID;\n        uint timestamp;\n        uint blockNumber;\n    }\n\n    // struct TransferProofData {\n    //     address from;\n    //     address to;\n    //     string from_registrant;\n    //     string to_registrant;\n    //     uint timestamp;\n    //     uint blockNumber;\n    // }\n\n    // struct RecycleProofData {\n    //     uint timestamp;\n    //     uint blockNumber;\n    // }\n\n    struct GenericProofData {\n        string chid;\n        string issuerID;\n        string documentID;\n        string documentSignature;\n        string documentType;\n        uint timestamp;\n        uint blockNumber;\n    }\n\n    // variables -------------------------------------------------------------\n    DevData data;\n    RegisterProofData[] registerProofs;\n    DeRegisterProofData[] deRegisterProofs; //shouldnt be a vector? it is for simplicity?\n    IssueProofData[] issueProofs;\n    //TransferProofData[] transferProofs;\n    //RecycleProofData[] recycleProofs;\n    GenericProofData[] genericProofs;\n\n    // events ----------------------------------------------------------------\n    event proofGenerated(bytes32 indexed proofHash);\n    event registerProof(address deviceAddress, string chid, uint timestamp);\n    event deRegisterProof(address deviceAddress, string chid, uint timestamp);\n    event issueProof(address deviceAddress, string chid, string phid, string documentID, string documentSignature, string issuerID, uint timestamp);\n    //event transferProof(address supplierAddress, address receiverAddress, address deviceAddress, uint timestamp);\n    //event recycleProof(address userAddress, address deviceAddress, uint timestamp); \n    event genericProof(address deviceAddress, string chid, string issuerID, string documentID, string documentSignature, string documentType, uint timestamp);  \n    //event DeviceTransferred(address deviceAddress, address new_owner, string new_registrant);\n    event DeviceRecycled(address deviceAddress);\n\n    constructor(\n        string _chid,\n        address _sender,\n        address _factory\n    ) public {\n        factory = DeviceFactoryInterface(_factory);\n        data.deregistered = false;\n        data.owner = _sender;\n        data.chid = _chid;\n        data.registerDate = block.timestamp;\n        _transferOwnership(_sender);\n\n        RegisterProofData memory proof_data;\n        proof_data.chid = _chid;\n        proof_data.timestamp = block.timestamp;\n        proof_data.blockNumber = block.number;\n        generateRegisterProof(proof_data);\n    }\n\n\n    modifier registered() {\n    require(data.deregistered == false, \"This device is already deregistered\");\n    _;\n  }\n\n    function generateRegisterProof(RegisterProofData memory proof_data) internal {\n        registerProofs.push(proof_data);\n        emit registerProof(address(this), proof_data.chid, proof_data.timestamp);\n    }\n\n    function generateDeRegisterProof(DeRegisterProofData memory proof_data) internal {\n        deRegisterProofs.push(proof_data);\n        emit deRegisterProof(address(this), proof_data.chid, proof_data.timestamp);\n    }\n    \n    function generateIssueProof(IssueProofData memory proof_data) internal {\n        issueProofs.push(proof_data);\n        emit issueProof(address(this), proof_data.chid, proof_data.phid, proof_data.documentID, proof_data.documentSignature, proof_data.issuerID, proof_data.timestamp);\n    }\n\n    //function emitGenericProof(GenericProofData memory proof_data) internal {\n    //    genericProofs.push(proof_data);\n    //    emit genericProof(address(this), proof_data.chid, proof_data.issuerID, proof_data.documentID, proof_data.documentSignature, proof_data.documentType, proof_data.timestamp);\n    //}\n\n    function issuePassport(string _chid, string _phid, string _documentID, string _documentSignature, string _issuerID) public onlyOwner registered{\n        IssueProofData memory proof_data;\n        proof_data.chid = _chid;\n        proof_data.phid = _phid;\n        proof_data.documentID = _documentID;\n        proof_data.documentSignature = _documentSignature;\n        proof_data.issuerID = _issuerID;\n        proof_data.timestamp = block.timestamp;\n        proof_data.blockNumber = block.number;\n\n        data.chid = _chid;\n        data.phid = _phid;\n        data.issuerID = _issuerID;\n\n        generateIssueProof(proof_data);\n    }\n    \n    function generateGenericProof(string _deviceCHID, string _issuerID, string _documentID, string _documentSignature, string _documentType) public onlyOwner registered{\n        GenericProofData memory proof_data;\n        proof_data.chid = _deviceCHID;\n        proof_data.issuerID = _issuerID;\n        proof_data.documentID = _documentID;\n        proof_data.documentSignature = _documentSignature;\n        proof_data.documentType = _documentType;\n        proof_data.timestamp = block.timestamp;\n        proof_data.blockNumber = block.number;\n\n        //emitGenericProof(proof_data);\n        genericProofs.push(proof_data);\n        emit genericProof(address(this), proof_data.chid, proof_data.issuerID, proof_data.documentID, proof_data.documentSignature, proof_data.documentType, proof_data.timestamp);\n    }\n\n    function deRegisterDevice(string _deviceCHID) public onlyOwner registered{\n        data.deregistered = true;\n\n        DeRegisterProofData memory proof_data;\n        proof_data.chid = _deviceCHID;\n        proof_data.timestamp = block.timestamp;\n        proof_data.blockNumber = block.number;\n        generateDeRegisterProof(proof_data);\n    }\n\n    // function issueDID(string _did, string _registerID, string _documentSignature) public onlyOwner{\n    //     IssueProofData memory proof_data;\n    //     proof_data.did = _did;\n    //     proof_data.registerID = _registerID;\n    //     proof_data.documentSignature = _documentSignature;\n    //     proof_data.timestamp = block.timestamp;\n    //     proof_data.blockNumber = block.number;\n\n    //     data.did = _did;\n    //     data.registerID = _registerID;\n\n    //     generateIssueProof(proof_data);\n    // }\n\n    function getData() public view returns (DevData _data) {\n        return data;\n    }\n\n    function getRegisterProofs() public view returns (RegisterProofData[] _data) {\n        return registerProofs;\n    }\n\n    function getIssueProofs() public view returns (IssueProofData[] _data){\n        return issueProofs;\n    }\n\n    function getGenericProofs() public view returns (GenericProofData[] _data){\n        return genericProofs;\n    }\n\n    function getDeRegisterProofs() public view returns (DeRegisterProofData[] _data) {\n        return deRegisterProofs;\n    }\n\n\n    //  function getTrasferProofs() public view returns (TransferProofData[] _data){\n    //      return transferProofs;\n    //  }\n\n    //  function getRecycleProofs() public view returns (RecycleProofData[] _data){\n    //      return recycleProofs;\n    //  }\n\n    // function generateTransferProof(TransferProofData memory proof_data) internal {\n    //     transferProofs.push(proof_data);\n    //     emit transferProof(proof_data.from, proof_data.to, address(this), proof_data.timestamp);\n    // }\n\n    //API DONE\n    // function transferDevice(address _to, string _new_registrant)\n    //     public\n    //     onlyOwner\n    // {\n    //     TransferProofData memory proof_data;\n    //     proof_data.from = data.owner;\n    //     proof_data.to = _to;\n    //     proof_data.from_registrant = data.registrantData;\n    //     proof_data.to_registrant = _new_registrant;\n    //     proof_data.timestamp = block.timestamp;\n    //     proof_data.blockNumber = block.number;\n\n    //     factory.transfer(data.owner, _to);\n    //     data.owner = _to;\n    //     data.registrantData = _new_registrant;\n    //     if (owner != _to) transferOwnership(_to);\n\n    //     generateTransferProof(proof_data);\n\n    //     emit DeviceTransferred(address(this), data.owner, data.registrantData);\n    // }\n\n    // function generateRecycleProof(RecycleProofData memory proof_data) internal{\n    //     recycleProofs.push(proof_data);\n    //     emit recycleProof(data.owner, address(this), proof_data.timestamp);\n    // }\n\n    //API DONE\n    // function recycle() public onlyOwner{\n    //     factory.recycle(msg.sender);\n\n    //     RecycleProofData memory proof_data;\n    //     proof_data.timestamp = block.timestamp;\n    //     proof_data.blockNumber = block.number;\n\n    //     generateRecycleProof(proof_data);\n\n    //     emit DeviceRecycled(address(this));\n    // }\n\n\n\n}",
  "sourcePath": "/home/marc/Documents/DSG/trublo_contracts_api/contracts/DepositDevice.sol",
  "compiler": {
    "name": "solc",
    "version": "0.4.26+commit.4563c3fc.Emscripten.clang"
  },
  "schemaVersion": "3.4.7",
  "updatedAt": "2022-04-26T11:38:50.584Z",
  "devdoc": {
    "methods": {
      "renounceOwnership()": {
        "details": "Allows the current owner to relinquish control of the contract."
      },
      "transferOwnership(address)": {
        "details": "Allows the current owner to transfer control of the contract to a newOwner.",
        "params": {
          "_newOwner": "The address to transfer ownership to."
        }
      }
    },
    "title": "Ereuse Device basic implementation"
  },
  "userdoc": {
    "methods": {
      "renounceOwnership()": {
        "notice": "Renouncing to ownership will leave the contract without an owner. It will not be possible to call the functions with the `onlyOwner` modifier anymore."
      }
    }
  }
}