{
  "contractName": "DepositDevice",
  "abi": [
    {
      "constant": false,
      "inputs": [
        {
          "name": "_address",
          "type": "address"
        }
      ],
      "name": "setTA",
      "outputs": [],
      "payable": false,
      "stateMutability": "nonpayable",
      "type": "function"
    },
    {
      "constant": false,
      "inputs": [
        {
          "name": "_address",
          "type": "address"
        }
      ],
      "name": "invalidateOperator",
      "outputs": [],
      "payable": false,
      "stateMutability": "nonpayable",
      "type": "function"
    },
    {
      "constant": false,
      "inputs": [
        {
          "name": "_address",
          "type": "address"
        }
      ],
      "name": "invalidateWitness",
      "outputs": [],
      "payable": false,
      "stateMutability": "nonpayable",
      "type": "function"
    },
    {
      "constant": false,
      "inputs": [
        {
          "name": "_address",
          "type": "address"
        }
      ],
      "name": "registerOperator",
      "outputs": [],
      "payable": false,
      "stateMutability": "nonpayable",
      "type": "function"
    },
    {
      "constant": true,
      "inputs": [
        {
          "name": "_address",
          "type": "address"
        }
      ],
      "name": "checkIfOperator",
      "outputs": [
        {
          "name": "result",
          "type": "bool"
        }
      ],
      "payable": false,
      "stateMutability": "view",
      "type": "function"
    },
    {
      "constant": true,
      "inputs": [
        {
          "name": "_address",
          "type": "address"
        }
      ],
      "name": "checkIfWitness",
      "outputs": [
        {
          "name": "result",
          "type": "bool"
        }
      ],
      "payable": false,
      "stateMutability": "view",
      "type": "function"
    },
    {
      "constant": false,
      "inputs": [
        {
          "name": "_address",
          "type": "address"
        }
      ],
      "name": "changeTA",
      "outputs": [],
      "payable": false,
      "stateMutability": "nonpayable",
      "type": "function"
    },
    {
      "constant": false,
      "inputs": [],
      "name": "renounceOwnership",
      "outputs": [],
      "payable": false,
      "stateMutability": "nonpayable",
      "type": "function"
    },
    {
      "constant": false,
      "inputs": [
        {
          "name": "_address",
          "type": "address"
        }
      ],
      "name": "registerWitness",
      "outputs": [],
      "payable": false,
      "stateMutability": "nonpayable",
      "type": "function"
    },
    {
      "constant": true,
      "inputs": [],
      "name": "owner",
      "outputs": [
        {
          "name": "",
          "type": "address"
        }
      ],
      "payable": false,
      "stateMutability": "view",
      "type": "function"
    },
    {
      "constant": false,
      "inputs": [
        {
          "name": "_address",
          "type": "address"
        }
      ],
      "name": "invalidateVerifier",
      "outputs": [],
      "payable": false,
      "stateMutability": "nonpayable",
      "type": "function"
    },
    {
      "constant": false,
      "inputs": [
        {
          "name": "_address",
          "type": "address"
        }
      ],
      "name": "registerVerifier",
      "outputs": [],
      "payable": false,
      "stateMutability": "nonpayable",
      "type": "function"
    },
    {
      "constant": true,
      "inputs": [
        {
          "name": "_address",
          "type": "address"
        }
      ],
      "name": "checkIfVerifier",
      "outputs": [
        {
          "name": "result",
          "type": "bool"
        }
      ],
      "payable": false,
      "stateMutability": "view",
      "type": "function"
    },
    {
      "constant": false,
      "inputs": [
        {
          "name": "_newOwner",
          "type": "address"
        }
      ],
      "name": "transferOwnership",
      "outputs": [],
      "payable": false,
      "stateMutability": "nonpayable",
      "type": "function"
    },
    {
      "constant": true,
      "inputs": [],
      "name": "checkTA",
      "outputs": [
        {
          "name": "result",
          "type": "address"
        }
      ],
      "payable": false,
      "stateMutability": "view",
      "type": "function"
    },
    {
      "inputs": [
        {
          "name": "_chid",
          "type": "string"
        },
        {
          "name": "_sender",
          "type": "address"
        },
        {
          "name": "_factory",
          "type": "address"
        }
      ],
      "payable": false,
      "stateMutability": "nonpayable",
      "type": "constructor"
    },
    {
      "anonymous": false,
      "inputs": [
        {
          "indexed": true,
          "name": "proofHash",
          "type": "bytes32"
        }
      ],
      "name": "proofGenerated",
      "type": "event"
    },
    {
      "anonymous": false,
      "inputs": [
        {
          "indexed": false,
          "name": "deviceAddress",
          "type": "address"
        },
        {
          "indexed": false,
          "name": "chid",
          "type": "string"
        },
        {
          "indexed": false,
          "name": "timestamp",
          "type": "uint256"
        }
      ],
      "name": "registerProof",
      "type": "event"
    },
    {
      "anonymous": false,
      "inputs": [
        {
          "indexed": false,
          "name": "deviceAddress",
          "type": "address"
        },
        {
          "indexed": false,
          "name": "chid",
          "type": "string"
        },
        {
          "indexed": false,
          "name": "timestamp",
          "type": "uint256"
        }
      ],
      "name": "deRegisterProof",
      "type": "event"
    },
    {
      "anonymous": false,
      "inputs": [
        {
          "indexed": false,
          "name": "deviceAddress",
          "type": "address"
        },
        {
          "indexed": false,
          "name": "chid",
          "type": "string"
        },
        {
          "indexed": false,
          "name": "phid",
          "type": "string"
        },
        {
          "indexed": false,
          "name": "documentID",
          "type": "string"
        },
        {
          "indexed": false,
          "name": "documentSignature",
          "type": "string"
        },
        {
          "indexed": false,
          "name": "issuerID",
          "type": "string"
        },
        {
          "indexed": false,
          "name": "timestamp",
          "type": "uint256"
        }
      ],
      "name": "issueProof",
      "type": "event"
    },
    {
      "anonymous": false,
      "inputs": [
        {
          "indexed": false,
          "name": "deviceAddress",
          "type": "address"
        },
        {
          "indexed": false,
          "name": "chid",
          "type": "string"
        },
        {
          "indexed": false,
          "name": "issuerID",
          "type": "string"
        },
        {
          "indexed": false,
          "name": "documentID",
          "type": "string"
        },
        {
          "indexed": false,
          "name": "documentSignature",
          "type": "string"
        },
        {
          "indexed": false,
          "name": "documentType",
          "type": "string"
        },
        {
          "indexed": false,
          "name": "timestamp",
          "type": "uint256"
        }
      ],
      "name": "genericProof",
      "type": "event"
    },
    {
      "anonymous": false,
      "inputs": [
        {
          "indexed": false,
          "name": "deviceAddress",
          "type": "address"
        }
      ],
      "name": "DeviceRecycled",
      "type": "event"
    },
    {
      "anonymous": false,
      "inputs": [
        {
          "indexed": true,
          "name": "previousOwner",
          "type": "address"
        }
      ],
      "name": "OwnershipRenounced",
      "type": "event"
    },
    {
      "anonymous": false,
      "inputs": [
        {
          "indexed": true,
          "name": "previousOwner",
          "type": "address"
        },
        {
          "indexed": true,
          "name": "newOwner",
          "type": "address"
        }
      ],
      "name": "OwnershipTransferred",
      "type": "event"
    },
    {
      "constant": false,
      "inputs": [
        {
          "name": "_chid",
          "type": "string"
        },
        {
          "name": "_phid",
          "type": "string"
        },
        {
          "name": "_documentID",
          "type": "string"
        },
        {
          "name": "_documentSignature",
          "type": "string"
        },
        {
          "name": "_issuerID",
          "type": "string"
        }
      ],
      "name": "issuePassport",
      "outputs": [],
      "payable": false,
      "stateMutability": "nonpayable",
      "type": "function"
    },
    {
      "constant": false,
      "inputs": [
        {
          "name": "_deviceCHID",
          "type": "string"
        },
        {
          "name": "_issuerID",
          "type": "string"
        },
        {
          "name": "_documentID",
          "type": "string"
        },
        {
          "name": "_documentSignature",
          "type": "string"
        },
        {
          "name": "_documentType",
          "type": "string"
        }
      ],
      "name": "generateGenericProof",
      "outputs": [],
      "payable": false,
      "stateMutability": "nonpayable",
      "type": "function"
    },
    {
      "constant": false,
      "inputs": [
        {
          "name": "_deviceCHID",
          "type": "string"
        }
      ],
      "name": "deRegisterDevice",
      "outputs": [],
      "payable": false,
      "stateMutability": "nonpayable",
      "type": "function"
    },
    {
      "constant": true,
      "inputs": [],
      "name": "getData",
      "outputs": [
        {
          "components": [
            {
              "name": "chid",
              "type": "string"
            },
            {
              "name": "phid",
              "type": "string"
            },
            {
              "name": "issuerID",
              "type": "string"
            },
            {
              "name": "registerDate",
              "type": "uint256"
            },
            {
              "name": "owner",
              "type": "address"
            },
            {
              "name": "deregistered",
              "type": "bool"
            }
          ],
          "name": "_data",
          "type": "tuple"
        }
      ],
      "payable": false,
      "stateMutability": "view",
      "type": "function"
    },
    {
      "constant": true,
      "inputs": [],
      "name": "getRegisterProofs",
      "outputs": [
        {
          "components": [
            {
              "name": "chid",
              "type": "string"
            },
            {
              "name": "timestamp",
              "type": "uint256"
            },
            {
              "name": "blockNumber",
              "type": "uint256"
            }
          ],
          "name": "_data",
          "type": "tuple[]"
        }
      ],
      "payable": false,
      "stateMutability": "view",
      "type": "function"
    },
    {
      "constant": true,
      "inputs": [],
      "name": "getIssueProofs",
      "outputs": [
        {
          "components": [
            {
              "name": "chid",
              "type": "string"
            },
            {
              "name": "phid",
              "type": "string"
            },
            {
              "name": "documentID",
              "type": "string"
            },
            {
              "name": "documentSignature",
              "type": "string"
            },
            {
              "name": "issuerID",
              "type": "string"
            },
            {
              "name": "timestamp",
              "type": "uint256"
            },
            {
              "name": "blockNumber",
              "type": "uint256"
            }
          ],
          "name": "_data",
          "type": "tuple[]"
        }
      ],
      "payable": false,
      "stateMutability": "view",
      "type": "function"
    },
    {
      "constant": true,
      "inputs": [],
      "name": "getGenericProofs",
      "outputs": [
        {
          "components": [
            {
              "name": "chid",
              "type": "string"
            },
            {
              "name": "issuerID",
              "type": "string"
            },
            {
              "name": "documentID",
              "type": "string"
            },
            {
              "name": "documentSignature",
              "type": "string"
            },
            {
              "name": "documentType",
              "type": "string"
            },
            {
              "name": "timestamp",
              "type": "uint256"
            },
            {
              "name": "blockNumber",
              "type": "uint256"
            }
          ],
          "name": "_data",
          "type": "tuple[]"
        }
      ],
      "payable": false,
      "stateMutability": "view",
      "type": "function"
    },
    {
      "constant": true,
      "inputs": [],
      "name": "getDeRegisterProofs",
      "outputs": [
        {
          "components": [
            {
              "name": "chid",
              "type": "string"
            },
            {
              "name": "timestamp",
              "type": "uint256"
            },
            {
              "name": "blockNumber",
              "type": "uint256"
            }
          ],
          "name": "_data",
          "type": "tuple[]"
        }
      ],
      "payable": false,
      "stateMutability": "view",
      "type": "function"
    }
  ],
  "bytecode": "0x60806040523480156200001157600080fd5b5060405162003c4238038062003c42833981018060405262000037919081019062000550565b6200004162000384565b336000806101000a81548173ffffffffffffffffffffffffffffffffffffffff021916908373ffffffffffffffffffffffffffffffffffffffff16021790555081600560006101000a81548173ffffffffffffffffffffffffffffffffffffffff021916908373ffffffffffffffffffffffffffffffffffffffff1602179055506000600660040160146101000a81548160ff02191690831515021790555082600660040160006101000a81548173ffffffffffffffffffffffffffffffffffffffff021916908373ffffffffffffffffffffffffffffffffffffffff16021790555083600660000190805190602001906200013f929190620003a6565b50426006600301819055506200016483620001a5640100000000026401000000009004565b83816000018190525042816020018181525050438160400181815250506200019b81620002d8640100000000026401000000009004565b50505050620007d7565b600073ffffffffffffffffffffffffffffffffffffffff168173ffffffffffffffffffffffffffffffffffffffff16141515156200021a576040517f08c379a00000000000000000000000000000000000000000000000000000000081526004016200021190620006be565b60405180910390fd5b8073ffffffffffffffffffffffffffffffffffffffff166000809054906101000a900473ffffffffffffffffffffffffffffffffffffffff1673ffffffffffffffffffffffffffffffffffffffff167f8be0079c531659141344cd1fd0a4f28419497f9722a3daafe3b4186f6b6457e060405160405180910390a3806000806101000a81548173ffffffffffffffffffffffffffffffffffffffff021916908373ffffffffffffffffffffffffffffffffffffffff16021790555050565b600b81908060018154018082558091505090600182039060005260206000209060030201600090919290919091506000820151816000019080519060200190620003249291906200042d565b5060208201518160010155604082015181600201555050507f69a49b7d55d0363d4054f74cd6b1dd9ba7f6d3a1bd676ad4fc957d874a6ca08b308260000151836020015160405162000379939291906200067a565b60405180910390a150565b6060604051908101604052806060815260200160008152602001600081525090565b828054600181600116156101000203166002900490600052602060002090601f016020900481019282601f10620003e957805160ff19168380011785556200041a565b828001600101855582156200041a579182015b8281111562000419578251825591602001919060010190620003fc565b5b509050620004299190620004b4565b5090565b828054600181600116156101000203166002900490600052602060002090601f016020900481019282601f106200047057805160ff1916838001178555620004a1565b82800160010185558215620004a1579182015b82811115620004a057825182559160200191906001019062000483565b5b509050620004b09190620004b4565b5090565b620004d991905b80821115620004d5576000816000905550600101620004bb565b5090565b90565b6000620004ea825162000770565b905092915050565b600082601f83011215156200050657600080fd5b81516200051d62000517826200070e565b620006e0565b915080825260208301602083018583830111156200053a57600080fd5b6200054783828462000790565b50505092915050565b6000806000606084860312156200056657600080fd5b600084015167ffffffffffffffff8111156200058157600080fd5b6200058f86828701620004f2565b9350506020620005a286828701620004dc565b9250506040620005b586828701620004dc565b9150509250925092565b620005ca8162000746565b82525050565b6000620005dd826200073b565b808452620005f381602086016020860162000790565b620005fe81620007c6565b602085010191505092915050565b6000602f82527f546865206e6577206f776e65722063616e6e6f7420626520746865206465666160208301527f756c7420616464726573732030783000000000000000000000000000000000006040830152606082019050919050565b620006748162000766565b82525050565b6000606082019050620006916000830186620005bf565b8181036020830152620006a58185620005d0565b9050620006b6604083018462000669565b949350505050565b60006020820190508181036000830152620006d9816200060c565b9050919050565b6000604051905081810181811067ffffffffffffffff821117156200070457600080fd5b8060405250919050565b600067ffffffffffffffff8211156200072657600080fd5b601f19601f8301169050602081019050919050565b600081519050919050565b600073ffffffffffffffffffffffffffffffffffffffff82169050919050565b6000819050919050565b600073ffffffffffffffffffffffffffffffffffffffff82169050919050565b60005b83811015620007b057808201518184015260208101905062000793565b83811115620007c0576000848401525b50505050565b6000601f19601f8301169050919050565b61345b80620007e76000396000f300608060405260043610610133576000357c0100000000000000000000000000000000000000000000000000000000900463ffffffff168063044b3827146101385780630e9bc9921461016357806316947c581461018e57806316d9ba84146101b75780631f2852d6146101e05780632d664e921461020957806332fe62f1146102325780633682a4501461025b5780633bc5de30146102845780634620a74e146102af5780634d70fded146102ec5780635267953014610329578063715018a61461035257806384441f81146103695780638da5cb5b14610392578063ac13b055146103bd578063b9d8b583146103e6578063c28b3a8114610411578063c639e8c51461043a578063e2351daf14610463578063e86832141461048e578063f2fde38b146104cb578063f61b1703146104f4575b600080fd5b34801561014457600080fd5b5061014d61051f565b60405161015a91906130db565b60405180910390f35b34801561016f57600080fd5b50610178610635565b604051610185919061311f565b60405180910390f35b34801561019a57600080fd5b506101b560048036036101b091908101906127b4565b6109d3565b005b3480156101c357600080fd5b506101de60048036036101d9919081019061274a565b610ca9565b005b3480156101ec57600080fd5b5061020760048036036102029190810190612773565b610d80565b005b34801561021557600080fd5b50610230600480360361022b919081019061274a565b610f0d565b005b34801561023e57600080fd5b506102596004803603610254919081019061274a565b610ffa565b005b34801561026757600080fd5b50610282600480360361027d919081019061274a565b6110e7565b005b34801561029057600080fd5b506102996111d3565b6040516102a6919061325e565b60405180910390f35b3480156102bb57600080fd5b506102d660048036036102d1919081019061274a565b61144f565b6040516102e39190613163565b60405180910390f35b3480156102f857600080fd5b50610313600480360361030e919081019061274a565b6114a5565b6040516103209190613163565b60405180910390f35b34801561033557600080fd5b50610350600480360361034b919081019061274a565b6114fb565b005b34801561035e57600080fd5b506103676115d1565b005b34801561037557600080fd5b50610390600480360361038b919081019061274a565b611709565b005b34801561039e57600080fd5b506103a76117f6565b6040516103b49190612ff0565b60405180910390f35b3480156103c957600080fd5b506103e460048036036103df919081019061274a565b61181b565b005b3480156103f257600080fd5b506103fb611908565b6040516104089190613141565b60405180910390f35b34801561041d57600080fd5b50610438600480360361043391908101906127b4565b611a1e565b005b34801561044657600080fd5b50610461600480360361045c919081019061274a565b611c1a565b005b34801561046f57600080fd5b50610478611d07565b60405161048591906130fd565b60405180910390f35b34801561049a57600080fd5b506104b560048036036104b0919081019061274a565b6120a5565b6040516104c29190613163565b60405180910390f35b3480156104d757600080fd5b506104f260048036036104ed919081019061274a565b6120fb565b005b34801561050057600080fd5b50610509612198565b6040516105169190612ff0565b60405180910390f35b6060600c805480602002602001604051908101604052809291908181526020016000905b8282101561062c578382906000526020600020906003020160606040519081016040529081600082018054600181600116156101000203166002900480601f0160208091040260200160405190810160405280929190818152602001828054600181600116156101000203166002900480156106005780601f106105d557610100808354040283529160200191610600565b820191906000526020600020905b8154815290600101906020018083116105e357829003601f168201915b505050505081526020016001820154815260200160028201548152505081526020019060010190610543565b50505050905090565b6060600d805480602002602001604051908101604052809291908181526020016000905b828210156109ca578382906000526020600020906007020160e06040519081016040529081600082018054600181600116156101000203166002900480601f0160208091040260200160405190810160405280929190818152602001828054600181600116156101000203166002900480156107165780601f106106eb57610100808354040283529160200191610716565b820191906000526020600020905b8154815290600101906020018083116106f957829003601f168201915b50505050508152602001600182018054600181600116156101000203166002900480601f0160208091040260200160405190810160405280929190818152602001828054600181600116156101000203166002900480156107b85780601f1061078d576101008083540402835291602001916107b8565b820191906000526020600020905b81548152906001019060200180831161079b57829003601f168201915b50505050508152602001600282018054600181600116156101000203166002900480601f01602080910402602001604051908101604052809291908181526020018280546001816001161561010002031660029004801561085a5780601f1061082f5761010080835404028352916020019161085a565b820191906000526020600020905b81548152906001019060200180831161083d57829003601f168201915b50505050508152602001600382018054600181600116156101000203166002900480601f0160208091040260200160405190810160405280929190818152602001828054600181600116156101000203166002900480156108fc5780601f106108d1576101008083540402835291602001916108fc565b820191906000526020600020905b8154815290600101906020018083116108df57829003601f168201915b50505050508152602001600482018054600181600116156101000203166002900480601f01602080910402602001604051908101604052809291908181526020018280546001816001161561010002031660029004801561099e5780601f106109735761010080835404028352916020019161099e565b820191906000526020600020905b81548152906001019060200180831161098157829003601f168201915b505050505081526020016005820154815260200160068201548152505081526020019060010190610659565b50505050905090565b6109db6124ce565b6000809054906101000a900473ffffffffffffffffffffffffffffffffffffffff1673ffffffffffffffffffffffffffffffffffffffff163373ffffffffffffffffffffffffffffffffffffffff16141515610a6c576040517f08c379a0000000000000000000000000000000000000000000000000000000008152600401610a639061319e565b60405180910390fd5b60001515600660040160149054906101000a900460ff161515141515610ac7576040517f08c379a0000000000000000000000000000000000000000000000000000000008152600401610abe9061323e565b60405180910390fd5b60011515610ad43361144f565b15151480610aee575060011515610aea336114a5565b1515145b1515610b2f576040517f08c379a0000000000000000000000000000000000000000000000000000000008152600401610b269061317e565b60405180910390fd5b858160000181905250848160200181905250838160400181905250828160600181905250818160800181905250428160a0018181525050438160c0018181525050600e81908060018154018082558091505090600182039060005260206000209060070201600090919290919091506000820151816000019080519060200190610bba92919061250c565b506020820151816001019080519060200190610bd792919061250c565b506040820151816002019080519060200190610bf492919061250c565b506060820151816003019080519060200190610c1192919061250c565b506080820151816004019080519060200190610c2e92919061250c565b5060a0820151816005015560c082015181600601555050507f75d0e55e2b0f81c59701404c4f8c99b70f56aa7b7c9392bcd253bdeb80e0b7e730826000015183602001518460400151856060015186608001518760a00151604051610c99979695949392919061300b565b60405180910390a1505050505050565b600073ffffffffffffffffffffffffffffffffffffffff16600460009054906101000a900473ffffffffffffffffffffffffffffffffffffffff1673ffffffffffffffffffffffffffffffffffffffff16141515610d3c576040517f08c379a0000000000000000000000000000000000000000000000000000000008152600401610d33906131be565b60405180910390fd5b80600460006101000a81548173ffffffffffffffffffffffffffffffffffffffff021916908373ffffffffffffffffffffffffffffffffffffffff16021790555050565b610d8861258c565b6000809054906101000a900473ffffffffffffffffffffffffffffffffffffffff1673ffffffffffffffffffffffffffffffffffffffff163373ffffffffffffffffffffffffffffffffffffffff16141515610e19576040517f08c379a0000000000000000000000000000000000000000000000000000000008152600401610e109061319e565b60405180910390fd5b60001515600660040160149054906101000a900460ff161515141515610e74576040517f08c379a0000000000000000000000000000000000000000000000000000000008152600401610e6b9061323e565b60405180910390fd5b60011515610e813361144f565b1515141515610ec5576040517f08c379a0000000000000000000000000000000000000000000000000000000008152600401610ebc906131fe565b60405180910390fd5b6001600660040160146101000a81548160ff0219169083151502179055508181600001819052504281602001818152505043816040018181525050610f09816121c2565b5050565b3373ffffffffffffffffffffffffffffffffffffffff16600460009054906101000a900473ffffffffffffffffffffffffffffffffffffffff1673ffffffffffffffffffffffffffffffffffffffff16141515610f9f576040517f08c379a0000000000000000000000000000000000000000000000000000000008152600401610f96906131de565b60405180910390fd5b6000600160008373ffffffffffffffffffffffffffffffffffffffff1673ffffffffffffffffffffffffffffffffffffffff16815260200190815260200160002060006101000a81548160ff02191690831515021790555050565b3373ffffffffffffffffffffffffffffffffffffffff16600460009054906101000a900473ffffffffffffffffffffffffffffffffffffffff1673ffffffffffffffffffffffffffffffffffffffff1614151561108c576040517f08c379a0000000000000000000000000000000000000000000000000000000008152600401611083906131de565b60405180910390fd5b6000600260008373ffffffffffffffffffffffffffffffffffffffff1673ffffffffffffffffffffffffffffffffffffffff16815260200190815260200160002060006101000a81548160ff02191690831515021790555050565b3373ffffffffffffffffffffffffffffffffffffffff16600460009054906101000a900473ffffffffffffffffffffffffffffffffffffffff1673ffffffffffffffffffffffffffffffffffffffff16141515611179576040517f08c379a0000000000000000000000000000000000000000000000000000000008152600401611170906131de565b60405180910390fd5b60018060008373ffffffffffffffffffffffffffffffffffffffff1673ffffffffffffffffffffffffffffffffffffffff16815260200190815260200160002060006101000a81548160ff02191690831515021790555050565b6111db6125ae565b600660c06040519081016040529081600082018054600181600116156101000203166002900480601f0160208091040260200160405190810160405280929190818152602001828054600181600116156101000203166002900480156112825780601f1061125757610100808354040283529160200191611282565b820191906000526020600020905b81548152906001019060200180831161126557829003601f168201915b50505050508152602001600182018054600181600116156101000203166002900480601f0160208091040260200160405190810160405280929190818152602001828054600181600116156101000203166002900480156113245780601f106112f957610100808354040283529160200191611324565b820191906000526020600020905b81548152906001019060200180831161130757829003601f168201915b50505050508152602001600282018054600181600116156101000203166002900480601f0160208091040260200160405190810160405280929190818152602001828054600181600116156101000203166002900480156113c65780601f1061139b576101008083540402835291602001916113c6565b820191906000526020600020905b8154815290600101906020018083116113a957829003601f168201915b50505050508152602001600382015481526020016004820160009054906101000a900473ffffffffffffffffffffffffffffffffffffffff1673ffffffffffffffffffffffffffffffffffffffff1673ffffffffffffffffffffffffffffffffffffffff1681526020016004820160149054906101000a900460ff161515151581525050905090565b6000600160008373ffffffffffffffffffffffffffffffffffffffff1673ffffffffffffffffffffffffffffffffffffffff16815260200190815260200160002060009054906101000a900460ff169050919050565b6000600260008373ffffffffffffffffffffffffffffffffffffffff1673ffffffffffffffffffffffffffffffffffffffff16815260200190815260200160002060009054906101000a900460ff169050919050565b3373ffffffffffffffffffffffffffffffffffffffff16600460009054906101000a900473ffffffffffffffffffffffffffffffffffffffff1673ffffffffffffffffffffffffffffffffffffffff1614151561158d576040517f08c379a0000000000000000000000000000000000000000000000000000000008152600401611584906131de565b60405180910390fd5b80600460006101000a81548173ffffffffffffffffffffffffffffffffffffffff021916908373ffffffffffffffffffffffffffffffffffffffff16021790555050565b6000809054906101000a900473ffffffffffffffffffffffffffffffffffffffff1673ffffffffffffffffffffffffffffffffffffffff163373ffffffffffffffffffffffffffffffffffffffff16141515611662576040517f08c379a00000000000000000000000000000000000000000000000000000000081526004016116599061319e565b60405180910390fd5b6000809054906101000a900473ffffffffffffffffffffffffffffffffffffffff1673ffffffffffffffffffffffffffffffffffffffff167ff8df31144d9c2f0f6b59d69b8b98abd5459d07f2742c4df920b25aae33c6482060405160405180910390a260008060006101000a81548173ffffffffffffffffffffffffffffffffffffffff021916908373ffffffffffffffffffffffffffffffffffffffff160217905550565b3373ffffffffffffffffffffffffffffffffffffffff16600460009054906101000a900473ffffffffffffffffffffffffffffffffffffffff1673ffffffffffffffffffffffffffffffffffffffff1614151561179b576040517f08c379a0000000000000000000000000000000000000000000000000000000008152600401611792906131de565b60405180910390fd5b6001600260008373ffffffffffffffffffffffffffffffffffffffff1673ffffffffffffffffffffffffffffffffffffffff16815260200190815260200160002060006101000a81548160ff02191690831515021790555050565b6000809054906101000a900473ffffffffffffffffffffffffffffffffffffffff1681565b3373ffffffffffffffffffffffffffffffffffffffff16600460009054906101000a900473ffffffffffffffffffffffffffffffffffffffff1673ffffffffffffffffffffffffffffffffffffffff161415156118ad576040517f08c379a00000000000000000000000000000000000000000000000000000000081526004016118a4906131de565b60405180910390fd5b6000600360008373ffffffffffffffffffffffffffffffffffffffff1673ffffffffffffffffffffffffffffffffffffffff16815260200190815260200160002060006101000a81548160ff02191690831515021790555050565b6060600b805480602002602001604051908101604052809291908181526020016000905b82821015611a15578382906000526020600020906003020160606040519081016040529081600082018054600181600116156101000203166002900480601f0160208091040260200160405190810160405280929190818152602001828054600181600116156101000203166002900480156119e95780601f106119be576101008083540402835291602001916119e9565b820191906000526020600020905b8154815290600101906020018083116119cc57829003601f168201915b50505050508152602001600182015481526020016002820154815250508152602001906001019061192c565b50505050905090565b611a266125fd565b6000809054906101000a900473ffffffffffffffffffffffffffffffffffffffff1673ffffffffffffffffffffffffffffffffffffffff163373ffffffffffffffffffffffffffffffffffffffff16141515611ab7576040517f08c379a0000000000000000000000000000000000000000000000000000000008152600401611aae9061319e565b60405180910390fd5b60001515600660040160149054906101000a900460ff161515141515611b12576040517f08c379a0000000000000000000000000000000000000000000000000000000008152600401611b099061323e565b60405180910390fd5b60011515611b1f3361144f565b15151480611b39575060011515611b35336114a5565b1515145b1515611b7a576040517f08c379a0000000000000000000000000000000000000000000000000000000008152600401611b719061317e565b60405180910390fd5b858160000181905250848160200181905250838160400181905250828160600181905250818160800181905250428160a0018181525050438160c00181815250508560066000019080519060200190611bd492919061263b565b508460066001019080519060200190611bee92919061263b565b508160066002019080519060200190611c0892919061263b565b50611c128161226a565b505050505050565b3373ffffffffffffffffffffffffffffffffffffffff16600460009054906101000a900473ffffffffffffffffffffffffffffffffffffffff1673ffffffffffffffffffffffffffffffffffffffff16141515611cac576040517f08c379a0000000000000000000000000000000000000000000000000000000008152600401611ca3906131de565b60405180910390fd5b6001600360008373ffffffffffffffffffffffffffffffffffffffff1673ffffffffffffffffffffffffffffffffffffffff16815260200190815260200160002060006101000a81548160ff02191690831515021790555050565b6060600e805480602002602001604051908101604052809291908181526020016000905b8282101561209c578382906000526020600020906007020160e06040519081016040529081600082018054600181600116156101000203166002900480601f016020809104026020016040519081016040528092919081815260200182805460018160011615610100020316600290048015611de85780601f10611dbd57610100808354040283529160200191611de8565b820191906000526020600020905b815481529060010190602001808311611dcb57829003601f168201915b50505050508152602001600182018054600181600116156101000203166002900480601f016020809104026020016040519081016040528092919081815260200182805460018160011615610100020316600290048015611e8a5780601f10611e5f57610100808354040283529160200191611e8a565b820191906000526020600020905b815481529060010190602001808311611e6d57829003601f168201915b50505050508152602001600282018054600181600116156101000203166002900480601f016020809104026020016040519081016040528092919081815260200182805460018160011615610100020316600290048015611f2c5780601f10611f0157610100808354040283529160200191611f2c565b820191906000526020600020905b815481529060010190602001808311611f0f57829003601f168201915b50505050508152602001600382018054600181600116156101000203166002900480601f016020809104026020016040519081016040528092919081815260200182805460018160011615610100020316600290048015611fce5780601f10611fa357610100808354040283529160200191611fce565b820191906000526020600020905b815481529060010190602001808311611fb157829003601f168201915b50505050508152602001600482018054600181600116156101000203166002900480601f0160208091040260200160405190810160405280929190818152602001828054600181600116156101000203166002900480156120705780601f1061204557610100808354040283529160200191612070565b820191906000526020600020905b81548152906001019060200180831161205357829003601f168201915b505050505081526020016005820154815260200160068201548152505081526020019060010190611d2b565b50505050905090565b6000600360008373ffffffffffffffffffffffffffffffffffffffff1673ffffffffffffffffffffffffffffffffffffffff16815260200190815260200160002060009054906101000a900460ff169050919050565b6000809054906101000a900473ffffffffffffffffffffffffffffffffffffffff1673ffffffffffffffffffffffffffffffffffffffff163373ffffffffffffffffffffffffffffffffffffffff1614151561218c576040517f08c379a00000000000000000000000000000000000000000000000000000000081526004016121839061319e565b60405180910390fd5b6121958161239e565b50565b6000600460009054906101000a900473ffffffffffffffffffffffffffffffffffffffff16905090565b600c8190806001815401808255809150509060018203906000526020600020906003020160009091929091909150600082015181600001908051906020019061220c92919061250c565b5060208201518160010155604082015181600201555050507fa821e3633a53ec7cf6887da61b4a7b2b5cdedbbd5980ad8f05aac54368faeca9308260000151836020015160405161225f9392919061309d565b60405180910390a150565b600d819080600181540180825580915050906001820390600052602060002090600702016000909192909190915060008201518160000190805190602001906122b492919061250c565b5060208201518160010190805190602001906122d192919061250c565b5060408201518160020190805190602001906122ee92919061250c565b50606082015181600301908051906020019061230b92919061250c565b50608082015181600401908051906020019061232892919061250c565b5060a0820151816005015560c082015181600601555050507fdac5500cff3f509dad96fb319377149734275664c1ad577ed3216bb108972cc530826000015183602001518460400151856060015186608001518760a00151604051612393979695949392919061300b565b60405180910390a150565b600073ffffffffffffffffffffffffffffffffffffffff168173ffffffffffffffffffffffffffffffffffffffff1614151515612410576040517f08c379a00000000000000000000000000000000000000000000000000000000081526004016124079061321e565b60405180910390fd5b8073ffffffffffffffffffffffffffffffffffffffff166000809054906101000a900473ffffffffffffffffffffffffffffffffffffffff1673ffffffffffffffffffffffffffffffffffffffff167f8be0079c531659141344cd1fd0a4f28419497f9722a3daafe3b4186f6b6457e060405160405180910390a3806000806101000a81548173ffffffffffffffffffffffffffffffffffffffff021916908373ffffffffffffffffffffffffffffffffffffffff16021790555050565b60e060405190810160405280606081526020016060815260200160608152602001606081526020016060815260200160008152602001600081525090565b828054600181600116156101000203166002900490600052602060002090601f016020900481019282601f1061254d57805160ff191683800117855561257b565b8280016001018555821561257b579182015b8281111561257a57825182559160200191906001019061255f565b5b50905061258891906126bb565b5090565b6060604051908101604052806060815260200160008152602001600081525090565b60c06040519081016040528060608152602001606081526020016060815260200160008152602001600073ffffffffffffffffffffffffffffffffffffffff1681526020016000151581525090565b60e060405190810160405280606081526020016060815260200160608152602001606081526020016060815260200160008152602001600081525090565b828054600181600116156101000203166002900490600052602060002090601f016020900481019282601f1061267c57805160ff19168380011785556126aa565b828001600101855582156126aa579182015b828111156126a957825182559160200191906001019061268e565b5b5090506126b791906126bb565b5090565b6126dd91905b808211156126d95760008160009055506001016126c1565b5090565b90565b60006126ec82356133ae565b905092915050565b600082601f830112151561270757600080fd5b813561271a612715826132ad565b613280565b9150808252602083016020830185838301111561273657600080fd5b6127418382846133ce565b50505092915050565b60006020828403121561275c57600080fd5b600061276a848285016126e0565b91505092915050565b60006020828403121561278557600080fd5b600082013567ffffffffffffffff81111561279f57600080fd5b6127ab848285016126f4565b91505092915050565b600080600080600060a086880312156127cc57600080fd5b600086013567ffffffffffffffff8111156127e657600080fd5b6127f2888289016126f4565b955050602086013567ffffffffffffffff81111561280f57600080fd5b61281b888289016126f4565b945050604086013567ffffffffffffffff81111561283857600080fd5b612844888289016126f4565b935050606086013567ffffffffffffffff81111561286157600080fd5b61286d888289016126f4565b925050608086013567ffffffffffffffff81111561288a57600080fd5b612896888289016126f4565b9150509295509295909350565b6128ac81613378565b82525050565b60006128bd8261330d565b808452602084019350836020820285016128d6856132d9565b60005b8481101561290f5783830388526128f1838351612d3a565b92506128fc82613344565b91506020880197506001810190506128d9565b508196508694505050505092915050565b600061292b82613318565b80845260208401935083602082028501612944856132e6565b60005b8481101561297d57838303885261295f838351612e21565b925061296a82613351565b9150602088019750600181019050612947565b508196508694505050505092915050565b600061299982613323565b808452602084019350836020820285016129b2856132f3565b60005b848110156129eb5783830388526129cd838351612ed9565b92506129d88261335e565b91506020880197506001810190506129b5565b508196508694505050505092915050565b6000612a078261332e565b80845260208401935083602082028501612a2085613300565b60005b84811015612a59578383038852612a3b838351612f91565b9250612a468261336b565b9150602088019750600181019050612a23565b508196508694505050505092915050565b612a7381613398565b82525050565b6000612a8482613339565b808452612a988160208601602086016133dd565b612aa181613410565b602085010191505092915050565b6000603082527f546865206d6573736167652073656e646572206973206e6f7420616e206f706560208301527f7261746f72206f72207769746e657373000000000000000000000000000000006040830152606082019050919050565b6000602382527f546865206d6573736167652073656e646572206973206e6f7420746865206f7760208301527f6e657200000000000000000000000000000000000000000000000000000000006040830152606082019050919050565b6000602982527f4120547275737420416e63686f72206163636f756e7420697320616c7265616460208301527f7920696e207573652e00000000000000000000000000000000000000000000006040830152606082019050919050565b6000602b82527f4f6e6c7920757361626c652062792063757272656e7420547275737420416e6360208301527f686f72206163636f756e740000000000000000000000000000000000000000006040830152606082019050919050565b6000602582527f546865206d6573736167652073656e646572206973206e6f7420616e206f706560208301527f7261746f720000000000000000000000000000000000000000000000000000006040830152606082019050919050565b6000602f82527f546865206e6577206f776e65722063616e6e6f7420626520746865206465666160208301527f756c7420616464726573732030783000000000000000000000000000000000006040830152606082019050919050565b6000602382527f546869732064657669636520697320616c72656164792064657265676973746560208301527f72656400000000000000000000000000000000000000000000000000000000006040830152606082019050919050565b60006060830160008301518482036000860152612d578282612a79565b9150506020830151612d6c6020860182612fe1565b506040830151612d7f6040860182612fe1565b508091505092915050565b600060c0830160008301518482036000860152612da78282612a79565b91505060208301518482036020860152612dc18282612a79565b91505060408301518482036040860152612ddb8282612a79565b9150506060830151612df06060860182612fe1565b506080830151612e0360808601826128a3565b5060a0830151612e1660a0860182612a6a565b508091505092915050565b600060e0830160008301518482036000860152612e3e8282612a79565b91505060208301518482036020860152612e588282612a79565b91505060408301518482036040860152612e728282612a79565b91505060608301518482036060860152612e8c8282612a79565b91505060808301518482036080860152612ea68282612a79565b91505060a0830151612ebb60a0860182612fe1565b5060c0830151612ece60c0860182612fe1565b508091505092915050565b600060e0830160008301518482036000860152612ef68282612a79565b91505060208301518482036020860152612f108282612a79565b91505060408301518482036040860152612f2a8282612a79565b91505060608301518482036060860152612f448282612a79565b91505060808301518482036080860152612f5e8282612a79565b91505060a0830151612f7360a0860182612fe1565b5060c0830151612f8660c0860182612fe1565b508091505092915050565b60006060830160008301518482036000860152612fae8282612a79565b9150506020830151612fc36020860182612fe1565b506040830151612fd66040860182612fe1565b508091505092915050565b612fea816133a4565b82525050565b600060208201905061300560008301846128a3565b92915050565b600060e082019050613020600083018a6128a3565b81810360208301526130328189612a79565b905081810360408301526130468188612a79565b9050818103606083015261305a8187612a79565b9050818103608083015261306e8186612a79565b905081810360a08301526130828185612a79565b905061309160c0830184612fe1565b98975050505050505050565b60006060820190506130b260008301866128a3565b81810360208301526130c48185612a79565b90506130d36040830184612fe1565b949350505050565b600060208201905081810360008301526130f581846128b2565b905092915050565b600060208201905081810360008301526131178184612920565b905092915050565b60006020820190508181036000830152613139818461298e565b905092915050565b6000602082019050818103600083015261315b81846129fc565b905092915050565b60006020820190506131786000830184612a6a565b92915050565b6000602082019050818103600083015261319781612aaf565b9050919050565b600060208201905081810360008301526131b781612b0c565b9050919050565b600060208201905081810360008301526131d781612b69565b9050919050565b600060208201905081810360008301526131f781612bc6565b9050919050565b6000602082019050818103600083015261321781612c23565b9050919050565b6000602082019050818103600083015261323781612c80565b9050919050565b6000602082019050818103600083015261325781612cdd565b9050919050565b600060208201905081810360008301526132788184612d8a565b905092915050565b6000604051905081810181811067ffffffffffffffff821117156132a357600080fd5b8060405250919050565b600067ffffffffffffffff8211156132c457600080fd5b601f19601f8301169050602081019050919050565b6000602082019050919050565b6000602082019050919050565b6000602082019050919050565b6000602082019050919050565b600081519050919050565b600081519050919050565b600081519050919050565b600081519050919050565b600081519050919050565b6000602082019050919050565b6000602082019050919050565b6000602082019050919050565b6000602082019050919050565b600073ffffffffffffffffffffffffffffffffffffffff82169050919050565b60008115159050919050565b6000819050919050565b600073ffffffffffffffffffffffffffffffffffffffff82169050919050565b82818337600083830152505050565b60005b838110156133fb5780820151818401526020810190506133e0565b8381111561340a576000848401525b50505050565b6000601f19601f83011690509190505600a265627a7a7230582052da6d08376c50fa042b23795716b14f588667dd88f4ad3e325928270de4e31f6c6578706572696d656e74616cf50037",
  "source": "pragma solidity ^0.4.25;\r\npragma experimental ABIEncoderV2;\r\n\r\nimport \"./DeviceFactoryInterface.sol\";\r\nimport \"./Ownable.sol\";\r\nimport \"./AddressRoles.sol\";\r\n\r\n/**\r\n * @title Ereuse Device basic implementation\r\n */\r\n\r\ncontract DepositDevice is Ownable, AddressRoles {\r\n    // parameters -----------------------------------------------------------\r\n    DeviceFactoryInterface factory;\r\n\r\n    // types ----------------------------------------------------------------\r\n    //Struct that mantains the basic values of the device\r\n    struct DevData {\r\n        string chid;\r\n        string phid;\r\n        string issuerID;\r\n        uint registerDate;\r\n        address owner;\r\n        bool deregistered;\r\n    }\r\n\r\n    struct RegisterProofData {\r\n        string chid;\r\n        uint timestamp;\r\n        uint blockNumber;\r\n    }\r\n\r\n    struct DeRegisterProofData {\r\n        string chid;\r\n        uint timestamp;\r\n        uint blockNumber;\r\n    }\r\n\r\n    struct IssueProofData {\r\n        string chid;\r\n        string phid;\r\n        string documentID;\r\n        string documentSignature;\r\n        string issuerID;\r\n        uint timestamp;\r\n        uint blockNumber;\r\n    }\r\n\r\n    // struct TransferProofData {\r\n    //     address from;\r\n    //     address to;\r\n    //     string from_registrant;\r\n    //     string to_registrant;\r\n    //     uint timestamp;\r\n    //     uint blockNumber;\r\n    // }\r\n\r\n    // struct RecycleProofData {\r\n    //     uint timestamp;\r\n    //     uint blockNumber;\r\n    // }\r\n\r\n    struct GenericProofData {\r\n        string chid;\r\n        string issuerID;\r\n        string documentID;\r\n        string documentSignature;\r\n        string documentType;\r\n        uint timestamp;\r\n        uint blockNumber;\r\n    }\r\n\r\n    // variables -------------------------------------------------------------\r\n    DevData data;\r\n    RegisterProofData[] registerProofs;\r\n    DeRegisterProofData[] deRegisterProofs; //shouldnt be a vector? it is for simplicity?\r\n    IssueProofData[] issueProofs;\r\n    //TransferProofData[] transferProofs;\r\n    //RecycleProofData[] recycleProofs;\r\n    GenericProofData[] genericProofs;\r\n\r\n    // events ----------------------------------------------------------------\r\n    event proofGenerated(bytes32 indexed proofHash);\r\n    event registerProof(address deviceAddress, string chid, uint timestamp);\r\n    event deRegisterProof(address deviceAddress, string chid, uint timestamp);\r\n    event issueProof(address deviceAddress, string chid, string phid, string documentID, string documentSignature, string issuerID, uint timestamp);\r\n    //event transferProof(address supplierAddress, address receiverAddress, address deviceAddress, uint timestamp);\r\n    //event recycleProof(address userAddress, address deviceAddress, uint timestamp); \r\n    event genericProof(address deviceAddress, string chid, string issuerID, string documentID, string documentSignature, string documentType, uint timestamp);  \r\n    //event DeviceTransferred(address deviceAddress, address new_owner, string new_registrant);\r\n    event DeviceRecycled(address deviceAddress);\r\n\r\n    constructor(\r\n        string _chid,\r\n        address _sender,\r\n        address _factory\r\n    ) public {\r\n        factory = DeviceFactoryInterface(_factory);\r\n        data.deregistered = false;\r\n        data.owner = _sender;\r\n        data.chid = _chid;\r\n        data.registerDate = block.timestamp;\r\n        _transferOwnership(_sender);\r\n\r\n        RegisterProofData memory proof_data;\r\n        proof_data.chid = _chid;\r\n        proof_data.timestamp = block.timestamp;\r\n        proof_data.blockNumber = block.number;\r\n        generateRegisterProof(proof_data);\r\n    }\r\n\r\n\r\n    modifier registered() {\r\n    require(data.deregistered == false, \"This device is already deregistered\");\r\n    _;\r\n  }\r\n\r\n    function generateRegisterProof(RegisterProofData memory proof_data) internal {\r\n        registerProofs.push(proof_data);\r\n        emit registerProof(address(this), proof_data.chid, proof_data.timestamp);\r\n    }\r\n\r\n    function generateDeRegisterProof(DeRegisterProofData memory proof_data) internal {\r\n        deRegisterProofs.push(proof_data);\r\n        emit deRegisterProof(address(this), proof_data.chid, proof_data.timestamp);\r\n    }\r\n    \r\n    function generateIssueProof(IssueProofData memory proof_data) internal {\r\n        issueProofs.push(proof_data);\r\n        emit issueProof(address(this), proof_data.chid, proof_data.phid, proof_data.documentID, proof_data.documentSignature, proof_data.issuerID, proof_data.timestamp);\r\n    }\r\n\r\n    //function emitGenericProof(GenericProofData memory proof_data) internal {\r\n    //    genericProofs.push(proof_data);\r\n    //    emit genericProof(address(this), proof_data.chid, proof_data.issuerID, proof_data.documentID, proof_data.documentSignature, proof_data.documentType, proof_data.timestamp);\r\n    //}\r\n\r\n    function issuePassport(string _chid, string _phid, string _documentID, string _documentSignature, string _issuerID) public onlyOwner registered onlyOpWit{\r\n        IssueProofData memory proof_data;\r\n        proof_data.chid = _chid;\r\n        proof_data.phid = _phid;\r\n        proof_data.documentID = _documentID;\r\n        proof_data.documentSignature = _documentSignature;\r\n        proof_data.issuerID = _issuerID;\r\n        proof_data.timestamp = block.timestamp;\r\n        proof_data.blockNumber = block.number;\r\n\r\n        data.chid = _chid;\r\n        data.phid = _phid;\r\n        data.issuerID = _issuerID;\r\n\r\n        generateIssueProof(proof_data);\r\n    }\r\n    \r\n    function generateGenericProof(string _deviceCHID, string _issuerID, string _documentID, string _documentSignature, string _documentType) public onlyOwner registered onlyOpWit{\r\n        GenericProofData memory proof_data;\r\n        proof_data.chid = _deviceCHID;\r\n        proof_data.issuerID = _issuerID;\r\n        proof_data.documentID = _documentID;\r\n        proof_data.documentSignature = _documentSignature;\r\n        proof_data.documentType = _documentType;\r\n        proof_data.timestamp = block.timestamp;\r\n        proof_data.blockNumber = block.number;\r\n\r\n        //emitGenericProof(proof_data);\r\n        genericProofs.push(proof_data);\r\n        emit genericProof(address(this), proof_data.chid, proof_data.issuerID, proof_data.documentID, proof_data.documentSignature, proof_data.documentType, proof_data.timestamp);\r\n    }\r\n\r\n    function deRegisterDevice(string _deviceCHID) public onlyOwner registered onlyOp{\r\n        data.deregistered = true;\r\n\r\n        DeRegisterProofData memory proof_data;\r\n        proof_data.chid = _deviceCHID;\r\n        proof_data.timestamp = block.timestamp;\r\n        proof_data.blockNumber = block.number;\r\n        generateDeRegisterProof(proof_data);\r\n    }\r\n\r\n    // function issueDID(string _did, string _registerID, string _documentSignature) public onlyOwner{\r\n    //     IssueProofData memory proof_data;\r\n    //     proof_data.did = _did;\r\n    //     proof_data.registerID = _registerID;\r\n    //     proof_data.documentSignature = _documentSignature;\r\n    //     proof_data.timestamp = block.timestamp;\r\n    //     proof_data.blockNumber = block.number;\r\n\r\n    //     data.did = _did;\r\n    //     data.registerID = _registerID;\r\n\r\n    //     generateIssueProof(proof_data);\r\n    // }\r\n\r\n    function getData() public view returns (DevData _data) {\r\n        return data;\r\n    }\r\n\r\n    function getRegisterProofs() public view returns (RegisterProofData[] _data) {\r\n        return registerProofs;\r\n    }\r\n\r\n    function getIssueProofs() public view returns (IssueProofData[] _data){\r\n        return issueProofs;\r\n    }\r\n\r\n    function getGenericProofs() public view returns (GenericProofData[] _data){\r\n        return genericProofs;\r\n    }\r\n\r\n    function getDeRegisterProofs() public view returns (DeRegisterProofData[] _data) {\r\n        return deRegisterProofs;\r\n    }\r\n\r\n\r\n    //  function getTrasferProofs() public view returns (TransferProofData[] _data){\r\n    //      return transferProofs;\r\n    //  }\r\n\r\n    //  function getRecycleProofs() public view returns (RecycleProofData[] _data){\r\n    //      return recycleProofs;\r\n    //  }\r\n\r\n    // function generateTransferProof(TransferProofData memory proof_data) internal {\r\n    //     transferProofs.push(proof_data);\r\n    //     emit transferProof(proof_data.from, proof_data.to, address(this), proof_data.timestamp);\r\n    // }\r\n\r\n    //API DONE\r\n    // function transferDevice(address _to, string _new_registrant)\r\n    //     public\r\n    //     onlyOwner\r\n    // {\r\n    //     TransferProofData memory proof_data;\r\n    //     proof_data.from = data.owner;\r\n    //     proof_data.to = _to;\r\n    //     proof_data.from_registrant = data.registrantData;\r\n    //     proof_data.to_registrant = _new_registrant;\r\n    //     proof_data.timestamp = block.timestamp;\r\n    //     proof_data.blockNumber = block.number;\r\n\r\n    //     factory.transfer(data.owner, _to);\r\n    //     data.owner = _to;\r\n    //     data.registrantData = _new_registrant;\r\n    //     if (owner != _to) transferOwnership(_to);\r\n\r\n    //     generateTransferProof(proof_data);\r\n\r\n    //     emit DeviceTransferred(address(this), data.owner, data.registrantData);\r\n    // }\r\n\r\n    // function generateRecycleProof(RecycleProofData memory proof_data) internal{\r\n    //     recycleProofs.push(proof_data);\r\n    //     emit recycleProof(data.owner, address(this), proof_data.timestamp);\r\n    // }\r\n\r\n    //API DONE\r\n    // function recycle() public onlyOwner{\r\n    //     factory.recycle(msg.sender);\r\n\r\n    //     RecycleProofData memory proof_data;\r\n    //     proof_data.timestamp = block.timestamp;\r\n    //     proof_data.blockNumber = block.number;\r\n\r\n    //     generateRecycleProof(proof_data);\r\n\r\n    //     emit DeviceRecycled(address(this));\r\n    // }\r\n\r\n\r\n\r\n}",
  "sourcePath": "C:\\Users\\marc\\Documents\\DSG\\TrubloAPI\\trublo_contracts_api\\contracts\\DepositDevice.sol",
  "compiler": {
    "name": "solc",
    "version": "0.4.26+commit.4563c3fc.Emscripten.clang"
  },
  "schemaVersion": "3.4.7",
  "updatedAt": "2022-05-30T18:13:42.589Z",
  "devdoc": {
    "methods": {
      "renounceOwnership()": {
        "details": "Allows the current owner to relinquish control of the contract.\r"
      },
      "transferOwnership(address)": {
        "details": "Allows the current owner to transfer control of the contract to a newOwner.\r",
        "params": {
          "_newOwner": "The address to transfer ownership to.\r"
        }
      }
    },
    "title": "Ereuse Device basic implementation\r"
  },
  "userdoc": {
    "methods": {
      "renounceOwnership()": {
        "notice": "Renouncing to ownership will leave the contract without an owner.\r It will not be possible to call the functions with the `onlyOwner`\r modifier anymore.\r"
      }
    }
  }
}