{
  "contractName": "DeviceFactory",
  "abi": [
    {
      "anonymous": false,
      "inputs": [
        {
          "indexed": true,
          "name": "_deviceAddress",
          "type": "address"
        },
        {
          "indexed": false,
          "name": "timestamp",
          "type": "uint256"
        }
      ],
      "name": "DeviceRegistered",
      "type": "event"
    },
    {
      "constant": false,
      "inputs": [
        {
          "name": "_chid",
          "type": "string"
        }
      ],
      "name": "registerDevice",
      "outputs": [
        {
          "name": "_device",
          "type": "address"
        }
      ],
      "payable": false,
      "stateMutability": "nonpayable",
      "type": "function"
    },
    {
      "constant": true,
      "inputs": [],
      "name": "getDeployedDevices",
      "outputs": [
        {
          "name": "_deployed_devices",
          "type": "address[]"
        }
      ],
      "payable": false,
      "stateMutability": "view",
      "type": "function"
    },
    {
      "constant": true,
      "inputs": [],
      "name": "getAllDeployedDevices",
      "outputs": [
        {
          "name": "_devices",
          "type": "address[]"
        }
      ],
      "payable": false,
      "stateMutability": "view",
      "type": "function"
    },
    {
      "constant": true,
      "inputs": [
        {
          "name": "_chid",
          "type": "string"
        }
      ],
      "name": "getAddressFromChid",
      "outputs": [
        {
          "name": "_address",
          "type": "address"
        }
      ],
      "payable": false,
      "stateMutability": "view",
      "type": "function"
    }
  ],
  "bytecode": "0x608060405234801561001057600080fd5b506138af806100206000396000f30060806040526004361062000067576000357c0100000000000000000000000000000000000000000000000000000000900463ffffffff1680633cc4262a146200006c57806350a8215914620000dd578063cf4b985e1462000189578063dff49f2e1462000235575b600080fd5b3480156200007957600080fd5b5062000084620002a6565b6040518080602001828103825283818151815260200191508051906020019060200280838360005b83811015620000c9578082015181840152602081019050620000ac565b505050509050019250505060405180910390f35b348015620000ea57600080fd5b5062000147600480360381019080803590602001908201803590602001908080601f016020809104026020016040519081016040528093929190818152602001838380828437820191505050505050919291929050505062000336565b604051808273ffffffffffffffffffffffffffffffffffffffff1673ffffffffffffffffffffffffffffffffffffffff16815260200191505060405180910390f35b3480156200019657600080fd5b50620001f3600480360381019080803590602001908201803590602001908080601f0160208091040260200160405190810160405280939291908181526020018383808284378201915050505050509192919290505050620003cd565b604051808273ffffffffffffffffffffffffffffffffffffffff1673ffffffffffffffffffffffffffffffffffffffff16815260200191505060405180910390f35b3480156200024257600080fd5b506200024d6200088f565b6040518080602001828103825283818151815260200191508051906020019060200280838360005b838110156200029257808201518184015260208101905062000275565b505050509050019250505060405180910390f35b606060038054806020026020016040519081016040528092919081815260200182805480156200032c57602002820191906000526020600020905b8160009054906101000a900473ffffffffffffffffffffffffffffffffffffffff1673ffffffffffffffffffffffffffffffffffffffff1681526020019060010190808311620002e1575b5050505050905090565b60006001826040518082805190602001908083835b6020831015156200037257805182526020820191506020810190506020830392506200034b565b6001836020036101000a038019825116818451168082178552505050505050905001915050908152602001604051809103902060009054906101000a900473ffffffffffffffffffffffffffffffffffffffff169050919050565b600080600073ffffffffffffffffffffffffffffffffffffffff166001846040518082805190602001908083835b602083101515620004225780518252602082019150602081019050602083039250620003fb565b6001836020036101000a038019825116818451168082178552505050505050905001915050908152602001604051809103902060009054906101000a900473ffffffffffffffffffffffffffffffffffffffff1673ffffffffffffffffffffffffffffffffffffffff1614151562000528576040517f08c379a000000000000000000000000000000000000000000000000000000000815260040180806020018281038252602b8152602001807f43616e277420726567697374657220616e20616c72656164792072656769737481526020017f657265642064657669636500000000000000000000000000000000000000000081525060400191505060405180910390fd5b8233306200053562000a75565b80806020018473ffffffffffffffffffffffffffffffffffffffff1673ffffffffffffffffffffffffffffffffffffffff1681526020018373ffffffffffffffffffffffffffffffffffffffff1673ffffffffffffffffffffffffffffffffffffffff168152602001828103825285818151815260200191508051906020019080838360005b83811015620005d8578082015181840152602081019050620005bb565b50505050905090810190601f168015620006065780820380516001836020036101000a031916815260200191505b50945050505050604051809103906000f0801580156200062a573d6000803e3d6000fd5b5090506000803373ffffffffffffffffffffffffffffffffffffffff1673ffffffffffffffffffffffffffffffffffffffff1681526020019081526020016000208190806001815401808255809150509060018203906000526020600020016000909192909190916101000a81548173ffffffffffffffffffffffffffffffffffffffff021916908373ffffffffffffffffffffffffffffffffffffffff16021790555050806001846040518082805190602001908083835b6020831015156200070a5780518252602082019150602081019050602083039250620006e3565b6001836020036101000a038019825116818451168082178552505050505050905001915050908152602001604051809103902060006101000a81548173ffffffffffffffffffffffffffffffffffffffff021916908373ffffffffffffffffffffffffffffffffffffffff16021790555060016000803373ffffffffffffffffffffffffffffffffffffffff1673ffffffffffffffffffffffffffffffffffffffff168152602001908152602001600020805490501415620007d257620007d1336200095b565b5b60038190806001815401808255809150509060018203906000526020600020016000909192909190916101000a81548173ffffffffffffffffffffffffffffffffffffffff021916908373ffffffffffffffffffffffffffffffffffffffff160217905550508073ffffffffffffffffffffffffffffffffffffffff167f0ec66eac7cc2b6555e1742961a9ee17e918d7ff81b635fac9cc6833245d279d6426040518082815260200191505060405180910390a280915050919050565b60606000803373ffffffffffffffffffffffffffffffffffffffff1673ffffffffffffffffffffffffffffffffffffffff1681526020019081526020016000208054806020026020016040519081016040528092919081815260200182805480156200095157602002820191906000526020600020905b8160009054906101000a900473ffffffffffffffffffffffffffffffffffffffff1673ffffffffffffffffffffffffffffffffffffffff168152602001906001019080831162000906575b5050505050905090565b60008060008092506002805490509150600090505b8181101562000a00578373ffffffffffffffffffffffffffffffffffffffff16600282815481101515620009a057fe5b9060005260206000200160009054906101000a900473ffffffffffffffffffffffffffffffffffffffff1673ffffffffffffffffffffffffffffffffffffffff161415620009f2576001925062000a00565b808060010191505062000970565b82151562000a6f5760028490806001815401808255809150509060018203906000526020600020016000909192909190916101000a81548173ffffffffffffffffffffffffffffffffffffffff021916908373ffffffffffffffffffffffffffffffffffffffff160217905550505b50505050565b604051612dfd8062000a8783390190560060806040523480156200001157600080fd5b5060405162002dfd38038062002dfd833981018060405262000037919081019062000550565b6200004162000384565b336000806101000a81548173ffffffffffffffffffffffffffffffffffffffff021916908373ffffffffffffffffffffffffffffffffffffffff16021790555081600160006101000a81548173ffffffffffffffffffffffffffffffffffffffff021916908373ffffffffffffffffffffffffffffffffffffffff1602179055506000600260040160146101000a81548160ff02191690831515021790555082600260040160006101000a81548173ffffffffffffffffffffffffffffffffffffffff021916908373ffffffffffffffffffffffffffffffffffffffff16021790555083600260000190805190602001906200013f929190620003a6565b50426002600301819055506200016483620001a5640100000000026401000000009004565b83816000018190525042816020018181525050438160400181815250506200019b81620002d8640100000000026401000000009004565b50505050620007d7565b600073ffffffffffffffffffffffffffffffffffffffff168173ffffffffffffffffffffffffffffffffffffffff16141515156200021a576040517f08c379a00000000000000000000000000000000000000000000000000000000081526004016200021190620006be565b60405180910390fd5b8073ffffffffffffffffffffffffffffffffffffffff166000809054906101000a900473ffffffffffffffffffffffffffffffffffffffff1673ffffffffffffffffffffffffffffffffffffffff167f8be0079c531659141344cd1fd0a4f28419497f9722a3daafe3b4186f6b6457e060405160405180910390a3806000806101000a81548173ffffffffffffffffffffffffffffffffffffffff021916908373ffffffffffffffffffffffffffffffffffffffff16021790555050565b600781908060018154018082558091505090600182039060005260206000209060030201600090919290919091506000820151816000019080519060200190620003249291906200042d565b5060208201518160010155604082015181600201555050507f69a49b7d55d0363d4054f74cd6b1dd9ba7f6d3a1bd676ad4fc957d874a6ca08b308260000151836020015160405162000379939291906200067a565b60405180910390a150565b6060604051908101604052806060815260200160008152602001600081525090565b828054600181600116156101000203166002900490600052602060002090601f016020900481019282601f10620003e957805160ff19168380011785556200041a565b828001600101855582156200041a579182015b8281111562000419578251825591602001919060010190620003fc565b5b509050620004299190620004b4565b5090565b828054600181600116156101000203166002900490600052602060002090601f016020900481019282601f106200047057805160ff1916838001178555620004a1565b82800160010185558215620004a1579182015b82811115620004a057825182559160200191906001019062000483565b5b509050620004b09190620004b4565b5090565b620004d991905b80821115620004d5576000816000905550600101620004bb565b5090565b90565b6000620004ea825162000770565b905092915050565b600082601f83011215156200050657600080fd5b81516200051d62000517826200070e565b620006e0565b915080825260208301602083018583830111156200053a57600080fd5b6200054783828462000790565b50505092915050565b6000806000606084860312156200056657600080fd5b600084015167ffffffffffffffff8111156200058157600080fd5b6200058f86828701620004f2565b9350506020620005a286828701620004dc565b9250506040620005b586828701620004dc565b9150509250925092565b620005ca8162000746565b82525050565b6000620005dd826200073b565b808452620005f381602086016020860162000790565b620005fe81620007c6565b602085010191505092915050565b6000602f82527f546865206e6577206f776e65722063616e6e6f7420626520746865206465666160208301527f756c7420616464726573732030783000000000000000000000000000000000006040830152606082019050919050565b620006748162000766565b82525050565b6000606082019050620006916000830186620005bf565b8181036020830152620006a58185620005d0565b9050620006b6604083018462000669565b949350505050565b60006020820190508181036000830152620006d9816200060c565b9050919050565b6000604051905081810181811067ffffffffffffffff821117156200070457600080fd5b8060405250919050565b600067ffffffffffffffff8211156200072657600080fd5b601f19601f8301169050602081019050919050565b600081519050919050565b600073ffffffffffffffffffffffffffffffffffffffff82169050919050565b6000819050919050565b600073ffffffffffffffffffffffffffffffffffffffff82169050919050565b60005b83811015620007b057808201518184015260208101905062000793565b83811115620007c0576000848401525b50505050565b6000601f19601f8301169050919050565b61261680620007e76000396000f3006080604052600436106100af576000357c0100000000000000000000000000000000000000000000000000000000900463ffffffff168063044b3827146100b45780630e9bc992146100df57806316947c581461010a5780631f2852d6146101335780633bc5de301461015c578063715018a6146101875780638da5cb5b1461019e578063b9d8b583146101c9578063c28b3a81146101f4578063e2351daf1461021d578063f2fde38b14610248575b600080fd5b3480156100c057600080fd5b506100c9610271565b6040516100d69190612331565b60405180910390f35b3480156100eb57600080fd5b506100f4610387565b6040516101019190612375565b60405180910390f35b34801561011657600080fd5b50610131600480360361012c9190810190611b7e565b610725565b005b34801561013f57600080fd5b5061015a60048036036101559190810190611b3d565b610993565b005b34801561016857600080fd5b50610171610acf565b60405161017e9190612419565b60405180910390f35b34801561019357600080fd5b5061019c610d4b565b005b3480156101aa57600080fd5b506101b3610e83565b6040516101c09190612246565b60405180910390f35b3480156101d557600080fd5b506101de610ea8565b6040516101eb9190612397565b60405180910390f35b34801561020057600080fd5b5061021b60048036036102169190810190611b7e565b610fbe565b005b34801561022957600080fd5b50610232611151565b60405161023f9190612353565b60405180910390f35b34801561025457600080fd5b5061026f600480360361026a9190810190611b14565b6114ef565b005b60606008805480602002602001604051908101604052809291908181526020016000905b8282101561037e578382906000526020600020906003020160606040519081016040529081600082018054600181600116156101000203166002900480601f0160208091040260200160405190810160405280929190818152602001828054600181600116156101000203166002900480156103525780601f1061032757610100808354040283529160200191610352565b820191906000526020600020905b81548152906001019060200180831161033557829003601f168201915b505050505081526020016001820154815260200160028201548152505081526020019060010190610295565b50505050905090565b60606009805480602002602001604051908101604052809291908181526020016000905b8282101561071c578382906000526020600020906007020160e06040519081016040529081600082018054600181600116156101000203166002900480601f0160208091040260200160405190810160405280929190818152602001828054600181600116156101000203166002900480156104685780601f1061043d57610100808354040283529160200191610468565b820191906000526020600020905b81548152906001019060200180831161044b57829003601f168201915b50505050508152602001600182018054600181600116156101000203166002900480601f01602080910402602001604051908101604052809291908181526020018280546001816001161561010002031660029004801561050a5780601f106104df5761010080835404028352916020019161050a565b820191906000526020600020905b8154815290600101906020018083116104ed57829003601f168201915b50505050508152602001600282018054600181600116156101000203166002900480601f0160208091040260200160405190810160405280929190818152602001828054600181600116156101000203166002900480156105ac5780601f10610581576101008083540402835291602001916105ac565b820191906000526020600020905b81548152906001019060200180831161058f57829003601f168201915b50505050508152602001600382018054600181600116156101000203166002900480601f01602080910402602001604051908101604052809291908181526020018280546001816001161561010002031660029004801561064e5780601f106106235761010080835404028352916020019161064e565b820191906000526020600020905b81548152906001019060200180831161063157829003601f168201915b50505050508152602001600482018054600181600116156101000203166002900480601f0160208091040260200160405190810160405280929190818152602001828054600181600116156101000203166002900480156106f05780601f106106c5576101008083540402835291602001916106f0565b820191906000526020600020905b8154815290600101906020018083116106d357829003601f168201915b5050505050815260200160058201548152602001600682015481525050815260200190600101906103ab565b50505050905090565b61072d611898565b6000809054906101000a900473ffffffffffffffffffffffffffffffffffffffff1673ffffffffffffffffffffffffffffffffffffffff163373ffffffffffffffffffffffffffffffffffffffff161415156107be576040517f08c379a00000000000000000000000000000000000000000000000000000000081526004016107b5906123b9565b60405180910390fd5b60001515600260040160149054906101000a900460ff161515141515610819576040517f08c379a0000000000000000000000000000000000000000000000000000000008152600401610810906123f9565b60405180910390fd5b858160000181905250848160200181905250838160400181905250828160600181905250818160800181905250428160a0018181525050438160c0018181525050600a819080600181540180825580915050906001820390600052602060002090600702016000909192909190915060008201518160000190805190602001906108a49291906118d6565b5060208201518160010190805190602001906108c19291906118d6565b5060408201518160020190805190602001906108de9291906118d6565b5060608201518160030190805190602001906108fb9291906118d6565b5060808201518160040190805190602001906109189291906118d6565b5060a0820151816005015560c082015181600601555050507f75d0e55e2b0f81c59701404c4f8c99b70f56aa7b7c9392bcd253bdeb80e0b7e730826000015183602001518460400151856060015186608001518760a001516040516109839796959493929190612261565b60405180910390a1505050505050565b61099b611956565b6000809054906101000a900473ffffffffffffffffffffffffffffffffffffffff1673ffffffffffffffffffffffffffffffffffffffff163373ffffffffffffffffffffffffffffffffffffffff16141515610a2c576040517f08c379a0000000000000000000000000000000000000000000000000000000008152600401610a23906123b9565b60405180910390fd5b60001515600260040160149054906101000a900460ff161515141515610a87576040517f08c379a0000000000000000000000000000000000000000000000000000000008152600401610a7e906123f9565b60405180910390fd5b6001600260040160146101000a81548160ff0219169083151502179055508181600001819052504281602001818152505043816040018181525050610acb8161158c565b5050565b610ad7611978565b600260c06040519081016040529081600082018054600181600116156101000203166002900480601f016020809104026020016040519081016040528092919081815260200182805460018160011615610100020316600290048015610b7e5780601f10610b5357610100808354040283529160200191610b7e565b820191906000526020600020905b815481529060010190602001808311610b6157829003601f168201915b50505050508152602001600182018054600181600116156101000203166002900480601f016020809104026020016040519081016040528092919081815260200182805460018160011615610100020316600290048015610c205780601f10610bf557610100808354040283529160200191610c20565b820191906000526020600020905b815481529060010190602001808311610c0357829003601f168201915b50505050508152602001600282018054600181600116156101000203166002900480601f016020809104026020016040519081016040528092919081815260200182805460018160011615610100020316600290048015610cc25780601f10610c9757610100808354040283529160200191610cc2565b820191906000526020600020905b815481529060010190602001808311610ca557829003601f168201915b50505050508152602001600382015481526020016004820160009054906101000a900473ffffffffffffffffffffffffffffffffffffffff1673ffffffffffffffffffffffffffffffffffffffff1673ffffffffffffffffffffffffffffffffffffffff1681526020016004820160149054906101000a900460ff161515151581525050905090565b6000809054906101000a900473ffffffffffffffffffffffffffffffffffffffff1673ffffffffffffffffffffffffffffffffffffffff163373ffffffffffffffffffffffffffffffffffffffff16141515610ddc576040517f08c379a0000000000000000000000000000000000000000000000000000000008152600401610dd3906123b9565b60405180910390fd5b6000809054906101000a900473ffffffffffffffffffffffffffffffffffffffff1673ffffffffffffffffffffffffffffffffffffffff167ff8df31144d9c2f0f6b59d69b8b98abd5459d07f2742c4df920b25aae33c6482060405160405180910390a260008060006101000a81548173ffffffffffffffffffffffffffffffffffffffff021916908373ffffffffffffffffffffffffffffffffffffffff160217905550565b6000809054906101000a900473ffffffffffffffffffffffffffffffffffffffff1681565b60606007805480602002602001604051908101604052809291908181526020016000905b82821015610fb5578382906000526020600020906003020160606040519081016040529081600082018054600181600116156101000203166002900480601f016020809104026020016040519081016040528092919081815260200182805460018160011615610100020316600290048015610f895780601f10610f5e57610100808354040283529160200191610f89565b820191906000526020600020905b815481529060010190602001808311610f6c57829003601f168201915b505050505081526020016001820154815260200160028201548152505081526020019060010190610ecc565b50505050905090565b610fc66119c7565b6000809054906101000a900473ffffffffffffffffffffffffffffffffffffffff1673ffffffffffffffffffffffffffffffffffffffff163373ffffffffffffffffffffffffffffffffffffffff16141515611057576040517f08c379a000000000000000000000000000000000000000000000000000000000815260040161104e906123b9565b60405180910390fd5b60001515600260040160149054906101000a900460ff1615151415156110b2576040517f08c379a00000000000000000000000000000000000000000000000000000000081526004016110a9906123f9565b60405180910390fd5b858160000181905250848160200181905250838160400181905250828160600181905250818160800181905250428160a0018181525050438160c0018181525050856002600001908051906020019061110c929190611a05565b508460026001019080519060200190611126929190611a05565b508160028001908051906020019061113f929190611a05565b5061114981611634565b505050505050565b6060600a805480602002602001604051908101604052809291908181526020016000905b828210156114e6578382906000526020600020906007020160e06040519081016040529081600082018054600181600116156101000203166002900480601f0160208091040260200160405190810160405280929190818152602001828054600181600116156101000203166002900480156112325780601f1061120757610100808354040283529160200191611232565b820191906000526020600020905b81548152906001019060200180831161121557829003601f168201915b50505050508152602001600182018054600181600116156101000203166002900480601f0160208091040260200160405190810160405280929190818152602001828054600181600116156101000203166002900480156112d45780601f106112a9576101008083540402835291602001916112d4565b820191906000526020600020905b8154815290600101906020018083116112b757829003601f168201915b50505050508152602001600282018054600181600116156101000203166002900480601f0160208091040260200160405190810160405280929190818152602001828054600181600116156101000203166002900480156113765780601f1061134b57610100808354040283529160200191611376565b820191906000526020600020905b81548152906001019060200180831161135957829003601f168201915b50505050508152602001600382018054600181600116156101000203166002900480601f0160208091040260200160405190810160405280929190818152602001828054600181600116156101000203166002900480156114185780601f106113ed57610100808354040283529160200191611418565b820191906000526020600020905b8154815290600101906020018083116113fb57829003601f168201915b50505050508152602001600482018054600181600116156101000203166002900480601f0160208091040260200160405190810160405280929190818152602001828054600181600116156101000203166002900480156114ba5780601f1061148f576101008083540402835291602001916114ba565b820191906000526020600020905b81548152906001019060200180831161149d57829003601f168201915b505050505081526020016005820154815260200160068201548152505081526020019060010190611175565b50505050905090565b6000809054906101000a900473ffffffffffffffffffffffffffffffffffffffff1673ffffffffffffffffffffffffffffffffffffffff163373ffffffffffffffffffffffffffffffffffffffff16141515611580576040517f08c379a0000000000000000000000000000000000000000000000000000000008152600401611577906123b9565b60405180910390fd5b61158981611768565b50565b6008819080600181540180825580915050906001820390600052602060002090600302016000909192909190915060008201518160000190805190602001906115d69291906118d6565b5060208201518160010155604082015181600201555050507fa821e3633a53ec7cf6887da61b4a7b2b5cdedbbd5980ad8f05aac54368faeca93082600001518360200151604051611629939291906122f3565b60405180910390a150565b60098190806001815401808255809150509060018203906000526020600020906007020160009091929091909150600082015181600001908051906020019061167e9291906118d6565b50602082015181600101908051906020019061169b9291906118d6565b5060408201518160020190805190602001906116b89291906118d6565b5060608201518160030190805190602001906116d59291906118d6565b5060808201518160040190805190602001906116f29291906118d6565b5060a0820151816005015560c082015181600601555050507fdac5500cff3f509dad96fb319377149734275664c1ad577ed3216bb108972cc530826000015183602001518460400151856060015186608001518760a0015160405161175d9796959493929190612261565b60405180910390a150565b600073ffffffffffffffffffffffffffffffffffffffff168173ffffffffffffffffffffffffffffffffffffffff16141515156117da576040517f08c379a00000000000000000000000000000000000000000000000000000000081526004016117d1906123d9565b60405180910390fd5b8073ffffffffffffffffffffffffffffffffffffffff166000809054906101000a900473ffffffffffffffffffffffffffffffffffffffff1673ffffffffffffffffffffffffffffffffffffffff167f8be0079c531659141344cd1fd0a4f28419497f9722a3daafe3b4186f6b6457e060405160405180910390a3806000806101000a81548173ffffffffffffffffffffffffffffffffffffffff021916908373ffffffffffffffffffffffffffffffffffffffff16021790555050565b60e060405190810160405280606081526020016060815260200160608152602001606081526020016060815260200160008152602001600081525090565b828054600181600116156101000203166002900490600052602060002090601f016020900481019282601f1061191757805160ff1916838001178555611945565b82800160010185558215611945579182015b82811115611944578251825591602001919060010190611929565b5b5090506119529190611a85565b5090565b6060604051908101604052806060815260200160008152602001600081525090565b60c06040519081016040528060608152602001606081526020016060815260200160008152602001600073ffffffffffffffffffffffffffffffffffffffff1681526020016000151581525090565b60e060405190810160405280606081526020016060815260200160608152602001606081526020016060815260200160008152602001600081525090565b828054600181600116156101000203166002900490600052602060002090601f016020900481019282601f10611a4657805160ff1916838001178555611a74565b82800160010185558215611a74579182015b82811115611a73578251825591602001919060010190611a58565b5b509050611a819190611a85565b5090565b611aa791905b80821115611aa3576000816000905550600101611a8b565b5090565b90565b6000611ab68235612569565b905092915050565b600082601f8301121515611ad157600080fd5b8135611ae4611adf82612468565b61243b565b91508082526020830160208301858383011115611b0057600080fd5b611b0b838284612589565b50505092915050565b600060208284031215611b2657600080fd5b6000611b3484828501611aaa565b91505092915050565b600060208284031215611b4f57600080fd5b600082013567ffffffffffffffff811115611b6957600080fd5b611b7584828501611abe565b91505092915050565b600080600080600060a08688031215611b9657600080fd5b600086013567ffffffffffffffff811115611bb057600080fd5b611bbc88828901611abe565b955050602086013567ffffffffffffffff811115611bd957600080fd5b611be588828901611abe565b945050604086013567ffffffffffffffff811115611c0257600080fd5b611c0e88828901611abe565b935050606086013567ffffffffffffffff811115611c2b57600080fd5b611c3788828901611abe565b925050608086013567ffffffffffffffff811115611c5457600080fd5b611c6088828901611abe565b9150509295509295909350565b611c7681612533565b82525050565b6000611c87826124c8565b80845260208401935083602082028501611ca085612494565b60005b84811015611cd9578383038852611cbb838351611f90565b9250611cc6826124ff565b9150602088019750600181019050611ca3565b508196508694505050505092915050565b6000611cf5826124d3565b80845260208401935083602082028501611d0e856124a1565b60005b84811015611d47578383038852611d29838351612077565b9250611d348261250c565b9150602088019750600181019050611d11565b508196508694505050505092915050565b6000611d63826124de565b80845260208401935083602082028501611d7c856124ae565b60005b84811015611db5578383038852611d9783835161212f565b9250611da282612519565b9150602088019750600181019050611d7f565b508196508694505050505092915050565b6000611dd1826124e9565b80845260208401935083602082028501611dea856124bb565b60005b84811015611e23578383038852611e058383516121e7565b9250611e1082612526565b9150602088019750600181019050611ded565b508196508694505050505092915050565b611e3d81612553565b82525050565b6000611e4e826124f4565b808452611e62816020860160208601612598565b611e6b816125cb565b602085010191505092915050565b6000602382527f546865206d6573736167652073656e646572206973206e6f7420746865206f7760208301527f6e657200000000000000000000000000000000000000000000000000000000006040830152606082019050919050565b6000602f82527f546865206e6577206f776e65722063616e6e6f7420626520746865206465666160208301527f756c7420616464726573732030783000000000000000000000000000000000006040830152606082019050919050565b6000602382527f546869732064657669636520697320616c72656164792064657265676973746560208301527f72656400000000000000000000000000000000000000000000000000000000006040830152606082019050919050565b60006060830160008301518482036000860152611fad8282611e43565b9150506020830151611fc26020860182612237565b506040830151611fd56040860182612237565b508091505092915050565b600060c0830160008301518482036000860152611ffd8282611e43565b915050602083015184820360208601526120178282611e43565b915050604083015184820360408601526120318282611e43565b91505060608301516120466060860182612237565b5060808301516120596080860182611c6d565b5060a083015161206c60a0860182611e34565b508091505092915050565b600060e08301600083015184820360008601526120948282611e43565b915050602083015184820360208601526120ae8282611e43565b915050604083015184820360408601526120c88282611e43565b915050606083015184820360608601526120e28282611e43565b915050608083015184820360808601526120fc8282611e43565b91505060a083015161211160a0860182612237565b5060c083015161212460c0860182612237565b508091505092915050565b600060e083016000830151848203600086015261214c8282611e43565b915050602083015184820360208601526121668282611e43565b915050604083015184820360408601526121808282611e43565b9150506060830151848203606086015261219a8282611e43565b915050608083015184820360808601526121b48282611e43565b91505060a08301516121c960a0860182612237565b5060c08301516121dc60c0860182612237565b508091505092915050565b600060608301600083015184820360008601526122048282611e43565b91505060208301516122196020860182612237565b50604083015161222c6040860182612237565b508091505092915050565b6122408161255f565b82525050565b600060208201905061225b6000830184611c6d565b92915050565b600060e082019050612276600083018a611c6d565b81810360208301526122888189611e43565b9050818103604083015261229c8188611e43565b905081810360608301526122b08187611e43565b905081810360808301526122c48186611e43565b905081810360a08301526122d88185611e43565b90506122e760c0830184612237565b98975050505050505050565b60006060820190506123086000830186611c6d565b818103602083015261231a8185611e43565b90506123296040830184612237565b949350505050565b6000602082019050818103600083015261234b8184611c7c565b905092915050565b6000602082019050818103600083015261236d8184611cea565b905092915050565b6000602082019050818103600083015261238f8184611d58565b905092915050565b600060208201905081810360008301526123b18184611dc6565b905092915050565b600060208201905081810360008301526123d281611e79565b9050919050565b600060208201905081810360008301526123f281611ed6565b9050919050565b6000602082019050818103600083015261241281611f33565b9050919050565b600060208201905081810360008301526124338184611fe0565b905092915050565b6000604051905081810181811067ffffffffffffffff8211171561245e57600080fd5b8060405250919050565b600067ffffffffffffffff82111561247f57600080fd5b601f19601f8301169050602081019050919050565b6000602082019050919050565b6000602082019050919050565b6000602082019050919050565b6000602082019050919050565b600081519050919050565b600081519050919050565b600081519050919050565b600081519050919050565b600081519050919050565b6000602082019050919050565b6000602082019050919050565b6000602082019050919050565b6000602082019050919050565b600073ffffffffffffffffffffffffffffffffffffffff82169050919050565b60008115159050919050565b6000819050919050565b600073ffffffffffffffffffffffffffffffffffffffff82169050919050565b82818337600083830152505050565b60005b838110156125b657808201518184015260208101905061259b565b838111156125c5576000848401525b50505050565b6000601f19601f83011690509190505600a265627a7a72305820bc752ec2af332db40ac3b78dfb1c3187787903b360bffaeba21673b8e197f92b6c6578706572696d656e74616cf50037a165627a7a7230582068584afe47fa9b0daa5664abcdc8678cbe05bf2008fd2fde1cda349b936b72240029",
  "source": "pragma solidity ^0.4.25;\r\n\r\n//import \"project:/contracts/DepositDevice.sol\";\r\n//import \"project:/contracts/Ownable.sol\";\r\nimport \"./DepositDevice.sol\";\r\nimport \"./Ownable.sol\";\r\n\r\ncontract DeviceFactory {\r\n    mapping(address => address[]) deployed_devices;\r\n    mapping(string => address) translation;\r\n    address[] owners;\r\n    address[] devices;\r\n\r\n    //-------  EVENTS  -------//\r\n    event DeviceRegistered(address indexed _deviceAddress, uint timestamp);\r\n\r\n\r\n    function registerDevice( \r\n        string _chid\r\n    ) public returns (address _device) {\r\n        require(translation[_chid] == address(0), \"Can't register an already registered device\");\r\n        DepositDevice newContract = new DepositDevice(\r\n            _chid,\r\n            msg.sender,\r\n            address(this)\r\n        );\r\n        deployed_devices[msg.sender].push(newContract);\r\n        translation[_chid] = newContract;\r\n        if(deployed_devices[msg.sender].length == 1) {\r\n            registerOwner(msg.sender);\r\n        }\r\n        devices.push(newContract);\r\n        emit DeviceRegistered(newContract, block.timestamp);\r\n        return newContract;\r\n    }\r\n\r\n    function registerOwner(address owner) internal{\r\n        bool owner_exists = false;\r\n        uint256 length = owners.length;\r\n        for (uint256 i = 0; i < length; i++) {\r\n            if(owners[i]==owner){\r\n                owner_exists=true;\r\n                break;\r\n            }\r\n        }\r\n        if(!owner_exists) owners.push(owner);\r\n    }\r\n\r\n    // function transfer(address current_owner, address new_owner) public {\r\n    //     if(current_owner != new_owner){\r\n    //         deleteOwnership(current_owner);\r\n    //         deployed_devices[new_owner].push(msg.sender);\r\n    //     }\r\n    // }\r\n\r\n    function deleteOwnership(address owner) internal {\r\n        uint256 length = deployed_devices[owner].length;\r\n        for (uint256 i = 0; i < length; i++) {\r\n            if (deployed_devices[owner][i] == msg.sender) {\r\n                deployed_devices[owner][i] = deployed_devices[owner][length - 1];\r\n                delete deployed_devices[owner][length - 1];\r\n                deployed_devices[owner].length--;\r\n                break;\r\n            }\r\n        }\r\n    }\r\n\r\n    // function recycle(address _owner) public {\r\n    //     deleteOwnership(_owner);\r\n    // }\r\n\r\n\r\n    function getDeployedDevices() public view returns (address[] _deployed_devices){\r\n        return deployed_devices[msg.sender];\r\n    }\r\n\r\n\r\n    function getAllDeployedDevices() public view returns (address[] _devices){\r\n        return devices;\r\n    }\r\n\r\n    function getAddressFromChid(string _chid) public view returns (address _address){\r\n        return translation[_chid];\r\n    }\r\n}",
  "sourcePath": "C:\\Users\\T4U\\Desktop\\gitlab\\trublo_contracts_api\\contracts\\DeviceFactory.sol",
  "compiler": {
    "name": "solc",
    "version": "0.4.26+commit.4563c3fc.Emscripten.clang"
  },
  "schemaVersion": "3.4.3",
  "updatedAt": "2022-02-15T14:04:07.238Z",
  "networkType": "ethereum",
  "devdoc": {
    "methods": {}
  },
  "userdoc": {
    "methods": {}
  }
}